{"@chainlink/contracts/src/v0.8/mocks/VRFCoordinatorV2Mock.sol":{"VRFCoordinatorV2Mock":{"abi":[{"inputs":[{"internalType":"uint96","name":"_baseFee","type":"uint96"},{"internalType":"uint96","name":"_gasPriceLink","type":"uint96"}],"stateMutability":"nonpayable","type":"constructor"},{"inputs":[],"name":"InsufficientBalance","type":"error"},{"inputs":[],"name":"InvalidConsumer","type":"error"},{"inputs":[],"name":"InvalidRandomWords","type":"error"},{"inputs":[],"name":"InvalidSubscription","type":"error"},{"inputs":[{"internalType":"address","name":"owner","type":"address"}],"name":"MustBeSubOwner","type":"error"},{"inputs":[],"name":"TooManyConsumers","type":"error"},{"anonymous":false,"inputs":[{"indexed":true,"internalType":"uint64","name":"subId","type":"uint64"},{"indexed":false,"internalType":"address","name":"consumer","type":"address"}],"name":"ConsumerAdded","type":"event"},{"anonymous":false,"inputs":[{"indexed":true,"internalType":"uint64","name":"subId","type":"uint64"},{"indexed":false,"internalType":"address","name":"consumer","type":"address"}],"name":"ConsumerRemoved","type":"event"},{"anonymous":false,"inputs":[{"indexed":true,"internalType":"uint256","name":"requestId","type":"uint256"},{"indexed":false,"internalType":"uint256","name":"outputSeed","type":"uint256"},{"indexed":false,"internalType":"uint96","name":"payment","type":"uint96"},{"indexed":false,"internalType":"bool","name":"success","type":"bool"}],"name":"RandomWordsFulfilled","type":"event"},{"anonymous":false,"inputs":[{"indexed":true,"internalType":"bytes32","name":"keyHash","type":"bytes32"},{"indexed":false,"internalType":"uint256","name":"requestId","type":"uint256"},{"indexed":false,"internalType":"uint256","name":"preSeed","type":"uint256"},{"indexed":true,"internalType":"uint64","name":"subId","type":"uint64"},{"indexed":false,"internalType":"uint16","name":"minimumRequestConfirmations","type":"uint16"},{"indexed":false,"internalType":"uint32","name":"callbackGasLimit","type":"uint32"},{"indexed":false,"internalType":"uint32","name":"numWords","type":"uint32"},{"indexed":true,"internalType":"address","name":"sender","type":"address"}],"name":"RandomWordsRequested","type":"event"},{"anonymous":false,"inputs":[{"indexed":true,"internalType":"uint64","name":"subId","type":"uint64"},{"indexed":false,"internalType":"address","name":"to","type":"address"},{"indexed":false,"internalType":"uint256","name":"amount","type":"uint256"}],"name":"SubscriptionCanceled","type":"event"},{"anonymous":false,"inputs":[{"indexed":true,"internalType":"uint64","name":"subId","type":"uint64"},{"indexed":false,"internalType":"address","name":"owner","type":"address"}],"name":"SubscriptionCreated","type":"event"},{"anonymous":false,"inputs":[{"indexed":true,"internalType":"uint64","name":"subId","type":"uint64"},{"indexed":false,"internalType":"uint256","name":"oldBalance","type":"uint256"},{"indexed":false,"internalType":"uint256","name":"newBalance","type":"uint256"}],"name":"SubscriptionFunded","type":"event"},{"inputs":[],"name":"BASE_FEE","outputs":[{"internalType":"uint96","name":"","type":"uint96"}],"stateMutability":"view","type":"function"},{"inputs":[],"name":"GAS_PRICE_LINK","outputs":[{"internalType":"uint96","name":"","type":"uint96"}],"stateMutability":"view","type":"function"},{"inputs":[],"name":"MAX_CONSUMERS","outputs":[{"internalType":"uint16","name":"","type":"uint16"}],"stateMutability":"view","type":"function"},{"inputs":[{"internalType":"uint64","name":"_subId","type":"uint64"}],"name":"acceptSubscriptionOwnerTransfer","outputs":[],"stateMutability":"pure","type":"function"},{"inputs":[{"internalType":"uint64","name":"_subId","type":"uint64"},{"internalType":"address","name":"_consumer","type":"address"}],"name":"addConsumer","outputs":[],"stateMutability":"nonpayable","type":"function"},{"inputs":[{"internalType":"uint64","name":"_subId","type":"uint64"},{"internalType":"address","name":"_to","type":"address"}],"name":"cancelSubscription","outputs":[],"stateMutability":"nonpayable","type":"function"},{"inputs":[{"internalType":"uint64","name":"_subId","type":"uint64"},{"internalType":"address","name":"_consumer","type":"address"}],"name":"consumerIsAdded","outputs":[{"internalType":"bool","name":"","type":"bool"}],"stateMutability":"view","type":"function"},{"inputs":[],"name":"createSubscription","outputs":[{"internalType":"uint64","name":"_subId","type":"uint64"}],"stateMutability":"nonpayable","type":"function"},{"inputs":[{"internalType":"uint256","name":"_requestId","type":"uint256"},{"internalType":"address","name":"_consumer","type":"address"}],"name":"fulfillRandomWords","outputs":[],"stateMutability":"nonpayable","type":"function"},{"inputs":[{"internalType":"uint256","name":"_requestId","type":"uint256"},{"internalType":"address","name":"_consumer","type":"address"},{"internalType":"uint256[]","name":"_words","type":"uint256[]"}],"name":"fulfillRandomWordsWithOverride","outputs":[],"stateMutability":"nonpayable","type":"function"},{"inputs":[{"internalType":"uint64","name":"_subId","type":"uint64"},{"internalType":"uint96","name":"_amount","type":"uint96"}],"name":"fundSubscription","outputs":[],"stateMutability":"nonpayable","type":"function"},{"inputs":[],"name":"getConfig","outputs":[{"internalType":"uint16","name":"minimumRequestConfirmations","type":"uint16"},{"internalType":"uint32","name":"maxGasLimit","type":"uint32"},{"internalType":"uint32","name":"stalenessSeconds","type":"uint32"},{"internalType":"uint32","name":"gasAfterPaymentCalculation","type":"uint32"}],"stateMutability":"view","type":"function"},{"inputs":[],"name":"getFallbackWeiPerUnitLink","outputs":[{"internalType":"int256","name":"","type":"int256"}],"stateMutability":"view","type":"function"},{"inputs":[],"name":"getFeeConfig","outputs":[{"internalType":"uint32","name":"fulfillmentFlatFeeLinkPPMTier1","type":"uint32"},{"internalType":"uint32","name":"fulfillmentFlatFeeLinkPPMTier2","type":"uint32"},{"internalType":"uint32","name":"fulfillmentFlatFeeLinkPPMTier3","type":"uint32"},{"internalType":"uint32","name":"fulfillmentFlatFeeLinkPPMTier4","type":"uint32"},{"internalType":"uint32","name":"fulfillmentFlatFeeLinkPPMTier5","type":"uint32"},{"internalType":"uint24","name":"reqsForTier2","type":"uint24"},{"internalType":"uint24","name":"reqsForTier3","type":"uint24"},{"internalType":"uint24","name":"reqsForTier4","type":"uint24"},{"internalType":"uint24","name":"reqsForTier5","type":"uint24"}],"stateMutability":"view","type":"function"},{"inputs":[],"name":"getRequestConfig","outputs":[{"internalType":"uint16","name":"","type":"uint16"},{"internalType":"uint32","name":"","type":"uint32"},{"internalType":"bytes32[]","name":"","type":"bytes32[]"}],"stateMutability":"pure","type":"function"},{"inputs":[{"internalType":"uint64","name":"_subId","type":"uint64"}],"name":"getSubscription","outputs":[{"internalType":"uint96","name":"balance","type":"uint96"},{"internalType":"uint64","name":"reqCount","type":"uint64"},{"internalType":"address","name":"owner","type":"address"},{"internalType":"address[]","name":"consumers","type":"address[]"}],"stateMutability":"view","type":"function"},{"inputs":[{"internalType":"uint64","name":"subId","type":"uint64"}],"name":"pendingRequestExists","outputs":[{"internalType":"bool","name":"","type":"bool"}],"stateMutability":"view","type":"function"},{"inputs":[{"internalType":"uint64","name":"_subId","type":"uint64"},{"internalType":"address","name":"_consumer","type":"address"}],"name":"removeConsumer","outputs":[],"stateMutability":"nonpayable","type":"function"},{"inputs":[{"internalType":"bytes32","name":"_keyHash","type":"bytes32"},{"internalType":"uint64","name":"_subId","type":"uint64"},{"internalType":"uint16","name":"_minimumRequestConfirmations","type":"uint16"},{"internalType":"uint32","name":"_callbackGasLimit","type":"uint32"},{"internalType":"uint32","name":"_numWords","type":"uint32"}],"name":"requestRandomWords","outputs":[{"internalType":"uint256","name":"","type":"uint256"}],"stateMutability":"nonpayable","type":"function"},{"inputs":[{"internalType":"uint64","name":"_subId","type":"uint64"},{"internalType":"address","name":"_newOwner","type":"address"}],"name":"requestSubscriptionOwnerTransfer","outputs":[],"stateMutability":"pure","type":"function"}],"devdoc":{"kind":"dev","methods":{"createSubscription()":{"details":"You can manage the consumer set dynamically with addConsumer/removeConsumer.Note to fund the subscription, use transferAndCall. For exampleLINKTOKEN.transferAndCall(address(COORDINATOR),amount,abi.encode(subId));","returns":{"_subId":"- A unique subscription id."}},"fulfillRandomWords(uint256,address)":{"details":"This mock uses a simplified formula for calculating payment amount and gas usage, and doesnot account for all edge cases handled in the real VRF coordinator. When making requestsagainst the real coordinator a small amount of additional LINK is required.","params":{"_consumer":"the VRF randomness consumer to send the result to","_requestId":"the request to fulfill"}},"fulfillRandomWordsWithOverride(uint256,address,uint256[])":{"params":{"_consumer":"the VRF randomness consumer to send the result to","_requestId":"the request to fulfill","_words":"user-provided random words"}},"fundSubscription(uint64,uint96)":{"params":{"_amount":"the amount to fund","_subId":"the subscription to fund"}},"getRequestConfig()":{"returns":{"_0":"minimumRequestConfirmations global min for request confirmations","_1":"maxGasLimit global max for request gas limit","_2":"s_provingKeyHashes list of registered key hashes"}}},"version":1},"evm":{"bytecode":{"linkReferences":{},"object":"60e0604052606461ffff1660c09061ffff1681525060018055606460025534801562000029575f80fd5b5060405162002c4138038062002c4183398181016040528101906200004f9190620000e9565b816bffffffffffffffffffffffff166080816bffffffffffffffffffffffff1681525050806bffffffffffffffffffffffff1660a0816bffffffffffffffffffffffff168152505050506200012e565b5f80fd5b5f6bffffffffffffffffffffffff82169050919050565b620000c581620000a3565b8114620000d0575f80fd5b50565b5f81519050620000e381620000ba565b92915050565b5f80604083850312156200010257620001016200009f565b5b5f6200011185828601620000d3565b92505060206200012485828601620000d3565b9150509250929050565b60805160a05160c051612ad36200016e5f395f8181610c710152610db501525f818161078101526114a301525f81816107c601526109c60152612ad35ff3fe608060405234801561000f575f80fd5b5060043610610129575f3560e01c806382359740116100ab578063afc69b531161006f578063afc69b5314610314578063c3f909d414610330578063d7ae1d3014610351578063e82ad7d41461036d578063ed5eb06d1461039d57610129565b8063823597401461026d5780639f87fad714610289578063a21a23e4146102a5578063a410347f146102c3578063a47c7696146102e157610129565b80635d3b1d30116100f25780635d3b1d30146101c15780635fbbc0d2146101f157806364d51a2a146102175780637341c10c14610235578063808974ff1461025157610129565b80620122911461012d57806304c357cb1461014d57806308e3898e14610169578063356dac71146101855780633d18651e146101a3575b5f80fd5b6101356103cd565b60405161014493929190611d09565b60405180910390f35b61016760048036038101906101629190611ded565b61042b565b005b610183600480360381019061017e9190611fae565b610466565b005b61018d6109b6565b60405161019a9190612032565b60405180910390f35b6101ab6109c4565b6040516101b89190612071565b60405180910390f35b6101db60048036038101906101d69190612108565b6109e8565b6040516101e8919061218e565b60405180910390f35b6101f9610c37565b60405161020e999897969594939291906121c4565b60405180910390f35b61021f610c6f565b60405161022c919061224f565b60405180910390f35b61024f600480360381019061024a9190611ded565b610c93565b005b61026b60048036038101906102669190612268565b610f12565b005b610287600480360381019061028291906122a6565b610f69565b005b6102a3600480360381019061029e9190611ded565b610fa4565b005b6102ad6112f8565b6040516102ba91906122e0565b60405180910390f35b6102cb6114a1565b6040516102d89190612071565b60405180910390f35b6102fb60048036038101906102f691906122a6565b6114c5565b60405161030b94939291906123bf565b60405180910390f35b61032e60048036038101906103299190612433565b6116b6565b005b610338611874565b6040516103489493929190612471565b60405180910390f35b61036b60048036038101906103669190611ded565b611892565b005b610387600480360381019061038291906122a6565b611aa6565b60405161039491906124ce565b60405180910390f35b6103b760048036038101906103b29190611ded565b611ae2565b6040516103c491906124ce565b60405180910390f35b5f8060606003621e84805f67ffffffffffffffff8111156103f1576103f0611e72565b5b60405190808252806020026020018201604052801561041f5781602001602082028036833780820191505090505b50925092509250909192565b6040517f08c379a000000000000000000000000000000000000000000000000000000000815260040161045d90612541565b60405180910390fd5b5f5a90505f60055f8681526020019081526020015f205f015f9054906101000a900467ffffffffffffffff1667ffffffffffffffff16036104dc576040517f08c379a00000000000000000000000000000000000000000000000000000000081526004016104d3906125a9565b60405180910390fd5b5f60055f8681526020019081526020015f206040518060600160405290815f82015f9054906101000a900467ffffffffffffffff1667ffffffffffffffff1667ffffffffffffffff1681526020015f820160089054906101000a900463ffffffff1663ffffffff1663ffffffff1681526020015f8201600c9054906101000a900463ffffffff1663ffffffff1663ffffffff168152505090505f83510361064957806040015163ffffffff1667ffffffffffffffff8111156105a1576105a0611e72565b5b6040519080825280602002602001820160405280156105cf5781602001602082028036833780820191505090505b5092505f5b816040015163ffffffff168110156106435785816040516020016105f99291906125c7565b604051602081830303815290604052805190602001205f1c848281518110610624576106236125ee565b5b602002602001018181525050808061063b90612648565b9150506105d4565b5061068e565b806040015163ffffffff1683511461068d576040517f3f3df5b600000000000000000000000000000000000000000000000000000000815260040160405180910390fd5b5b5f80631fe543e360e01b87866040516024016106ab929190612746565b604051602081830303815290604052907bffffffffffffffffffffffffffffffffffffffffffffffffffffffff19166020820180517bffffffffffffffffffffffffffffffffffffffffffffffffffffffff838183161783525050505090505f8673ffffffffffffffffffffffffffffffffffffffff16846020015163ffffffff168360405161073b91906127e0565b5f604051808303815f8787f1925050503d805f8114610775576040519150601f19603f3d011682016040523d82523d5f602084013e61077a565b606091505b505090505f7f00000000000000000000000000000000000000000000000000000000000000006bffffffffffffffffffffffff165a876107ba91906127f6565b6107c49190612829565b7f00000000000000000000000000000000000000000000000000000000000000006bffffffffffffffffffffffff166107fd919061286a565b9050806bffffffffffffffffffffffff1660035f875f015167ffffffffffffffff1667ffffffffffffffff1681526020019081526020015f205f0160149054906101000a90046bffffffffffffffffffffffff166bffffffffffffffffffffffff161015610897576040517ff4d678b800000000000000000000000000000000000000000000000000000000815260040160405180910390fd5b8060035f875f015167ffffffffffffffff1667ffffffffffffffff1681526020019081526020015f205f0160148282829054906101000a90046bffffffffffffffffffffffff166108e8919061289d565b92506101000a8154816bffffffffffffffffffffffff02191690836bffffffffffffffffffffffff16021790555060055f8a81526020019081526020015f205f8082015f6101000a81549067ffffffffffffffff02191690555f820160086101000a81549063ffffffff02191690555f8201600c6101000a81549063ffffffff02191690555050887f7dffc5ae5ee4e2e4df1651cf6ad329a73cebdb728f37ea0187b9b17e036756e48a83856040516109a3939291906128dc565b60405180910390a2505050505050505050565b5f660e35fa931a0000905090565b7f000000000000000000000000000000000000000000000000000000000000000081565b5f84336109f58282611ae2565b610a2b576040517f71e8313700000000000000000000000000000000000000000000000000000000815260040160405180910390fd5b5f73ffffffffffffffffffffffffffffffffffffffff1660035f8967ffffffffffffffff1667ffffffffffffffff1681526020019081526020015f205f015f9054906101000a900473ffffffffffffffffffffffffffffffffffffffff1673ffffffffffffffffffffffffffffffffffffffff1603610ad6576040517f1f6a65b600000000000000000000000000000000000000000000000000000000815260040160405180910390fd5b5f60015f815480929190610ae990612648565b9190505590505f60025f815480929190610b0290612648565b91905055905060405180606001604052808a67ffffffffffffffff1681526020018863ffffffff1681526020018763ffffffff1681525060055f8481526020019081526020015f205f820151815f015f6101000a81548167ffffffffffffffff021916908367ffffffffffffffff1602179055506020820151815f0160086101000a81548163ffffffff021916908363ffffffff1602179055506040820151815f01600c6101000a81548163ffffffff021916908363ffffffff1602179055509050503373ffffffffffffffffffffffffffffffffffffffff168967ffffffffffffffff168b7f63373d1c4696214b898952999c9aaec57dac1ee2723cec59bea6888f489a977285858d8d8d604051610c1f959493929190612911565b60405180910390a48194505050505095945050505050565b5f805f805f805f805f620186a080620186a080620186a05f805f80985098509850985098509850985098509850909192939495969798565b7f000000000000000000000000000000000000000000000000000000000000000081565b815f60035f8367ffffffffffffffff1667ffffffffffffffff1681526020019081526020015f205f015f9054906101000a900473ffffffffffffffffffffffffffffffffffffffff1690505f73ffffffffffffffffffffffffffffffffffffffff168173ffffffffffffffffffffffffffffffffffffffff1603610d43576040517f1f6a65b600000000000000000000000000000000000000000000000000000000815260040160405180910390fd5b8073ffffffffffffffffffffffffffffffffffffffff163373ffffffffffffffffffffffffffffffffffffffff1614610db357806040517fd8a3fb52000000000000000000000000000000000000000000000000000000008152600401610daa9190612962565b60405180910390fd5b7f000000000000000000000000000000000000000000000000000000000000000061ffff1660045f8667ffffffffffffffff1667ffffffffffffffff1681526020019081526020015f208054905003610e38576040517f05a48e0f00000000000000000000000000000000000000000000000000000000815260040160405180910390fd5b610e428484611ae2565b610f0c5760045f8567ffffffffffffffff1667ffffffffffffffff1681526020019081526020015f2083908060018154018082558091505060019003905f5260205f20015f9091909190916101000a81548173ffffffffffffffffffffffffffffffffffffffff021916908373ffffffffffffffffffffffffffffffffffffffff1602179055508367ffffffffffffffff167f752ead9f4536ec1319ee3a5a604e1d65eded22e0924251552ba14ae4faa1bbc384604051610f039190612962565b60405180910390a25b50505050565b610f6582825f67ffffffffffffffff811115610f3157610f30611e72565b5b604051908082528060200260200182016040528015610f5f5781602001602082028036833780820191505090505b50610466565b5050565b6040517f08c379a0000000000000000000000000000000000000000000000000000000008152600401610f9b90612541565b60405180910390fd5b815f60035f8367ffffffffffffffff1667ffffffffffffffff1681526020019081526020015f205f015f9054906101000a900473ffffffffffffffffffffffffffffffffffffffff1690505f73ffffffffffffffffffffffffffffffffffffffff168173ffffffffffffffffffffffffffffffffffffffff1603611054576040517f1f6a65b600000000000000000000000000000000000000000000000000000000815260040160405180910390fd5b8073ffffffffffffffffffffffffffffffffffffffff163373ffffffffffffffffffffffffffffffffffffffff16146110c457806040517fd8a3fb520000000000000000000000000000000000000000000000000000000081526004016110bb9190612962565b60405180910390fd5b83836110d08282611ae2565b611106576040517f71e8313700000000000000000000000000000000000000000000000000000000815260040160405180910390fd5b5f60045f8867ffffffffffffffff1667ffffffffffffffff1681526020019081526020015f2090505f5b81805490508110156112ac578673ffffffffffffffffffffffffffffffffffffffff16828281548110611166576111656125ee565b5b905f5260205f20015f9054906101000a900473ffffffffffffffffffffffffffffffffffffffff1673ffffffffffffffffffffffffffffffffffffffff1603611299575f82600184805490506111bc91906127f6565b815481106111cd576111cc6125ee565b5b905f5260205f20015f9054906101000a900473ffffffffffffffffffffffffffffffffffffffff1690508083838154811061120b5761120a6125ee565b5b905f5260205f20015f6101000a81548173ffffffffffffffffffffffffffffffffffffffff021916908373ffffffffffffffffffffffffffffffffffffffff160217905550828054806112615761126061297b565b5b600190038181905f5260205f20015f6101000a81549073ffffffffffffffffffffffffffffffffffffffff02191690559055506112ac565b80806112a490612648565b915050611130565b508667ffffffffffffffff167ff9bc9d5b5733d904409def43a5ecc888dbdac9a95687780d8fd489d3bb3813fc876040516112e79190612962565b60405180910390a250505050505050565b5f805f81819054906101000a900467ffffffffffffffff168092919061131d906129a8565b91906101000a81548167ffffffffffffffff021916908367ffffffffffffffff1602179055505060405180604001604052803373ffffffffffffffffffffffffffffffffffffffff1681526020015f6bffffffffffffffffffffffff1681525060035f805f9054906101000a900467ffffffffffffffff1667ffffffffffffffff1667ffffffffffffffff1681526020019081526020015f205f820151815f015f6101000a81548173ffffffffffffffffffffffffffffffffffffffff021916908373ffffffffffffffffffffffffffffffffffffffff1602179055506020820151815f0160146101000a8154816bffffffffffffffffffffffff02191690836bffffffffffffffffffffffff1602179055509050505f8054906101000a900467ffffffffffffffff1667ffffffffffffffff167f464722b4166576d3dcbba877b999bc35cf911f4eaf434b7eba68fa113951d0bf336040516114809190612962565b60405180910390a25f8054906101000a900467ffffffffffffffff16905090565b7f000000000000000000000000000000000000000000000000000000000000000081565b5f805f60605f73ffffffffffffffffffffffffffffffffffffffff1660035f8767ffffffffffffffff1667ffffffffffffffff1681526020019081526020015f205f015f9054906101000a900473ffffffffffffffffffffffffffffffffffffffff1673ffffffffffffffffffffffffffffffffffffffff1603611575576040517f1f6a65b600000000000000000000000000000000000000000000000000000000815260040160405180910390fd5b60035f8667ffffffffffffffff1667ffffffffffffffff1681526020019081526020015f205f0160149054906101000a90046bffffffffffffffffffffffff165f60035f8867ffffffffffffffff1667ffffffffffffffff1681526020019081526020015f205f015f9054906101000a900473ffffffffffffffffffffffffffffffffffffffff1660045f8967ffffffffffffffff1667ffffffffffffffff1681526020019081526020015f20808054806020026020016040519081016040528092919081815260200182805480156116a057602002820191905f5260205f20905b815f9054906101000a900473ffffffffffffffffffffffffffffffffffffffff1673ffffffffffffffffffffffffffffffffffffffff1681526020019060010190808311611657575b5050505050905093509350935093509193509193565b5f73ffffffffffffffffffffffffffffffffffffffff1660035f8467ffffffffffffffff1667ffffffffffffffff1681526020019081526020015f205f015f9054906101000a900473ffffffffffffffffffffffffffffffffffffffff1673ffffffffffffffffffffffffffffffffffffffff1603611761576040517f1f6a65b600000000000000000000000000000000000000000000000000000000815260040160405180910390fd5b5f60035f8467ffffffffffffffff1667ffffffffffffffff1681526020019081526020015f205f0160149054906101000a90046bffffffffffffffffffffffff1690508160035f8567ffffffffffffffff1667ffffffffffffffff1681526020019081526020015f205f0160148282829054906101000a90046bffffffffffffffffffffffff166117f291906129d7565b92506101000a8154816bffffffffffffffffffffffff02191690836bffffffffffffffffffffffff1602179055508267ffffffffffffffff167fd39ec07f4e209f627a4c427971473820dc129761ba28de8906bd56f57101d4f882848461185991906129d7565b604051611867929190612a4f565b60405180910390a2505050565b5f805f806004622625a0610a8c618205935093509350935090919293565b815f60035f8367ffffffffffffffff1667ffffffffffffffff1681526020019081526020015f205f015f9054906101000a900473ffffffffffffffffffffffffffffffffffffffff1690505f73ffffffffffffffffffffffffffffffffffffffff168173ffffffffffffffffffffffffffffffffffffffff1603611942576040517f1f6a65b600000000000000000000000000000000000000000000000000000000815260040160405180910390fd5b8073ffffffffffffffffffffffffffffffffffffffff163373ffffffffffffffffffffffffffffffffffffffff16146119b257806040517fd8a3fb520000000000000000000000000000000000000000000000000000000081526004016119a99190612962565b60405180910390fd5b8367ffffffffffffffff167fe8ed5b475a5b5987aa9165e8731bb78043f39eee32ec5a1169a89e27fcd498158460035f8867ffffffffffffffff1667ffffffffffffffff1681526020019081526020015f205f0160149054906101000a90046bffffffffffffffffffffffff16604051611a2d929190612a76565b60405180910390a260035f8567ffffffffffffffff1667ffffffffffffffff1681526020019081526020015f205f8082015f6101000a81549073ffffffffffffffffffffffffffffffffffffffff02191690555f820160146101000a8154906bffffffffffffffffffffffff0219169055505050505050565b5f6040517f08c379a0000000000000000000000000000000000000000000000000000000008152600401611ad990612541565b60405180910390fd5b5f8060045f8567ffffffffffffffff1667ffffffffffffffff1681526020019081526020015f20805480602002602001604051908101604052809291908181526020018280548015611b8657602002820191905f5260205f20905b815f9054906101000a900473ffffffffffffffffffffffffffffffffffffffff1673ffffffffffffffffffffffffffffffffffffffff1681526020019060010190808311611b3d575b505050505090505f5b8151811015611c03578373ffffffffffffffffffffffffffffffffffffffff16828281518110611bc257611bc16125ee565b5b602002602001015173ffffffffffffffffffffffffffffffffffffffff1603611bf057600192505050611c09565b8080611bfb90612648565b915050611b8f565b505f9150505b92915050565b5f61ffff82169050919050565b611c2581611c0f565b82525050565b5f63ffffffff82169050919050565b611c4381611c2b565b82525050565b5f81519050919050565b5f82825260208201905092915050565b5f819050602082019050919050565b5f819050919050565b611c8481611c72565b82525050565b5f611c958383611c7b565b60208301905092915050565b5f602082019050919050565b5f611cb782611c49565b611cc18185611c53565b9350611ccc83611c63565b805f5b83811015611cfc578151611ce38882611c8a565b9750611cee83611ca1565b925050600181019050611ccf565b5085935050505092915050565b5f606082019050611d1c5f830186611c1c565b611d296020830185611c3a565b8181036040830152611d3b8184611cad565b9050949350505050565b5f604051905090565b5f80fd5b5f80fd5b5f67ffffffffffffffff82169050919050565b611d7281611d56565b8114611d7c575f80fd5b50565b5f81359050611d8d81611d69565b92915050565b5f73ffffffffffffffffffffffffffffffffffffffff82169050919050565b5f611dbc82611d93565b9050919050565b611dcc81611db2565b8114611dd6575f80fd5b50565b5f81359050611de781611dc3565b92915050565b5f8060408385031215611e0357611e02611d4e565b5b5f611e1085828601611d7f565b9250506020611e2185828601611dd9565b9150509250929050565b5f819050919050565b611e3d81611e2b565b8114611e47575f80fd5b50565b5f81359050611e5881611e34565b92915050565b5f80fd5b5f601f19601f8301169050919050565b7f4e487b71000000000000000000000000000000000000000000000000000000005f52604160045260245ffd5b611ea882611e62565b810181811067ffffffffffffffff82111715611ec757611ec6611e72565b5b80604052505050565b5f611ed9611d45565b9050611ee58282611e9f565b919050565b5f67ffffffffffffffff821115611f0457611f03611e72565b5b602082029050602081019050919050565b5f80fd5b5f611f2b611f2684611eea565b611ed0565b90508083825260208201905060208402830185811115611f4e57611f4d611f15565b5b835b81811015611f775780611f638882611e4a565b845260208401935050602081019050611f50565b5050509392505050565b5f82601f830112611f9557611f94611e5e565b5b8135611fa5848260208601611f19565b91505092915050565b5f805f60608486031215611fc557611fc4611d4e565b5b5f611fd286828701611e4a565b9350506020611fe386828701611dd9565b925050604084013567ffffffffffffffff81111561200457612003611d52565b5b61201086828701611f81565b9150509250925092565b5f819050919050565b61202c8161201a565b82525050565b5f6020820190506120455f830184612023565b92915050565b5f6bffffffffffffffffffffffff82169050919050565b61206b8161204b565b82525050565b5f6020820190506120845f830184612062565b92915050565b61209381611c72565b811461209d575f80fd5b50565b5f813590506120ae8161208a565b92915050565b6120bd81611c0f565b81146120c7575f80fd5b50565b5f813590506120d8816120b4565b92915050565b6120e781611c2b565b81146120f1575f80fd5b50565b5f81359050612102816120de565b92915050565b5f805f805f60a0868803121561212157612120611d4e565b5b5f61212e888289016120a0565b955050602061213f88828901611d7f565b9450506040612150888289016120ca565b9350506060612161888289016120f4565b9250506080612172888289016120f4565b9150509295509295909350565b61218881611e2b565b82525050565b5f6020820190506121a15f83018461217f565b92915050565b5f62ffffff82169050919050565b6121be816121a7565b82525050565b5f610120820190506121d85f83018c611c3a565b6121e5602083018b611c3a565b6121f2604083018a611c3a565b6121ff6060830189611c3a565b61220c6080830188611c3a565b61221960a08301876121b5565b61222660c08301866121b5565b61223360e08301856121b5565b6122416101008301846121b5565b9a9950505050505050505050565b5f6020820190506122625f830184611c1c565b92915050565b5f806040838503121561227e5761227d611d4e565b5b5f61228b85828601611e4a565b925050602061229c85828601611dd9565b9150509250929050565b5f602082840312156122bb576122ba611d4e565b5b5f6122c884828501611d7f565b91505092915050565b6122da81611d56565b82525050565b5f6020820190506122f35f8301846122d1565b92915050565b61230281611db2565b82525050565b5f81519050919050565b5f82825260208201905092915050565b5f819050602082019050919050565b61233a81611db2565b82525050565b5f61234b8383612331565b60208301905092915050565b5f602082019050919050565b5f61236d82612308565b6123778185612312565b935061238283612322565b805f5b838110156123b25781516123998882612340565b97506123a483612357565b925050600181019050612385565b5085935050505092915050565b5f6080820190506123d25f830187612062565b6123df60208301866122d1565b6123ec60408301856122f9565b81810360608301526123fe8184612363565b905095945050505050565b6124128161204b565b811461241c575f80fd5b50565b5f8135905061242d81612409565b92915050565b5f806040838503121561244957612448611d4e565b5b5f61245685828601611d7f565b92505060206124678582860161241f565b9150509250929050565b5f6080820190506124845f830187611c1c565b6124916020830186611c3a565b61249e6040830185611c3a565b6124ab6060830184611c3a565b95945050505050565b5f8115159050919050565b6124c8816124b4565b82525050565b5f6020820190506124e15f8301846124bf565b92915050565b5f82825260208201905092915050565b7f6e6f7420696d706c656d656e74656400000000000000000000000000000000005f82015250565b5f61252b600f836124e7565b9150612536826124f7565b602082019050919050565b5f6020820190508181035f8301526125588161251f565b9050919050565b7f6e6f6e6578697374656e742072657175657374000000000000000000000000005f82015250565b5f6125936013836124e7565b915061259e8261255f565b602082019050919050565b5f6020820190508181035f8301526125c081612587565b9050919050565b5f6040820190506125da5f83018561217f565b6125e7602083018461217f565b9392505050565b7f4e487b71000000000000000000000000000000000000000000000000000000005f52603260045260245ffd5b7f4e487b71000000000000000000000000000000000000000000000000000000005f52601160045260245ffd5b5f61265282611e2b565b91507fffffffffffffffffffffffffffffffffffffffffffffffffffffffffffffffff82036126845761268361261b565b5b600182019050919050565b5f81519050919050565b5f82825260208201905092915050565b5f819050602082019050919050565b6126c181611e2b565b82525050565b5f6126d283836126b8565b60208301905092915050565b5f602082019050919050565b5f6126f48261268f565b6126fe8185612699565b9350612709836126a9565b805f5b8381101561273957815161272088826126c7565b975061272b836126de565b92505060018101905061270c565b5085935050505092915050565b5f6040820190506127595f83018561217f565b818103602083015261276b81846126ea565b90509392505050565b5f81519050919050565b5f81905092915050565b5f5b838110156127a557808201518184015260208101905061278a565b5f8484015250505050565b5f6127ba82612774565b6127c4818561277e565b93506127d4818560208601612788565b80840191505092915050565b5f6127eb82846127b0565b915081905092915050565b5f61280082611e2b565b915061280b83611e2b565b92508282039050818111156128235761282261261b565b5b92915050565b5f61283382611e2b565b915061283e83611e2b565b925082820261284c81611e2b565b915082820484148315176128635761286261261b565b5b5092915050565b5f61287482611e2b565b915061287f83611e2b565b92508282019050808211156128975761289661261b565b5b92915050565b5f6128a78261204b565b91506128b28361204b565b925082820390506bffffffffffffffffffffffff8111156128d6576128d561261b565b5b92915050565b5f6060820190506128ef5f83018661217f565b6128fc6020830185612062565b61290960408301846124bf565b949350505050565b5f60a0820190506129245f83018861217f565b612931602083018761217f565b61293e6040830186611c1c565b61294b6060830185611c3a565b6129586080830184611c3a565b9695505050505050565b5f6020820190506129755f8301846122f9565b92915050565b7f4e487b71000000000000000000000000000000000000000000000000000000005f52603160045260245ffd5b5f6129b282611d56565b915067ffffffffffffffff82036129cc576129cb61261b565b5b600182019050919050565b5f6129e18261204b565b91506129ec8361204b565b925082820190506bffffffffffffffffffffffff811115612a1057612a0f61261b565b5b92915050565b5f819050919050565b5f612a39612a34612a2f8461204b565b612a16565b611e2b565b9050919050565b612a4981612a1f565b82525050565b5f604082019050612a625f830185612a40565b612a6f6020830184612a40565b9392505050565b5f604082019050612a895f8301856122f9565b612a966020830184612a40565b939250505056fea2646970667358221220f249c78cf2536d8c1b9c983fd7a3cca00417e6de8d1df14755dd57e76d469a9b64736f6c63430008140033","opcodes":"PUSH1 0xE0 PUSH1 0x40 MSTORE PUSH1 0x64 PUSH2 0xFFFF AND PUSH1 0xC0 SWAP1 PUSH2 0xFFFF AND DUP2 MSTORE POP PUSH1 0x1 DUP1 SSTORE PUSH1 0x64 PUSH1 0x2 SSTORE CALLVALUE DUP1 ISZERO PUSH3 0x29 JUMPI PUSH0 DUP1 REVERT JUMPDEST POP PUSH1 0x40 MLOAD PUSH3 0x2C41 CODESIZE SUB DUP1 PUSH3 0x2C41 DUP4 CODECOPY DUP2 DUP2 ADD PUSH1 0x40 MSTORE DUP2 ADD SWAP1 PUSH3 0x4F SWAP2 SWAP1 PUSH3 0xE9 JUMP JUMPDEST DUP2 PUSH12 0xFFFFFFFFFFFFFFFFFFFFFFFF AND PUSH1 0x80 DUP2 PUSH12 0xFFFFFFFFFFFFFFFFFFFFFFFF AND DUP2 MSTORE POP POP DUP1 PUSH12 0xFFFFFFFFFFFFFFFFFFFFFFFF AND PUSH1 0xA0 DUP2 PUSH12 0xFFFFFFFFFFFFFFFFFFFFFFFF AND DUP2 MSTORE POP POP POP POP PUSH3 0x12E JUMP JUMPDEST PUSH0 DUP1 REVERT JUMPDEST PUSH0 PUSH12 0xFFFFFFFFFFFFFFFFFFFFFFFF DUP3 AND SWAP1 POP SWAP2 SWAP1 POP JUMP JUMPDEST PUSH3 0xC5 DUP2 PUSH3 0xA3 JUMP JUMPDEST DUP2 EQ PUSH3 0xD0 JUMPI PUSH0 DUP1 REVERT JUMPDEST POP JUMP JUMPDEST PUSH0 DUP2 MLOAD SWAP1 POP PUSH3 0xE3 DUP2 PUSH3 0xBA JUMP JUMPDEST SWAP3 SWAP2 POP POP JUMP JUMPDEST PUSH0 DUP1 PUSH1 0x40 DUP4 DUP6 SUB SLT ISZERO PUSH3 0x102 JUMPI PUSH3 0x101 PUSH3 0x9F JUMP JUMPDEST JUMPDEST PUSH0 PUSH3 0x111 DUP6 DUP3 DUP7 ADD PUSH3 0xD3 JUMP JUMPDEST SWAP3 POP POP PUSH1 0x20 PUSH3 0x124 DUP6 DUP3 DUP7 ADD PUSH3 0xD3 JUMP JUMPDEST SWAP2 POP POP SWAP3 POP SWAP3 SWAP1 POP JUMP JUMPDEST PUSH1 0x80 MLOAD PUSH1 0xA0 MLOAD PUSH1 0xC0 MLOAD PUSH2 0x2AD3 PUSH3 0x16E PUSH0 CODECOPY PUSH0 DUP2 DUP2 PUSH2 0xC71 ADD MSTORE PUSH2 0xDB5 ADD MSTORE PUSH0 DUP2 DUP2 PUSH2 0x781 ADD MSTORE PUSH2 0x14A3 ADD MSTORE PUSH0 DUP2 DUP2 PUSH2 0x7C6 ADD MSTORE PUSH2 0x9C6 ADD MSTORE PUSH2 0x2AD3 PUSH0 RETURN INVALID PUSH1 0x80 PUSH1 0x40 MSTORE CALLVALUE DUP1 ISZERO PUSH2 0xF JUMPI PUSH0 DUP1 REVERT JUMPDEST POP PUSH1 0x4 CALLDATASIZE LT PUSH2 0x129 JUMPI PUSH0 CALLDATALOAD PUSH1 0xE0 SHR DUP1 PUSH4 0x82359740 GT PUSH2 0xAB JUMPI DUP1 PUSH4 0xAFC69B53 GT PUSH2 0x6F JUMPI DUP1 PUSH4 0xAFC69B53 EQ PUSH2 0x314 JUMPI DUP1 PUSH4 0xC3F909D4 EQ PUSH2 0x330 JUMPI DUP1 PUSH4 0xD7AE1D30 EQ PUSH2 0x351 JUMPI DUP1 PUSH4 0xE82AD7D4 EQ PUSH2 0x36D JUMPI DUP1 PUSH4 0xED5EB06D EQ PUSH2 0x39D JUMPI PUSH2 0x129 JUMP JUMPDEST DUP1 PUSH4 0x82359740 EQ PUSH2 0x26D JUMPI DUP1 PUSH4 0x9F87FAD7 EQ PUSH2 0x289 JUMPI DUP1 PUSH4 0xA21A23E4 EQ PUSH2 0x2A5 JUMPI DUP1 PUSH4 0xA410347F EQ PUSH2 0x2C3 JUMPI DUP1 PUSH4 0xA47C7696 EQ PUSH2 0x2E1 JUMPI PUSH2 0x129 JUMP JUMPDEST DUP1 PUSH4 0x5D3B1D30 GT PUSH2 0xF2 JUMPI DUP1 PUSH4 0x5D3B1D30 EQ PUSH2 0x1C1 JUMPI DUP1 PUSH4 0x5FBBC0D2 EQ PUSH2 0x1F1 JUMPI DUP1 PUSH4 0x64D51A2A EQ PUSH2 0x217 JUMPI DUP1 PUSH4 0x7341C10C EQ PUSH2 0x235 JUMPI DUP1 PUSH4 0x808974FF EQ PUSH2 0x251 JUMPI PUSH2 0x129 JUMP JUMPDEST DUP1 PUSH3 0x12291 EQ PUSH2 0x12D JUMPI DUP1 PUSH4 0x4C357CB EQ PUSH2 0x14D JUMPI DUP1 PUSH4 0x8E3898E EQ PUSH2 0x169 JUMPI DUP1 PUSH4 0x356DAC71 EQ PUSH2 0x185 JUMPI DUP1 PUSH4 0x3D18651E EQ PUSH2 0x1A3 JUMPI JUMPDEST PUSH0 DUP1 REVERT JUMPDEST PUSH2 0x135 PUSH2 0x3CD JUMP JUMPDEST PUSH1 0x40 MLOAD PUSH2 0x144 SWAP4 SWAP3 SWAP2 SWAP1 PUSH2 0x1D09 JUMP JUMPDEST PUSH1 0x40 MLOAD DUP1 SWAP2 SUB SWAP1 RETURN JUMPDEST PUSH2 0x167 PUSH1 0x4 DUP1 CALLDATASIZE SUB DUP2 ADD SWAP1 PUSH2 0x162 SWAP2 SWAP1 PUSH2 0x1DED JUMP JUMPDEST PUSH2 0x42B JUMP JUMPDEST STOP JUMPDEST PUSH2 0x183 PUSH1 0x4 DUP1 CALLDATASIZE SUB DUP2 ADD SWAP1 PUSH2 0x17E SWAP2 SWAP1 PUSH2 0x1FAE JUMP JUMPDEST PUSH2 0x466 JUMP JUMPDEST STOP JUMPDEST PUSH2 0x18D PUSH2 0x9B6 JUMP JUMPDEST PUSH1 0x40 MLOAD PUSH2 0x19A SWAP2 SWAP1 PUSH2 0x2032 JUMP JUMPDEST PUSH1 0x40 MLOAD DUP1 SWAP2 SUB SWAP1 RETURN JUMPDEST PUSH2 0x1AB PUSH2 0x9C4 JUMP JUMPDEST PUSH1 0x40 MLOAD PUSH2 0x1B8 SWAP2 SWAP1 PUSH2 0x2071 JUMP JUMPDEST PUSH1 0x40 MLOAD DUP1 SWAP2 SUB SWAP1 RETURN JUMPDEST PUSH2 0x1DB PUSH1 0x4 DUP1 CALLDATASIZE SUB DUP2 ADD SWAP1 PUSH2 0x1D6 SWAP2 SWAP1 PUSH2 0x2108 JUMP JUMPDEST PUSH2 0x9E8 JUMP JUMPDEST PUSH1 0x40 MLOAD PUSH2 0x1E8 SWAP2 SWAP1 PUSH2 0x218E JUMP JUMPDEST PUSH1 0x40 MLOAD DUP1 SWAP2 SUB SWAP1 RETURN JUMPDEST PUSH2 0x1F9 PUSH2 0xC37 JUMP JUMPDEST PUSH1 0x40 MLOAD PUSH2 0x20E SWAP10 SWAP9 SWAP8 SWAP7 SWAP6 SWAP5 SWAP4 SWAP3 SWAP2 SWAP1 PUSH2 0x21C4 JUMP JUMPDEST PUSH1 0x40 MLOAD DUP1 SWAP2 SUB SWAP1 RETURN JUMPDEST PUSH2 0x21F PUSH2 0xC6F JUMP JUMPDEST PUSH1 0x40 MLOAD PUSH2 0x22C SWAP2 SWAP1 PUSH2 0x224F JUMP JUMPDEST PUSH1 0x40 MLOAD DUP1 SWAP2 SUB SWAP1 RETURN JUMPDEST PUSH2 0x24F PUSH1 0x4 DUP1 CALLDATASIZE SUB DUP2 ADD SWAP1 PUSH2 0x24A SWAP2 SWAP1 PUSH2 0x1DED JUMP JUMPDEST PUSH2 0xC93 JUMP JUMPDEST STOP JUMPDEST PUSH2 0x26B PUSH1 0x4 DUP1 CALLDATASIZE SUB DUP2 ADD SWAP1 PUSH2 0x266 SWAP2 SWAP1 PUSH2 0x2268 JUMP JUMPDEST PUSH2 0xF12 JUMP JUMPDEST STOP JUMPDEST PUSH2 0x287 PUSH1 0x4 DUP1 CALLDATASIZE SUB DUP2 ADD SWAP1 PUSH2 0x282 SWAP2 SWAP1 PUSH2 0x22A6 JUMP JUMPDEST PUSH2 0xF69 JUMP JUMPDEST STOP JUMPDEST PUSH2 0x2A3 PUSH1 0x4 DUP1 CALLDATASIZE SUB DUP2 ADD SWAP1 PUSH2 0x29E SWAP2 SWAP1 PUSH2 0x1DED JUMP JUMPDEST PUSH2 0xFA4 JUMP JUMPDEST STOP JUMPDEST PUSH2 0x2AD PUSH2 0x12F8 JUMP JUMPDEST PUSH1 0x40 MLOAD PUSH2 0x2BA SWAP2 SWAP1 PUSH2 0x22E0 JUMP JUMPDEST PUSH1 0x40 MLOAD DUP1 SWAP2 SUB SWAP1 RETURN JUMPDEST PUSH2 0x2CB PUSH2 0x14A1 JUMP JUMPDEST PUSH1 0x40 MLOAD PUSH2 0x2D8 SWAP2 SWAP1 PUSH2 0x2071 JUMP JUMPDEST PUSH1 0x40 MLOAD DUP1 SWAP2 SUB SWAP1 RETURN JUMPDEST PUSH2 0x2FB PUSH1 0x4 DUP1 CALLDATASIZE SUB DUP2 ADD SWAP1 PUSH2 0x2F6 SWAP2 SWAP1 PUSH2 0x22A6 JUMP JUMPDEST PUSH2 0x14C5 JUMP JUMPDEST PUSH1 0x40 MLOAD PUSH2 0x30B SWAP5 SWAP4 SWAP3 SWAP2 SWAP1 PUSH2 0x23BF JUMP JUMPDEST PUSH1 0x40 MLOAD DUP1 SWAP2 SUB SWAP1 RETURN JUMPDEST PUSH2 0x32E PUSH1 0x4 DUP1 CALLDATASIZE SUB DUP2 ADD SWAP1 PUSH2 0x329 SWAP2 SWAP1 PUSH2 0x2433 JUMP JUMPDEST PUSH2 0x16B6 JUMP JUMPDEST STOP JUMPDEST PUSH2 0x338 PUSH2 0x1874 JUMP JUMPDEST PUSH1 0x40 MLOAD PUSH2 0x348 SWAP5 SWAP4 SWAP3 SWAP2 SWAP1 PUSH2 0x2471 JUMP JUMPDEST PUSH1 0x40 MLOAD DUP1 SWAP2 SUB SWAP1 RETURN JUMPDEST PUSH2 0x36B PUSH1 0x4 DUP1 CALLDATASIZE SUB DUP2 ADD SWAP1 PUSH2 0x366 SWAP2 SWAP1 PUSH2 0x1DED JUMP JUMPDEST PUSH2 0x1892 JUMP JUMPDEST STOP JUMPDEST PUSH2 0x387 PUSH1 0x4 DUP1 CALLDATASIZE SUB DUP2 ADD SWAP1 PUSH2 0x382 SWAP2 SWAP1 PUSH2 0x22A6 JUMP JUMPDEST PUSH2 0x1AA6 JUMP JUMPDEST PUSH1 0x40 MLOAD PUSH2 0x394 SWAP2 SWAP1 PUSH2 0x24CE JUMP JUMPDEST PUSH1 0x40 MLOAD DUP1 SWAP2 SUB SWAP1 RETURN JUMPDEST PUSH2 0x3B7 PUSH1 0x4 DUP1 CALLDATASIZE SUB DUP2 ADD SWAP1 PUSH2 0x3B2 SWAP2 SWAP1 PUSH2 0x1DED JUMP JUMPDEST PUSH2 0x1AE2 JUMP JUMPDEST PUSH1 0x40 MLOAD PUSH2 0x3C4 SWAP2 SWAP1 PUSH2 0x24CE JUMP JUMPDEST PUSH1 0x40 MLOAD DUP1 SWAP2 SUB SWAP1 RETURN JUMPDEST PUSH0 DUP1 PUSH1 0x60 PUSH1 0x3 PUSH3 0x1E8480 PUSH0 PUSH8 0xFFFFFFFFFFFFFFFF DUP2 GT ISZERO PUSH2 0x3F1 JUMPI PUSH2 0x3F0 PUSH2 0x1E72 JUMP JUMPDEST JUMPDEST PUSH1 0x40 MLOAD SWAP1 DUP1 DUP3 MSTORE DUP1 PUSH1 0x20 MUL PUSH1 0x20 ADD DUP3 ADD PUSH1 0x40 MSTORE DUP1 ISZERO PUSH2 0x41F JUMPI DUP2 PUSH1 0x20 ADD PUSH1 0x20 DUP3 MUL DUP1 CALLDATASIZE DUP4 CALLDATACOPY DUP1 DUP3 ADD SWAP2 POP POP SWAP1 POP JUMPDEST POP SWAP3 POP SWAP3 POP SWAP3 POP SWAP1 SWAP2 SWAP3 JUMP JUMPDEST PUSH1 0x40 MLOAD PUSH32 0x8C379A000000000000000000000000000000000000000000000000000000000 DUP2 MSTORE PUSH1 0x4 ADD PUSH2 0x45D SWAP1 PUSH2 0x2541 JUMP JUMPDEST PUSH1 0x40 MLOAD DUP1 SWAP2 SUB SWAP1 REVERT JUMPDEST PUSH0 GAS SWAP1 POP PUSH0 PUSH1 0x5 PUSH0 DUP7 DUP2 MSTORE PUSH1 0x20 ADD SWAP1 DUP2 MSTORE PUSH1 0x20 ADD PUSH0 KECCAK256 PUSH0 ADD PUSH0 SWAP1 SLOAD SWAP1 PUSH2 0x100 EXP SWAP1 DIV PUSH8 0xFFFFFFFFFFFFFFFF AND PUSH8 0xFFFFFFFFFFFFFFFF AND SUB PUSH2 0x4DC JUMPI PUSH1 0x40 MLOAD PUSH32 0x8C379A000000000000000000000000000000000000000000000000000000000 DUP2 MSTORE PUSH1 0x4 ADD PUSH2 0x4D3 SWAP1 PUSH2 0x25A9 JUMP JUMPDEST PUSH1 0x40 MLOAD DUP1 SWAP2 SUB SWAP1 REVERT JUMPDEST PUSH0 PUSH1 0x5 PUSH0 DUP7 DUP2 MSTORE PUSH1 0x20 ADD SWAP1 DUP2 MSTORE PUSH1 0x20 ADD PUSH0 KECCAK256 PUSH1 0x40 MLOAD DUP1 PUSH1 0x60 ADD PUSH1 0x40 MSTORE SWAP1 DUP2 PUSH0 DUP3 ADD PUSH0 SWAP1 SLOAD SWAP1 PUSH2 0x100 EXP SWAP1 DIV PUSH8 0xFFFFFFFFFFFFFFFF AND PUSH8 0xFFFFFFFFFFFFFFFF AND PUSH8 0xFFFFFFFFFFFFFFFF AND DUP2 MSTORE PUSH1 0x20 ADD PUSH0 DUP3 ADD PUSH1 0x8 SWAP1 SLOAD SWAP1 PUSH2 0x100 EXP SWAP1 DIV PUSH4 0xFFFFFFFF AND PUSH4 0xFFFFFFFF AND PUSH4 0xFFFFFFFF AND DUP2 MSTORE PUSH1 0x20 ADD PUSH0 DUP3 ADD PUSH1 0xC SWAP1 SLOAD SWAP1 PUSH2 0x100 EXP SWAP1 DIV PUSH4 0xFFFFFFFF AND PUSH4 0xFFFFFFFF AND PUSH4 0xFFFFFFFF AND DUP2 MSTORE POP POP SWAP1 POP PUSH0 DUP4 MLOAD SUB PUSH2 0x649 JUMPI DUP1 PUSH1 0x40 ADD MLOAD PUSH4 0xFFFFFFFF AND PUSH8 0xFFFFFFFFFFFFFFFF DUP2 GT ISZERO PUSH2 0x5A1 JUMPI PUSH2 0x5A0 PUSH2 0x1E72 JUMP JUMPDEST JUMPDEST PUSH1 0x40 MLOAD SWAP1 DUP1 DUP3 MSTORE DUP1 PUSH1 0x20 MUL PUSH1 0x20 ADD DUP3 ADD PUSH1 0x40 MSTORE DUP1 ISZERO PUSH2 0x5CF JUMPI DUP2 PUSH1 0x20 ADD PUSH1 0x20 DUP3 MUL DUP1 CALLDATASIZE DUP4 CALLDATACOPY DUP1 DUP3 ADD SWAP2 POP POP SWAP1 POP JUMPDEST POP SWAP3 POP PUSH0 JUMPDEST DUP2 PUSH1 0x40 ADD MLOAD PUSH4 0xFFFFFFFF AND DUP2 LT ISZERO PUSH2 0x643 JUMPI DUP6 DUP2 PUSH1 0x40 MLOAD PUSH1 0x20 ADD PUSH2 0x5F9 SWAP3 SWAP2 SWAP1 PUSH2 0x25C7 JUMP JUMPDEST PUSH1 0x40 MLOAD PUSH1 0x20 DUP2 DUP4 SUB SUB DUP2 MSTORE SWAP1 PUSH1 0x40 MSTORE DUP1 MLOAD SWAP1 PUSH1 0x20 ADD KECCAK256 PUSH0 SHR DUP5 DUP3 DUP2 MLOAD DUP2 LT PUSH2 0x624 JUMPI PUSH2 0x623 PUSH2 0x25EE JUMP JUMPDEST JUMPDEST PUSH1 0x20 MUL PUSH1 0x20 ADD ADD DUP2 DUP2 MSTORE POP POP DUP1 DUP1 PUSH2 0x63B SWAP1 PUSH2 0x2648 JUMP JUMPDEST SWAP2 POP POP PUSH2 0x5D4 JUMP JUMPDEST POP PUSH2 0x68E JUMP JUMPDEST DUP1 PUSH1 0x40 ADD MLOAD PUSH4 0xFFFFFFFF AND DUP4 MLOAD EQ PUSH2 0x68D JUMPI PUSH1 0x40 MLOAD PUSH32 0x3F3DF5B600000000000000000000000000000000000000000000000000000000 DUP2 MSTORE PUSH1 0x4 ADD PUSH1 0x40 MLOAD DUP1 SWAP2 SUB SWAP1 REVERT JUMPDEST JUMPDEST PUSH0 DUP1 PUSH4 0x1FE543E3 PUSH1 0xE0 SHL DUP8 DUP7 PUSH1 0x40 MLOAD PUSH1 0x24 ADD PUSH2 0x6AB SWAP3 SWAP2 SWAP1 PUSH2 0x2746 JUMP JUMPDEST PUSH1 0x40 MLOAD PUSH1 0x20 DUP2 DUP4 SUB SUB DUP2 MSTORE SWAP1 PUSH1 0x40 MSTORE SWAP1 PUSH28 0xFFFFFFFFFFFFFFFFFFFFFFFFFFFFFFFFFFFFFFFFFFFFFFFFFFFFFFFF NOT AND PUSH1 0x20 DUP3 ADD DUP1 MLOAD PUSH28 0xFFFFFFFFFFFFFFFFFFFFFFFFFFFFFFFFFFFFFFFFFFFFFFFFFFFFFFFF DUP4 DUP2 DUP4 AND OR DUP4 MSTORE POP POP POP POP SWAP1 POP PUSH0 DUP7 PUSH20 0xFFFFFFFFFFFFFFFFFFFFFFFFFFFFFFFFFFFFFFFF AND DUP5 PUSH1 0x20 ADD MLOAD PUSH4 0xFFFFFFFF AND DUP4 PUSH1 0x40 MLOAD PUSH2 0x73B SWAP2 SWAP1 PUSH2 0x27E0 JUMP JUMPDEST PUSH0 PUSH1 0x40 MLOAD DUP1 DUP4 SUB DUP2 PUSH0 DUP8 DUP8 CALL SWAP3 POP POP POP RETURNDATASIZE DUP1 PUSH0 DUP2 EQ PUSH2 0x775 JUMPI PUSH1 0x40 MLOAD SWAP2 POP PUSH1 0x1F NOT PUSH1 0x3F RETURNDATASIZE ADD AND DUP3 ADD PUSH1 0x40 MSTORE RETURNDATASIZE DUP3 MSTORE RETURNDATASIZE PUSH0 PUSH1 0x20 DUP5 ADD RETURNDATACOPY PUSH2 0x77A JUMP JUMPDEST PUSH1 0x60 SWAP2 POP JUMPDEST POP POP SWAP1 POP PUSH0 PUSH32 0x0 PUSH12 0xFFFFFFFFFFFFFFFFFFFFFFFF AND GAS DUP8 PUSH2 0x7BA SWAP2 SWAP1 PUSH2 0x27F6 JUMP JUMPDEST PUSH2 0x7C4 SWAP2 SWAP1 PUSH2 0x2829 JUMP JUMPDEST PUSH32 0x0 PUSH12 0xFFFFFFFFFFFFFFFFFFFFFFFF AND PUSH2 0x7FD SWAP2 SWAP1 PUSH2 0x286A JUMP JUMPDEST SWAP1 POP DUP1 PUSH12 0xFFFFFFFFFFFFFFFFFFFFFFFF AND PUSH1 0x3 PUSH0 DUP8 PUSH0 ADD MLOAD PUSH8 0xFFFFFFFFFFFFFFFF AND PUSH8 0xFFFFFFFFFFFFFFFF AND DUP2 MSTORE PUSH1 0x20 ADD SWAP1 DUP2 MSTORE PUSH1 0x20 ADD PUSH0 KECCAK256 PUSH0 ADD PUSH1 0x14 SWAP1 SLOAD SWAP1 PUSH2 0x100 EXP SWAP1 DIV PUSH12 0xFFFFFFFFFFFFFFFFFFFFFFFF AND PUSH12 0xFFFFFFFFFFFFFFFFFFFFFFFF AND LT ISZERO PUSH2 0x897 JUMPI PUSH1 0x40 MLOAD PUSH32 0xF4D678B800000000000000000000000000000000000000000000000000000000 DUP2 MSTORE PUSH1 0x4 ADD PUSH1 0x40 MLOAD DUP1 SWAP2 SUB SWAP1 REVERT JUMPDEST DUP1 PUSH1 0x3 PUSH0 DUP8 PUSH0 ADD MLOAD PUSH8 0xFFFFFFFFFFFFFFFF AND PUSH8 0xFFFFFFFFFFFFFFFF AND DUP2 MSTORE PUSH1 0x20 ADD SWAP1 DUP2 MSTORE PUSH1 0x20 ADD PUSH0 KECCAK256 PUSH0 ADD PUSH1 0x14 DUP3 DUP3 DUP3 SWAP1 SLOAD SWAP1 PUSH2 0x100 EXP SWAP1 DIV PUSH12 0xFFFFFFFFFFFFFFFFFFFFFFFF AND PUSH2 0x8E8 SWAP2 SWAP1 PUSH2 0x289D JUMP JUMPDEST SWAP3 POP PUSH2 0x100 EXP DUP2 SLOAD DUP2 PUSH12 0xFFFFFFFFFFFFFFFFFFFFFFFF MUL NOT AND SWAP1 DUP4 PUSH12 0xFFFFFFFFFFFFFFFFFFFFFFFF AND MUL OR SWAP1 SSTORE POP PUSH1 0x5 PUSH0 DUP11 DUP2 MSTORE PUSH1 0x20 ADD SWAP1 DUP2 MSTORE PUSH1 0x20 ADD PUSH0 KECCAK256 PUSH0 DUP1 DUP3 ADD PUSH0 PUSH2 0x100 EXP DUP2 SLOAD SWAP1 PUSH8 0xFFFFFFFFFFFFFFFF MUL NOT AND SWAP1 SSTORE PUSH0 DUP3 ADD PUSH1 0x8 PUSH2 0x100 EXP DUP2 SLOAD SWAP1 PUSH4 0xFFFFFFFF MUL NOT AND SWAP1 SSTORE PUSH0 DUP3 ADD PUSH1 0xC PUSH2 0x100 EXP DUP2 SLOAD SWAP1 PUSH4 0xFFFFFFFF MUL NOT AND SWAP1 SSTORE POP POP DUP9 PUSH32 0x7DFFC5AE5EE4E2E4DF1651CF6AD329A73CEBDB728F37EA0187B9B17E036756E4 DUP11 DUP4 DUP6 PUSH1 0x40 MLOAD PUSH2 0x9A3 SWAP4 SWAP3 SWAP2 SWAP1 PUSH2 0x28DC JUMP JUMPDEST PUSH1 0x40 MLOAD DUP1 SWAP2 SUB SWAP1 LOG2 POP POP POP POP POP POP POP POP POP JUMP JUMPDEST PUSH0 PUSH7 0xE35FA931A0000 SWAP1 POP SWAP1 JUMP JUMPDEST PUSH32 0x0 DUP2 JUMP JUMPDEST PUSH0 DUP5 CALLER PUSH2 0x9F5 DUP3 DUP3 PUSH2 0x1AE2 JUMP JUMPDEST PUSH2 0xA2B JUMPI PUSH1 0x40 MLOAD PUSH32 0x71E8313700000000000000000000000000000000000000000000000000000000 DUP2 MSTORE PUSH1 0x4 ADD PUSH1 0x40 MLOAD DUP1 SWAP2 SUB SWAP1 REVERT JUMPDEST PUSH0 PUSH20 0xFFFFFFFFFFFFFFFFFFFFFFFFFFFFFFFFFFFFFFFF AND PUSH1 0x3 PUSH0 DUP10 PUSH8 0xFFFFFFFFFFFFFFFF AND PUSH8 0xFFFFFFFFFFFFFFFF AND DUP2 MSTORE PUSH1 0x20 ADD SWAP1 DUP2 MSTORE PUSH1 0x20 ADD PUSH0 KECCAK256 PUSH0 ADD PUSH0 SWAP1 SLOAD SWAP1 PUSH2 0x100 EXP SWAP1 DIV PUSH20 0xFFFFFFFFFFFFFFFFFFFFFFFFFFFFFFFFFFFFFFFF AND PUSH20 0xFFFFFFFFFFFFFFFFFFFFFFFFFFFFFFFFFFFFFFFF AND SUB PUSH2 0xAD6 JUMPI PUSH1 0x40 MLOAD PUSH32 0x1F6A65B600000000000000000000000000000000000000000000000000000000 DUP2 MSTORE PUSH1 0x4 ADD PUSH1 0x40 MLOAD DUP1 SWAP2 SUB SWAP1 REVERT JUMPDEST PUSH0 PUSH1 0x1 PUSH0 DUP2 SLOAD DUP1 SWAP3 SWAP2 SWAP1 PUSH2 0xAE9 SWAP1 PUSH2 0x2648 JUMP JUMPDEST SWAP2 SWAP1 POP SSTORE SWAP1 POP PUSH0 PUSH1 0x2 PUSH0 DUP2 SLOAD DUP1 SWAP3 SWAP2 SWAP1 PUSH2 0xB02 SWAP1 PUSH2 0x2648 JUMP JUMPDEST SWAP2 SWAP1 POP SSTORE SWAP1 POP PUSH1 0x40 MLOAD DUP1 PUSH1 0x60 ADD PUSH1 0x40 MSTORE DUP1 DUP11 PUSH8 0xFFFFFFFFFFFFFFFF AND DUP2 MSTORE PUSH1 0x20 ADD DUP9 PUSH4 0xFFFFFFFF AND DUP2 MSTORE PUSH1 0x20 ADD DUP8 PUSH4 0xFFFFFFFF AND DUP2 MSTORE POP PUSH1 0x5 PUSH0 DUP5 DUP2 MSTORE PUSH1 0x20 ADD SWAP1 DUP2 MSTORE PUSH1 0x20 ADD PUSH0 KECCAK256 PUSH0 DUP3 ADD MLOAD DUP2 PUSH0 ADD PUSH0 PUSH2 0x100 EXP DUP2 SLOAD DUP2 PUSH8 0xFFFFFFFFFFFFFFFF MUL NOT AND SWAP1 DUP4 PUSH8 0xFFFFFFFFFFFFFFFF AND MUL OR SWAP1 SSTORE POP PUSH1 0x20 DUP3 ADD MLOAD DUP2 PUSH0 ADD PUSH1 0x8 PUSH2 0x100 EXP DUP2 SLOAD DUP2 PUSH4 0xFFFFFFFF MUL NOT AND SWAP1 DUP4 PUSH4 0xFFFFFFFF AND MUL OR SWAP1 SSTORE POP PUSH1 0x40 DUP3 ADD MLOAD DUP2 PUSH0 ADD PUSH1 0xC PUSH2 0x100 EXP DUP2 SLOAD DUP2 PUSH4 0xFFFFFFFF MUL NOT AND SWAP1 DUP4 PUSH4 0xFFFFFFFF AND MUL OR SWAP1 SSTORE POP SWAP1 POP POP CALLER PUSH20 0xFFFFFFFFFFFFFFFFFFFFFFFFFFFFFFFFFFFFFFFF AND DUP10 PUSH8 0xFFFFFFFFFFFFFFFF AND DUP12 PUSH32 0x63373D1C4696214B898952999C9AAEC57DAC1EE2723CEC59BEA6888F489A9772 DUP6 DUP6 DUP14 DUP14 DUP14 PUSH1 0x40 MLOAD PUSH2 0xC1F SWAP6 SWAP5 SWAP4 SWAP3 SWAP2 SWAP1 PUSH2 0x2911 JUMP JUMPDEST PUSH1 0x40 MLOAD DUP1 SWAP2 SUB SWAP1 LOG4 DUP2 SWAP5 POP POP POP POP POP SWAP6 SWAP5 POP POP POP POP POP JUMP JUMPDEST PUSH0 DUP1 PUSH0 DUP1 PUSH0 DUP1 PUSH0 DUP1 PUSH0 PUSH3 0x186A0 DUP1 PUSH3 0x186A0 DUP1 PUSH3 0x186A0 PUSH0 DUP1 PUSH0 DUP1 SWAP9 POP SWAP9 POP SWAP9 POP SWAP9 POP SWAP9 POP SWAP9 POP SWAP9 POP SWAP9 POP SWAP9 POP SWAP1 SWAP2 SWAP3 SWAP4 SWAP5 SWAP6 SWAP7 SWAP8 SWAP9 JUMP JUMPDEST PUSH32 0x0 DUP2 JUMP JUMPDEST DUP2 PUSH0 PUSH1 0x3 PUSH0 DUP4 PUSH8 0xFFFFFFFFFFFFFFFF AND PUSH8 0xFFFFFFFFFFFFFFFF AND DUP2 MSTORE PUSH1 0x20 ADD SWAP1 DUP2 MSTORE PUSH1 0x20 ADD PUSH0 KECCAK256 PUSH0 ADD PUSH0 SWAP1 SLOAD SWAP1 PUSH2 0x100 EXP SWAP1 DIV PUSH20 0xFFFFFFFFFFFFFFFFFFFFFFFFFFFFFFFFFFFFFFFF AND SWAP1 POP PUSH0 PUSH20 0xFFFFFFFFFFFFFFFFFFFFFFFFFFFFFFFFFFFFFFFF AND DUP2 PUSH20 0xFFFFFFFFFFFFFFFFFFFFFFFFFFFFFFFFFFFFFFFF AND SUB PUSH2 0xD43 JUMPI PUSH1 0x40 MLOAD PUSH32 0x1F6A65B600000000000000000000000000000000000000000000000000000000 DUP2 MSTORE PUSH1 0x4 ADD PUSH1 0x40 MLOAD DUP1 SWAP2 SUB SWAP1 REVERT JUMPDEST DUP1 PUSH20 0xFFFFFFFFFFFFFFFFFFFFFFFFFFFFFFFFFFFFFFFF AND CALLER PUSH20 0xFFFFFFFFFFFFFFFFFFFFFFFFFFFFFFFFFFFFFFFF AND EQ PUSH2 0xDB3 JUMPI DUP1 PUSH1 0x40 MLOAD PUSH32 0xD8A3FB5200000000000000000000000000000000000000000000000000000000 DUP2 MSTORE PUSH1 0x4 ADD PUSH2 0xDAA SWAP2 SWAP1 PUSH2 0x2962 JUMP JUMPDEST PUSH1 0x40 MLOAD DUP1 SWAP2 SUB SWAP1 REVERT JUMPDEST PUSH32 0x0 PUSH2 0xFFFF AND PUSH1 0x4 PUSH0 DUP7 PUSH8 0xFFFFFFFFFFFFFFFF AND PUSH8 0xFFFFFFFFFFFFFFFF AND DUP2 MSTORE PUSH1 0x20 ADD SWAP1 DUP2 MSTORE PUSH1 0x20 ADD PUSH0 KECCAK256 DUP1 SLOAD SWAP1 POP SUB PUSH2 0xE38 JUMPI PUSH1 0x40 MLOAD PUSH32 0x5A48E0F00000000000000000000000000000000000000000000000000000000 DUP2 MSTORE PUSH1 0x4 ADD PUSH1 0x40 MLOAD DUP1 SWAP2 SUB SWAP1 REVERT JUMPDEST PUSH2 0xE42 DUP5 DUP5 PUSH2 0x1AE2 JUMP JUMPDEST PUSH2 0xF0C JUMPI PUSH1 0x4 PUSH0 DUP6 PUSH8 0xFFFFFFFFFFFFFFFF AND PUSH8 0xFFFFFFFFFFFFFFFF AND DUP2 MSTORE PUSH1 0x20 ADD SWAP1 DUP2 MSTORE PUSH1 0x20 ADD PUSH0 KECCAK256 DUP4 SWAP1 DUP1 PUSH1 0x1 DUP2 SLOAD ADD DUP1 DUP3 SSTORE DUP1 SWAP2 POP POP PUSH1 0x1 SWAP1 SUB SWAP1 PUSH0 MSTORE PUSH1 0x20 PUSH0 KECCAK256 ADD PUSH0 SWAP1 SWAP2 SWAP1 SWAP2 SWAP1 SWAP2 PUSH2 0x100 EXP DUP2 SLOAD DUP2 PUSH20 0xFFFFFFFFFFFFFFFFFFFFFFFFFFFFFFFFFFFFFFFF MUL NOT AND SWAP1 DUP4 PUSH20 0xFFFFFFFFFFFFFFFFFFFFFFFFFFFFFFFFFFFFFFFF AND MUL OR SWAP1 SSTORE POP DUP4 PUSH8 0xFFFFFFFFFFFFFFFF AND PUSH32 0x752EAD9F4536EC1319EE3A5A604E1D65EDED22E0924251552BA14AE4FAA1BBC3 DUP5 PUSH1 0x40 MLOAD PUSH2 0xF03 SWAP2 SWAP1 PUSH2 0x2962 JUMP JUMPDEST PUSH1 0x40 MLOAD DUP1 SWAP2 SUB SWAP1 LOG2 JUMPDEST POP POP POP POP JUMP JUMPDEST PUSH2 0xF65 DUP3 DUP3 PUSH0 PUSH8 0xFFFFFFFFFFFFFFFF DUP2 GT ISZERO PUSH2 0xF31 JUMPI PUSH2 0xF30 PUSH2 0x1E72 JUMP JUMPDEST JUMPDEST PUSH1 0x40 MLOAD SWAP1 DUP1 DUP3 MSTORE DUP1 PUSH1 0x20 MUL PUSH1 0x20 ADD DUP3 ADD PUSH1 0x40 MSTORE DUP1 ISZERO PUSH2 0xF5F JUMPI DUP2 PUSH1 0x20 ADD PUSH1 0x20 DUP3 MUL DUP1 CALLDATASIZE DUP4 CALLDATACOPY DUP1 DUP3 ADD SWAP2 POP POP SWAP1 POP JUMPDEST POP PUSH2 0x466 JUMP JUMPDEST POP POP JUMP JUMPDEST PUSH1 0x40 MLOAD PUSH32 0x8C379A000000000000000000000000000000000000000000000000000000000 DUP2 MSTORE PUSH1 0x4 ADD PUSH2 0xF9B SWAP1 PUSH2 0x2541 JUMP JUMPDEST PUSH1 0x40 MLOAD DUP1 SWAP2 SUB SWAP1 REVERT JUMPDEST DUP2 PUSH0 PUSH1 0x3 PUSH0 DUP4 PUSH8 0xFFFFFFFFFFFFFFFF AND PUSH8 0xFFFFFFFFFFFFFFFF AND DUP2 MSTORE PUSH1 0x20 ADD SWAP1 DUP2 MSTORE PUSH1 0x20 ADD PUSH0 KECCAK256 PUSH0 ADD PUSH0 SWAP1 SLOAD SWAP1 PUSH2 0x100 EXP SWAP1 DIV PUSH20 0xFFFFFFFFFFFFFFFFFFFFFFFFFFFFFFFFFFFFFFFF AND SWAP1 POP PUSH0 PUSH20 0xFFFFFFFFFFFFFFFFFFFFFFFFFFFFFFFFFFFFFFFF AND DUP2 PUSH20 0xFFFFFFFFFFFFFFFFFFFFFFFFFFFFFFFFFFFFFFFF AND SUB PUSH2 0x1054 JUMPI PUSH1 0x40 MLOAD PUSH32 0x1F6A65B600000000000000000000000000000000000000000000000000000000 DUP2 MSTORE PUSH1 0x4 ADD PUSH1 0x40 MLOAD DUP1 SWAP2 SUB SWAP1 REVERT JUMPDEST DUP1 PUSH20 0xFFFFFFFFFFFFFFFFFFFFFFFFFFFFFFFFFFFFFFFF AND CALLER PUSH20 0xFFFFFFFFFFFFFFFFFFFFFFFFFFFFFFFFFFFFFFFF AND EQ PUSH2 0x10C4 JUMPI DUP1 PUSH1 0x40 MLOAD PUSH32 0xD8A3FB5200000000000000000000000000000000000000000000000000000000 DUP2 MSTORE PUSH1 0x4 ADD PUSH2 0x10BB SWAP2 SWAP1 PUSH2 0x2962 JUMP JUMPDEST PUSH1 0x40 MLOAD DUP1 SWAP2 SUB SWAP1 REVERT JUMPDEST DUP4 DUP4 PUSH2 0x10D0 DUP3 DUP3 PUSH2 0x1AE2 JUMP JUMPDEST PUSH2 0x1106 JUMPI PUSH1 0x40 MLOAD PUSH32 0x71E8313700000000000000000000000000000000000000000000000000000000 DUP2 MSTORE PUSH1 0x4 ADD PUSH1 0x40 MLOAD DUP1 SWAP2 SUB SWAP1 REVERT JUMPDEST PUSH0 PUSH1 0x4 PUSH0 DUP9 PUSH8 0xFFFFFFFFFFFFFFFF AND PUSH8 0xFFFFFFFFFFFFFFFF AND DUP2 MSTORE PUSH1 0x20 ADD SWAP1 DUP2 MSTORE PUSH1 0x20 ADD PUSH0 KECCAK256 SWAP1 POP PUSH0 JUMPDEST DUP2 DUP1 SLOAD SWAP1 POP DUP2 LT ISZERO PUSH2 0x12AC JUMPI DUP7 PUSH20 0xFFFFFFFFFFFFFFFFFFFFFFFFFFFFFFFFFFFFFFFF AND DUP3 DUP3 DUP2 SLOAD DUP2 LT PUSH2 0x1166 JUMPI PUSH2 0x1165 PUSH2 0x25EE JUMP JUMPDEST JUMPDEST SWAP1 PUSH0 MSTORE PUSH1 0x20 PUSH0 KECCAK256 ADD PUSH0 SWAP1 SLOAD SWAP1 PUSH2 0x100 EXP SWAP1 DIV PUSH20 0xFFFFFFFFFFFFFFFFFFFFFFFFFFFFFFFFFFFFFFFF AND PUSH20 0xFFFFFFFFFFFFFFFFFFFFFFFFFFFFFFFFFFFFFFFF AND SUB PUSH2 0x1299 JUMPI PUSH0 DUP3 PUSH1 0x1 DUP5 DUP1 SLOAD SWAP1 POP PUSH2 0x11BC SWAP2 SWAP1 PUSH2 0x27F6 JUMP JUMPDEST DUP2 SLOAD DUP2 LT PUSH2 0x11CD JUMPI PUSH2 0x11CC PUSH2 0x25EE JUMP JUMPDEST JUMPDEST SWAP1 PUSH0 MSTORE PUSH1 0x20 PUSH0 KECCAK256 ADD PUSH0 SWAP1 SLOAD SWAP1 PUSH2 0x100 EXP SWAP1 DIV PUSH20 0xFFFFFFFFFFFFFFFFFFFFFFFFFFFFFFFFFFFFFFFF AND SWAP1 POP DUP1 DUP4 DUP4 DUP2 SLOAD DUP2 LT PUSH2 0x120B JUMPI PUSH2 0x120A PUSH2 0x25EE JUMP JUMPDEST JUMPDEST SWAP1 PUSH0 MSTORE PUSH1 0x20 PUSH0 KECCAK256 ADD PUSH0 PUSH2 0x100 EXP DUP2 SLOAD DUP2 PUSH20 0xFFFFFFFFFFFFFFFFFFFFFFFFFFFFFFFFFFFFFFFF MUL NOT AND SWAP1 DUP4 PUSH20 0xFFFFFFFFFFFFFFFFFFFFFFFFFFFFFFFFFFFFFFFF AND MUL OR SWAP1 SSTORE POP DUP3 DUP1 SLOAD DUP1 PUSH2 0x1261 JUMPI PUSH2 0x1260 PUSH2 0x297B JUMP JUMPDEST JUMPDEST PUSH1 0x1 SWAP1 SUB DUP2 DUP2 SWAP1 PUSH0 MSTORE PUSH1 0x20 PUSH0 KECCAK256 ADD PUSH0 PUSH2 0x100 EXP DUP2 SLOAD SWAP1 PUSH20 0xFFFFFFFFFFFFFFFFFFFFFFFFFFFFFFFFFFFFFFFF MUL NOT AND SWAP1 SSTORE SWAP1 SSTORE POP PUSH2 0x12AC JUMP JUMPDEST DUP1 DUP1 PUSH2 0x12A4 SWAP1 PUSH2 0x2648 JUMP JUMPDEST SWAP2 POP POP PUSH2 0x1130 JUMP JUMPDEST POP DUP7 PUSH8 0xFFFFFFFFFFFFFFFF AND PUSH32 0xF9BC9D5B5733D904409DEF43A5ECC888DBDAC9A95687780D8FD489D3BB3813FC DUP8 PUSH1 0x40 MLOAD PUSH2 0x12E7 SWAP2 SWAP1 PUSH2 0x2962 JUMP JUMPDEST PUSH1 0x40 MLOAD DUP1 SWAP2 SUB SWAP1 LOG2 POP POP POP POP POP POP POP JUMP JUMPDEST PUSH0 DUP1 PUSH0 DUP2 DUP2 SWAP1 SLOAD SWAP1 PUSH2 0x100 EXP SWAP1 DIV PUSH8 0xFFFFFFFFFFFFFFFF AND DUP1 SWAP3 SWAP2 SWAP1 PUSH2 0x131D SWAP1 PUSH2 0x29A8 JUMP JUMPDEST SWAP2 SWAP1 PUSH2 0x100 EXP DUP2 SLOAD DUP2 PUSH8 0xFFFFFFFFFFFFFFFF MUL NOT AND SWAP1 DUP4 PUSH8 0xFFFFFFFFFFFFFFFF AND MUL OR SWAP1 SSTORE POP POP PUSH1 0x40 MLOAD DUP1 PUSH1 0x40 ADD PUSH1 0x40 MSTORE DUP1 CALLER PUSH20 0xFFFFFFFFFFFFFFFFFFFFFFFFFFFFFFFFFFFFFFFF AND DUP2 MSTORE PUSH1 0x20 ADD PUSH0 PUSH12 0xFFFFFFFFFFFFFFFFFFFFFFFF AND DUP2 MSTORE POP PUSH1 0x3 PUSH0 DUP1 PUSH0 SWAP1 SLOAD SWAP1 PUSH2 0x100 EXP SWAP1 DIV PUSH8 0xFFFFFFFFFFFFFFFF AND PUSH8 0xFFFFFFFFFFFFFFFF AND PUSH8 0xFFFFFFFFFFFFFFFF AND DUP2 MSTORE PUSH1 0x20 ADD SWAP1 DUP2 MSTORE PUSH1 0x20 ADD PUSH0 KECCAK256 PUSH0 DUP3 ADD MLOAD DUP2 PUSH0 ADD PUSH0 PUSH2 0x100 EXP DUP2 SLOAD DUP2 PUSH20 0xFFFFFFFFFFFFFFFFFFFFFFFFFFFFFFFFFFFFFFFF MUL NOT AND SWAP1 DUP4 PUSH20 0xFFFFFFFFFFFFFFFFFFFFFFFFFFFFFFFFFFFFFFFF AND MUL OR SWAP1 SSTORE POP PUSH1 0x20 DUP3 ADD MLOAD DUP2 PUSH0 ADD PUSH1 0x14 PUSH2 0x100 EXP DUP2 SLOAD DUP2 PUSH12 0xFFFFFFFFFFFFFFFFFFFFFFFF MUL NOT AND SWAP1 DUP4 PUSH12 0xFFFFFFFFFFFFFFFFFFFFFFFF AND MUL OR SWAP1 SSTORE POP SWAP1 POP POP PUSH0 DUP1 SLOAD SWAP1 PUSH2 0x100 EXP SWAP1 DIV PUSH8 0xFFFFFFFFFFFFFFFF AND PUSH8 0xFFFFFFFFFFFFFFFF AND PUSH32 0x464722B4166576D3DCBBA877B999BC35CF911F4EAF434B7EBA68FA113951D0BF CALLER PUSH1 0x40 MLOAD PUSH2 0x1480 SWAP2 SWAP1 PUSH2 0x2962 JUMP JUMPDEST PUSH1 0x40 MLOAD DUP1 SWAP2 SUB SWAP1 LOG2 PUSH0 DUP1 SLOAD SWAP1 PUSH2 0x100 EXP SWAP1 DIV PUSH8 0xFFFFFFFFFFFFFFFF AND SWAP1 POP SWAP1 JUMP JUMPDEST PUSH32 0x0 DUP2 JUMP JUMPDEST PUSH0 DUP1 PUSH0 PUSH1 0x60 PUSH0 PUSH20 0xFFFFFFFFFFFFFFFFFFFFFFFFFFFFFFFFFFFFFFFF AND PUSH1 0x3 PUSH0 DUP8 PUSH8 0xFFFFFFFFFFFFFFFF AND PUSH8 0xFFFFFFFFFFFFFFFF AND DUP2 MSTORE PUSH1 0x20 ADD SWAP1 DUP2 MSTORE PUSH1 0x20 ADD PUSH0 KECCAK256 PUSH0 ADD PUSH0 SWAP1 SLOAD SWAP1 PUSH2 0x100 EXP SWAP1 DIV PUSH20 0xFFFFFFFFFFFFFFFFFFFFFFFFFFFFFFFFFFFFFFFF AND PUSH20 0xFFFFFFFFFFFFFFFFFFFFFFFFFFFFFFFFFFFFFFFF AND SUB PUSH2 0x1575 JUMPI PUSH1 0x40 MLOAD PUSH32 0x1F6A65B600000000000000000000000000000000000000000000000000000000 DUP2 MSTORE PUSH1 0x4 ADD PUSH1 0x40 MLOAD DUP1 SWAP2 SUB SWAP1 REVERT JUMPDEST PUSH1 0x3 PUSH0 DUP7 PUSH8 0xFFFFFFFFFFFFFFFF AND PUSH8 0xFFFFFFFFFFFFFFFF AND DUP2 MSTORE PUSH1 0x20 ADD SWAP1 DUP2 MSTORE PUSH1 0x20 ADD PUSH0 KECCAK256 PUSH0 ADD PUSH1 0x14 SWAP1 SLOAD SWAP1 PUSH2 0x100 EXP SWAP1 DIV PUSH12 0xFFFFFFFFFFFFFFFFFFFFFFFF AND PUSH0 PUSH1 0x3 PUSH0 DUP9 PUSH8 0xFFFFFFFFFFFFFFFF AND PUSH8 0xFFFFFFFFFFFFFFFF AND DUP2 MSTORE PUSH1 0x20 ADD SWAP1 DUP2 MSTORE PUSH1 0x20 ADD PUSH0 KECCAK256 PUSH0 ADD PUSH0 SWAP1 SLOAD SWAP1 PUSH2 0x100 EXP SWAP1 DIV PUSH20 0xFFFFFFFFFFFFFFFFFFFFFFFFFFFFFFFFFFFFFFFF AND PUSH1 0x4 PUSH0 DUP10 PUSH8 0xFFFFFFFFFFFFFFFF AND PUSH8 0xFFFFFFFFFFFFFFFF AND DUP2 MSTORE PUSH1 0x20 ADD SWAP1 DUP2 MSTORE PUSH1 0x20 ADD PUSH0 KECCAK256 DUP1 DUP1 SLOAD DUP1 PUSH1 0x20 MUL PUSH1 0x20 ADD PUSH1 0x40 MLOAD SWAP1 DUP2 ADD PUSH1 0x40 MSTORE DUP1 SWAP3 SWAP2 SWAP1 DUP2 DUP2 MSTORE PUSH1 0x20 ADD DUP3 DUP1 SLOAD DUP1 ISZERO PUSH2 0x16A0 JUMPI PUSH1 0x20 MUL DUP3 ADD SWAP2 SWAP1 PUSH0 MSTORE PUSH1 0x20 PUSH0 KECCAK256 SWAP1 JUMPDEST DUP2 PUSH0 SWAP1 SLOAD SWAP1 PUSH2 0x100 EXP SWAP1 DIV PUSH20 0xFFFFFFFFFFFFFFFFFFFFFFFFFFFFFFFFFFFFFFFF AND PUSH20 0xFFFFFFFFFFFFFFFFFFFFFFFFFFFFFFFFFFFFFFFF AND DUP2 MSTORE PUSH1 0x20 ADD SWAP1 PUSH1 0x1 ADD SWAP1 DUP1 DUP4 GT PUSH2 0x1657 JUMPI JUMPDEST POP POP POP POP POP SWAP1 POP SWAP4 POP SWAP4 POP SWAP4 POP SWAP4 POP SWAP2 SWAP4 POP SWAP2 SWAP4 JUMP JUMPDEST PUSH0 PUSH20 0xFFFFFFFFFFFFFFFFFFFFFFFFFFFFFFFFFFFFFFFF AND PUSH1 0x3 PUSH0 DUP5 PUSH8 0xFFFFFFFFFFFFFFFF AND PUSH8 0xFFFFFFFFFFFFFFFF AND DUP2 MSTORE PUSH1 0x20 ADD SWAP1 DUP2 MSTORE PUSH1 0x20 ADD PUSH0 KECCAK256 PUSH0 ADD PUSH0 SWAP1 SLOAD SWAP1 PUSH2 0x100 EXP SWAP1 DIV PUSH20 0xFFFFFFFFFFFFFFFFFFFFFFFFFFFFFFFFFFFFFFFF AND PUSH20 0xFFFFFFFFFFFFFFFFFFFFFFFFFFFFFFFFFFFFFFFF AND SUB PUSH2 0x1761 JUMPI PUSH1 0x40 MLOAD PUSH32 0x1F6A65B600000000000000000000000000000000000000000000000000000000 DUP2 MSTORE PUSH1 0x4 ADD PUSH1 0x40 MLOAD DUP1 SWAP2 SUB SWAP1 REVERT JUMPDEST PUSH0 PUSH1 0x3 PUSH0 DUP5 PUSH8 0xFFFFFFFFFFFFFFFF AND PUSH8 0xFFFFFFFFFFFFFFFF AND DUP2 MSTORE PUSH1 0x20 ADD SWAP1 DUP2 MSTORE PUSH1 0x20 ADD PUSH0 KECCAK256 PUSH0 ADD PUSH1 0x14 SWAP1 SLOAD SWAP1 PUSH2 0x100 EXP SWAP1 DIV PUSH12 0xFFFFFFFFFFFFFFFFFFFFFFFF AND SWAP1 POP DUP2 PUSH1 0x3 PUSH0 DUP6 PUSH8 0xFFFFFFFFFFFFFFFF AND PUSH8 0xFFFFFFFFFFFFFFFF AND DUP2 MSTORE PUSH1 0x20 ADD SWAP1 DUP2 MSTORE PUSH1 0x20 ADD PUSH0 KECCAK256 PUSH0 ADD PUSH1 0x14 DUP3 DUP3 DUP3 SWAP1 SLOAD SWAP1 PUSH2 0x100 EXP SWAP1 DIV PUSH12 0xFFFFFFFFFFFFFFFFFFFFFFFF AND PUSH2 0x17F2 SWAP2 SWAP1 PUSH2 0x29D7 JUMP JUMPDEST SWAP3 POP PUSH2 0x100 EXP DUP2 SLOAD DUP2 PUSH12 0xFFFFFFFFFFFFFFFFFFFFFFFF MUL NOT AND SWAP1 DUP4 PUSH12 0xFFFFFFFFFFFFFFFFFFFFFFFF AND MUL OR SWAP1 SSTORE POP DUP3 PUSH8 0xFFFFFFFFFFFFFFFF AND PUSH32 0xD39EC07F4E209F627A4C427971473820DC129761BA28DE8906BD56F57101D4F8 DUP3 DUP5 DUP5 PUSH2 0x1859 SWAP2 SWAP1 PUSH2 0x29D7 JUMP JUMPDEST PUSH1 0x40 MLOAD PUSH2 0x1867 SWAP3 SWAP2 SWAP1 PUSH2 0x2A4F JUMP JUMPDEST PUSH1 0x40 MLOAD DUP1 SWAP2 SUB SWAP1 LOG2 POP POP POP JUMP JUMPDEST PUSH0 DUP1 PUSH0 DUP1 PUSH1 0x4 PUSH3 0x2625A0 PUSH2 0xA8C PUSH2 0x8205 SWAP4 POP SWAP4 POP SWAP4 POP SWAP4 POP SWAP1 SWAP2 SWAP3 SWAP4 JUMP JUMPDEST DUP2 PUSH0 PUSH1 0x3 PUSH0 DUP4 PUSH8 0xFFFFFFFFFFFFFFFF AND PUSH8 0xFFFFFFFFFFFFFFFF AND DUP2 MSTORE PUSH1 0x20 ADD SWAP1 DUP2 MSTORE PUSH1 0x20 ADD PUSH0 KECCAK256 PUSH0 ADD PUSH0 SWAP1 SLOAD SWAP1 PUSH2 0x100 EXP SWAP1 DIV PUSH20 0xFFFFFFFFFFFFFFFFFFFFFFFFFFFFFFFFFFFFFFFF AND SWAP1 POP PUSH0 PUSH20 0xFFFFFFFFFFFFFFFFFFFFFFFFFFFFFFFFFFFFFFFF AND DUP2 PUSH20 0xFFFFFFFFFFFFFFFFFFFFFFFFFFFFFFFFFFFFFFFF AND SUB PUSH2 0x1942 JUMPI PUSH1 0x40 MLOAD PUSH32 0x1F6A65B600000000000000000000000000000000000000000000000000000000 DUP2 MSTORE PUSH1 0x4 ADD PUSH1 0x40 MLOAD DUP1 SWAP2 SUB SWAP1 REVERT JUMPDEST DUP1 PUSH20 0xFFFFFFFFFFFFFFFFFFFFFFFFFFFFFFFFFFFFFFFF AND CALLER PUSH20 0xFFFFFFFFFFFFFFFFFFFFFFFFFFFFFFFFFFFFFFFF AND EQ PUSH2 0x19B2 JUMPI DUP1 PUSH1 0x40 MLOAD PUSH32 0xD8A3FB5200000000000000000000000000000000000000000000000000000000 DUP2 MSTORE PUSH1 0x4 ADD PUSH2 0x19A9 SWAP2 SWAP1 PUSH2 0x2962 JUMP JUMPDEST PUSH1 0x40 MLOAD DUP1 SWAP2 SUB SWAP1 REVERT JUMPDEST DUP4 PUSH8 0xFFFFFFFFFFFFFFFF AND PUSH32 0xE8ED5B475A5B5987AA9165E8731BB78043F39EEE32EC5A1169A89E27FCD49815 DUP5 PUSH1 0x3 PUSH0 DUP9 PUSH8 0xFFFFFFFFFFFFFFFF AND PUSH8 0xFFFFFFFFFFFFFFFF AND DUP2 MSTORE PUSH1 0x20 ADD SWAP1 DUP2 MSTORE PUSH1 0x20 ADD PUSH0 KECCAK256 PUSH0 ADD PUSH1 0x14 SWAP1 SLOAD SWAP1 PUSH2 0x100 EXP SWAP1 DIV PUSH12 0xFFFFFFFFFFFFFFFFFFFFFFFF AND PUSH1 0x40 MLOAD PUSH2 0x1A2D SWAP3 SWAP2 SWAP1 PUSH2 0x2A76 JUMP JUMPDEST PUSH1 0x40 MLOAD DUP1 SWAP2 SUB SWAP1 LOG2 PUSH1 0x3 PUSH0 DUP6 PUSH8 0xFFFFFFFFFFFFFFFF AND PUSH8 0xFFFFFFFFFFFFFFFF AND DUP2 MSTORE PUSH1 0x20 ADD SWAP1 DUP2 MSTORE PUSH1 0x20 ADD PUSH0 KECCAK256 PUSH0 DUP1 DUP3 ADD PUSH0 PUSH2 0x100 EXP DUP2 SLOAD SWAP1 PUSH20 0xFFFFFFFFFFFFFFFFFFFFFFFFFFFFFFFFFFFFFFFF MUL NOT AND SWAP1 SSTORE PUSH0 DUP3 ADD PUSH1 0x14 PUSH2 0x100 EXP DUP2 SLOAD SWAP1 PUSH12 0xFFFFFFFFFFFFFFFFFFFFFFFF MUL NOT AND SWAP1 SSTORE POP POP POP POP POP POP JUMP JUMPDEST PUSH0 PUSH1 0x40 MLOAD PUSH32 0x8C379A000000000000000000000000000000000000000000000000000000000 DUP2 MSTORE PUSH1 0x4 ADD PUSH2 0x1AD9 SWAP1 PUSH2 0x2541 JUMP JUMPDEST PUSH1 0x40 MLOAD DUP1 SWAP2 SUB SWAP1 REVERT JUMPDEST PUSH0 DUP1 PUSH1 0x4 PUSH0 DUP6 PUSH8 0xFFFFFFFFFFFFFFFF AND PUSH8 0xFFFFFFFFFFFFFFFF AND DUP2 MSTORE PUSH1 0x20 ADD SWAP1 DUP2 MSTORE PUSH1 0x20 ADD PUSH0 KECCAK256 DUP1 SLOAD DUP1 PUSH1 0x20 MUL PUSH1 0x20 ADD PUSH1 0x40 MLOAD SWAP1 DUP2 ADD PUSH1 0x40 MSTORE DUP1 SWAP3 SWAP2 SWAP1 DUP2 DUP2 MSTORE PUSH1 0x20 ADD DUP3 DUP1 SLOAD DUP1 ISZERO PUSH2 0x1B86 JUMPI PUSH1 0x20 MUL DUP3 ADD SWAP2 SWAP1 PUSH0 MSTORE PUSH1 0x20 PUSH0 KECCAK256 SWAP1 JUMPDEST DUP2 PUSH0 SWAP1 SLOAD SWAP1 PUSH2 0x100 EXP SWAP1 DIV PUSH20 0xFFFFFFFFFFFFFFFFFFFFFFFFFFFFFFFFFFFFFFFF AND PUSH20 0xFFFFFFFFFFFFFFFFFFFFFFFFFFFFFFFFFFFFFFFF AND DUP2 MSTORE PUSH1 0x20 ADD SWAP1 PUSH1 0x1 ADD SWAP1 DUP1 DUP4 GT PUSH2 0x1B3D JUMPI JUMPDEST POP POP POP POP POP SWAP1 POP PUSH0 JUMPDEST DUP2 MLOAD DUP2 LT ISZERO PUSH2 0x1C03 JUMPI DUP4 PUSH20 0xFFFFFFFFFFFFFFFFFFFFFFFFFFFFFFFFFFFFFFFF AND DUP3 DUP3 DUP2 MLOAD DUP2 LT PUSH2 0x1BC2 JUMPI PUSH2 0x1BC1 PUSH2 0x25EE JUMP JUMPDEST JUMPDEST PUSH1 0x20 MUL PUSH1 0x20 ADD ADD MLOAD PUSH20 0xFFFFFFFFFFFFFFFFFFFFFFFFFFFFFFFFFFFFFFFF AND SUB PUSH2 0x1BF0 JUMPI PUSH1 0x1 SWAP3 POP POP POP PUSH2 0x1C09 JUMP JUMPDEST DUP1 DUP1 PUSH2 0x1BFB SWAP1 PUSH2 0x2648 JUMP JUMPDEST SWAP2 POP POP PUSH2 0x1B8F JUMP JUMPDEST POP PUSH0 SWAP2 POP POP JUMPDEST SWAP3 SWAP2 POP POP JUMP JUMPDEST PUSH0 PUSH2 0xFFFF DUP3 AND SWAP1 POP SWAP2 SWAP1 POP JUMP JUMPDEST PUSH2 0x1C25 DUP2 PUSH2 0x1C0F JUMP JUMPDEST DUP3 MSTORE POP POP JUMP JUMPDEST PUSH0 PUSH4 0xFFFFFFFF DUP3 AND SWAP1 POP SWAP2 SWAP1 POP JUMP JUMPDEST PUSH2 0x1C43 DUP2 PUSH2 0x1C2B JUMP JUMPDEST DUP3 MSTORE POP POP JUMP JUMPDEST PUSH0 DUP2 MLOAD SWAP1 POP SWAP2 SWAP1 POP JUMP JUMPDEST PUSH0 DUP3 DUP3 MSTORE PUSH1 0x20 DUP3 ADD SWAP1 POP SWAP3 SWAP2 POP POP JUMP JUMPDEST PUSH0 DUP2 SWAP1 POP PUSH1 0x20 DUP3 ADD SWAP1 POP SWAP2 SWAP1 POP JUMP JUMPDEST PUSH0 DUP2 SWAP1 POP SWAP2 SWAP1 POP JUMP JUMPDEST PUSH2 0x1C84 DUP2 PUSH2 0x1C72 JUMP JUMPDEST DUP3 MSTORE POP POP JUMP JUMPDEST PUSH0 PUSH2 0x1C95 DUP4 DUP4 PUSH2 0x1C7B JUMP JUMPDEST PUSH1 0x20 DUP4 ADD SWAP1 POP SWAP3 SWAP2 POP POP JUMP JUMPDEST PUSH0 PUSH1 0x20 DUP3 ADD SWAP1 POP SWAP2 SWAP1 POP JUMP JUMPDEST PUSH0 PUSH2 0x1CB7 DUP3 PUSH2 0x1C49 JUMP JUMPDEST PUSH2 0x1CC1 DUP2 DUP6 PUSH2 0x1C53 JUMP JUMPDEST SWAP4 POP PUSH2 0x1CCC DUP4 PUSH2 0x1C63 JUMP JUMPDEST DUP1 PUSH0 JUMPDEST DUP4 DUP2 LT ISZERO PUSH2 0x1CFC JUMPI DUP2 MLOAD PUSH2 0x1CE3 DUP9 DUP3 PUSH2 0x1C8A JUMP JUMPDEST SWAP8 POP PUSH2 0x1CEE DUP4 PUSH2 0x1CA1 JUMP JUMPDEST SWAP3 POP POP PUSH1 0x1 DUP2 ADD SWAP1 POP PUSH2 0x1CCF JUMP JUMPDEST POP DUP6 SWAP4 POP POP POP POP SWAP3 SWAP2 POP POP JUMP JUMPDEST PUSH0 PUSH1 0x60 DUP3 ADD SWAP1 POP PUSH2 0x1D1C PUSH0 DUP4 ADD DUP7 PUSH2 0x1C1C JUMP JUMPDEST PUSH2 0x1D29 PUSH1 0x20 DUP4 ADD DUP6 PUSH2 0x1C3A JUMP JUMPDEST DUP2 DUP2 SUB PUSH1 0x40 DUP4 ADD MSTORE PUSH2 0x1D3B DUP2 DUP5 PUSH2 0x1CAD JUMP JUMPDEST SWAP1 POP SWAP5 SWAP4 POP POP POP POP JUMP JUMPDEST PUSH0 PUSH1 0x40 MLOAD SWAP1 POP SWAP1 JUMP JUMPDEST PUSH0 DUP1 REVERT JUMPDEST PUSH0 DUP1 REVERT JUMPDEST PUSH0 PUSH8 0xFFFFFFFFFFFFFFFF DUP3 AND SWAP1 POP SWAP2 SWAP1 POP JUMP JUMPDEST PUSH2 0x1D72 DUP2 PUSH2 0x1D56 JUMP JUMPDEST DUP2 EQ PUSH2 0x1D7C JUMPI PUSH0 DUP1 REVERT JUMPDEST POP JUMP JUMPDEST PUSH0 DUP2 CALLDATALOAD SWAP1 POP PUSH2 0x1D8D DUP2 PUSH2 0x1D69 JUMP JUMPDEST SWAP3 SWAP2 POP POP JUMP JUMPDEST PUSH0 PUSH20 0xFFFFFFFFFFFFFFFFFFFFFFFFFFFFFFFFFFFFFFFF DUP3 AND SWAP1 POP SWAP2 SWAP1 POP JUMP JUMPDEST PUSH0 PUSH2 0x1DBC DUP3 PUSH2 0x1D93 JUMP JUMPDEST SWAP1 POP SWAP2 SWAP1 POP JUMP JUMPDEST PUSH2 0x1DCC DUP2 PUSH2 0x1DB2 JUMP JUMPDEST DUP2 EQ PUSH2 0x1DD6 JUMPI PUSH0 DUP1 REVERT JUMPDEST POP JUMP JUMPDEST PUSH0 DUP2 CALLDATALOAD SWAP1 POP PUSH2 0x1DE7 DUP2 PUSH2 0x1DC3 JUMP JUMPDEST SWAP3 SWAP2 POP POP JUMP JUMPDEST PUSH0 DUP1 PUSH1 0x40 DUP4 DUP6 SUB SLT ISZERO PUSH2 0x1E03 JUMPI PUSH2 0x1E02 PUSH2 0x1D4E JUMP JUMPDEST JUMPDEST PUSH0 PUSH2 0x1E10 DUP6 DUP3 DUP7 ADD PUSH2 0x1D7F JUMP JUMPDEST SWAP3 POP POP PUSH1 0x20 PUSH2 0x1E21 DUP6 DUP3 DUP7 ADD PUSH2 0x1DD9 JUMP JUMPDEST SWAP2 POP POP SWAP3 POP SWAP3 SWAP1 POP JUMP JUMPDEST PUSH0 DUP2 SWAP1 POP SWAP2 SWAP1 POP JUMP JUMPDEST PUSH2 0x1E3D DUP2 PUSH2 0x1E2B JUMP JUMPDEST DUP2 EQ PUSH2 0x1E47 JUMPI PUSH0 DUP1 REVERT JUMPDEST POP JUMP JUMPDEST PUSH0 DUP2 CALLDATALOAD SWAP1 POP PUSH2 0x1E58 DUP2 PUSH2 0x1E34 JUMP JUMPDEST SWAP3 SWAP2 POP POP JUMP JUMPDEST PUSH0 DUP1 REVERT JUMPDEST PUSH0 PUSH1 0x1F NOT PUSH1 0x1F DUP4 ADD AND SWAP1 POP SWAP2 SWAP1 POP JUMP JUMPDEST PUSH32 0x4E487B7100000000000000000000000000000000000000000000000000000000 PUSH0 MSTORE PUSH1 0x41 PUSH1 0x4 MSTORE PUSH1 0x24 PUSH0 REVERT JUMPDEST PUSH2 0x1EA8 DUP3 PUSH2 0x1E62 JUMP JUMPDEST DUP2 ADD DUP2 DUP2 LT PUSH8 0xFFFFFFFFFFFFFFFF DUP3 GT OR ISZERO PUSH2 0x1EC7 JUMPI PUSH2 0x1EC6 PUSH2 0x1E72 JUMP JUMPDEST JUMPDEST DUP1 PUSH1 0x40 MSTORE POP POP POP JUMP JUMPDEST PUSH0 PUSH2 0x1ED9 PUSH2 0x1D45 JUMP JUMPDEST SWAP1 POP PUSH2 0x1EE5 DUP3 DUP3 PUSH2 0x1E9F JUMP JUMPDEST SWAP2 SWAP1 POP JUMP JUMPDEST PUSH0 PUSH8 0xFFFFFFFFFFFFFFFF DUP3 GT ISZERO PUSH2 0x1F04 JUMPI PUSH2 0x1F03 PUSH2 0x1E72 JUMP JUMPDEST JUMPDEST PUSH1 0x20 DUP3 MUL SWAP1 POP PUSH1 0x20 DUP2 ADD SWAP1 POP SWAP2 SWAP1 POP JUMP JUMPDEST PUSH0 DUP1 REVERT JUMPDEST PUSH0 PUSH2 0x1F2B PUSH2 0x1F26 DUP5 PUSH2 0x1EEA JUMP JUMPDEST PUSH2 0x1ED0 JUMP JUMPDEST SWAP1 POP DUP1 DUP4 DUP3 MSTORE PUSH1 0x20 DUP3 ADD SWAP1 POP PUSH1 0x20 DUP5 MUL DUP4 ADD DUP6 DUP2 GT ISZERO PUSH2 0x1F4E JUMPI PUSH2 0x1F4D PUSH2 0x1F15 JUMP JUMPDEST JUMPDEST DUP4 JUMPDEST DUP2 DUP2 LT ISZERO PUSH2 0x1F77 JUMPI DUP1 PUSH2 0x1F63 DUP9 DUP3 PUSH2 0x1E4A JUMP JUMPDEST DUP5 MSTORE PUSH1 0x20 DUP5 ADD SWAP4 POP POP PUSH1 0x20 DUP2 ADD SWAP1 POP PUSH2 0x1F50 JUMP JUMPDEST POP POP POP SWAP4 SWAP3 POP POP POP JUMP JUMPDEST PUSH0 DUP3 PUSH1 0x1F DUP4 ADD SLT PUSH2 0x1F95 JUMPI PUSH2 0x1F94 PUSH2 0x1E5E JUMP JUMPDEST JUMPDEST DUP2 CALLDATALOAD PUSH2 0x1FA5 DUP5 DUP3 PUSH1 0x20 DUP7 ADD PUSH2 0x1F19 JUMP JUMPDEST SWAP2 POP POP SWAP3 SWAP2 POP POP JUMP JUMPDEST PUSH0 DUP1 PUSH0 PUSH1 0x60 DUP5 DUP7 SUB SLT ISZERO PUSH2 0x1FC5 JUMPI PUSH2 0x1FC4 PUSH2 0x1D4E JUMP JUMPDEST JUMPDEST PUSH0 PUSH2 0x1FD2 DUP7 DUP3 DUP8 ADD PUSH2 0x1E4A JUMP JUMPDEST SWAP4 POP POP PUSH1 0x20 PUSH2 0x1FE3 DUP7 DUP3 DUP8 ADD PUSH2 0x1DD9 JUMP JUMPDEST SWAP3 POP POP PUSH1 0x40 DUP5 ADD CALLDATALOAD PUSH8 0xFFFFFFFFFFFFFFFF DUP2 GT ISZERO PUSH2 0x2004 JUMPI PUSH2 0x2003 PUSH2 0x1D52 JUMP JUMPDEST JUMPDEST PUSH2 0x2010 DUP7 DUP3 DUP8 ADD PUSH2 0x1F81 JUMP JUMPDEST SWAP2 POP POP SWAP3 POP SWAP3 POP SWAP3 JUMP JUMPDEST PUSH0 DUP2 SWAP1 POP SWAP2 SWAP1 POP JUMP JUMPDEST PUSH2 0x202C DUP2 PUSH2 0x201A JUMP JUMPDEST DUP3 MSTORE POP POP JUMP JUMPDEST PUSH0 PUSH1 0x20 DUP3 ADD SWAP1 POP PUSH2 0x2045 PUSH0 DUP4 ADD DUP5 PUSH2 0x2023 JUMP JUMPDEST SWAP3 SWAP2 POP POP JUMP JUMPDEST PUSH0 PUSH12 0xFFFFFFFFFFFFFFFFFFFFFFFF DUP3 AND SWAP1 POP SWAP2 SWAP1 POP JUMP JUMPDEST PUSH2 0x206B DUP2 PUSH2 0x204B JUMP JUMPDEST DUP3 MSTORE POP POP JUMP JUMPDEST PUSH0 PUSH1 0x20 DUP3 ADD SWAP1 POP PUSH2 0x2084 PUSH0 DUP4 ADD DUP5 PUSH2 0x2062 JUMP JUMPDEST SWAP3 SWAP2 POP POP JUMP JUMPDEST PUSH2 0x2093 DUP2 PUSH2 0x1C72 JUMP JUMPDEST DUP2 EQ PUSH2 0x209D JUMPI PUSH0 DUP1 REVERT JUMPDEST POP JUMP JUMPDEST PUSH0 DUP2 CALLDATALOAD SWAP1 POP PUSH2 0x20AE DUP2 PUSH2 0x208A JUMP JUMPDEST SWAP3 SWAP2 POP POP JUMP JUMPDEST PUSH2 0x20BD DUP2 PUSH2 0x1C0F JUMP JUMPDEST DUP2 EQ PUSH2 0x20C7 JUMPI PUSH0 DUP1 REVERT JUMPDEST POP JUMP JUMPDEST PUSH0 DUP2 CALLDATALOAD SWAP1 POP PUSH2 0x20D8 DUP2 PUSH2 0x20B4 JUMP JUMPDEST SWAP3 SWAP2 POP POP JUMP JUMPDEST PUSH2 0x20E7 DUP2 PUSH2 0x1C2B JUMP JUMPDEST DUP2 EQ PUSH2 0x20F1 JUMPI PUSH0 DUP1 REVERT JUMPDEST POP JUMP JUMPDEST PUSH0 DUP2 CALLDATALOAD SWAP1 POP PUSH2 0x2102 DUP2 PUSH2 0x20DE JUMP JUMPDEST SWAP3 SWAP2 POP POP JUMP JUMPDEST PUSH0 DUP1 PUSH0 DUP1 PUSH0 PUSH1 0xA0 DUP7 DUP9 SUB SLT ISZERO PUSH2 0x2121 JUMPI PUSH2 0x2120 PUSH2 0x1D4E JUMP JUMPDEST JUMPDEST PUSH0 PUSH2 0x212E DUP9 DUP3 DUP10 ADD PUSH2 0x20A0 JUMP JUMPDEST SWAP6 POP POP PUSH1 0x20 PUSH2 0x213F DUP9 DUP3 DUP10 ADD PUSH2 0x1D7F JUMP JUMPDEST SWAP5 POP POP PUSH1 0x40 PUSH2 0x2150 DUP9 DUP3 DUP10 ADD PUSH2 0x20CA JUMP JUMPDEST SWAP4 POP POP PUSH1 0x60 PUSH2 0x2161 DUP9 DUP3 DUP10 ADD PUSH2 0x20F4 JUMP JUMPDEST SWAP3 POP POP PUSH1 0x80 PUSH2 0x2172 DUP9 DUP3 DUP10 ADD PUSH2 0x20F4 JUMP JUMPDEST SWAP2 POP POP SWAP3 SWAP6 POP SWAP3 SWAP6 SWAP1 SWAP4 POP JUMP JUMPDEST PUSH2 0x2188 DUP2 PUSH2 0x1E2B JUMP JUMPDEST DUP3 MSTORE POP POP JUMP JUMPDEST PUSH0 PUSH1 0x20 DUP3 ADD SWAP1 POP PUSH2 0x21A1 PUSH0 DUP4 ADD DUP5 PUSH2 0x217F JUMP JUMPDEST SWAP3 SWAP2 POP POP JUMP JUMPDEST PUSH0 PUSH3 0xFFFFFF DUP3 AND SWAP1 POP SWAP2 SWAP1 POP JUMP JUMPDEST PUSH2 0x21BE DUP2 PUSH2 0x21A7 JUMP JUMPDEST DUP3 MSTORE POP POP JUMP JUMPDEST PUSH0 PUSH2 0x120 DUP3 ADD SWAP1 POP PUSH2 0x21D8 PUSH0 DUP4 ADD DUP13 PUSH2 0x1C3A JUMP JUMPDEST PUSH2 0x21E5 PUSH1 0x20 DUP4 ADD DUP12 PUSH2 0x1C3A JUMP JUMPDEST PUSH2 0x21F2 PUSH1 0x40 DUP4 ADD DUP11 PUSH2 0x1C3A JUMP JUMPDEST PUSH2 0x21FF PUSH1 0x60 DUP4 ADD DUP10 PUSH2 0x1C3A JUMP JUMPDEST PUSH2 0x220C PUSH1 0x80 DUP4 ADD DUP9 PUSH2 0x1C3A JUMP JUMPDEST PUSH2 0x2219 PUSH1 0xA0 DUP4 ADD DUP8 PUSH2 0x21B5 JUMP JUMPDEST PUSH2 0x2226 PUSH1 0xC0 DUP4 ADD DUP7 PUSH2 0x21B5 JUMP JUMPDEST PUSH2 0x2233 PUSH1 0xE0 DUP4 ADD DUP6 PUSH2 0x21B5 JUMP JUMPDEST PUSH2 0x2241 PUSH2 0x100 DUP4 ADD DUP5 PUSH2 0x21B5 JUMP JUMPDEST SWAP11 SWAP10 POP POP POP POP POP POP POP POP POP POP JUMP JUMPDEST PUSH0 PUSH1 0x20 DUP3 ADD SWAP1 POP PUSH2 0x2262 PUSH0 DUP4 ADD DUP5 PUSH2 0x1C1C JUMP JUMPDEST SWAP3 SWAP2 POP POP JUMP JUMPDEST PUSH0 DUP1 PUSH1 0x40 DUP4 DUP6 SUB SLT ISZERO PUSH2 0x227E JUMPI PUSH2 0x227D PUSH2 0x1D4E JUMP JUMPDEST JUMPDEST PUSH0 PUSH2 0x228B DUP6 DUP3 DUP7 ADD PUSH2 0x1E4A JUMP JUMPDEST SWAP3 POP POP PUSH1 0x20 PUSH2 0x229C DUP6 DUP3 DUP7 ADD PUSH2 0x1DD9 JUMP JUMPDEST SWAP2 POP POP SWAP3 POP SWAP3 SWAP1 POP JUMP JUMPDEST PUSH0 PUSH1 0x20 DUP3 DUP5 SUB SLT ISZERO PUSH2 0x22BB JUMPI PUSH2 0x22BA PUSH2 0x1D4E JUMP JUMPDEST JUMPDEST PUSH0 PUSH2 0x22C8 DUP5 DUP3 DUP6 ADD PUSH2 0x1D7F JUMP JUMPDEST SWAP2 POP POP SWAP3 SWAP2 POP POP JUMP JUMPDEST PUSH2 0x22DA DUP2 PUSH2 0x1D56 JUMP JUMPDEST DUP3 MSTORE POP POP JUMP JUMPDEST PUSH0 PUSH1 0x20 DUP3 ADD SWAP1 POP PUSH2 0x22F3 PUSH0 DUP4 ADD DUP5 PUSH2 0x22D1 JUMP JUMPDEST SWAP3 SWAP2 POP POP JUMP JUMPDEST PUSH2 0x2302 DUP2 PUSH2 0x1DB2 JUMP JUMPDEST DUP3 MSTORE POP POP JUMP JUMPDEST PUSH0 DUP2 MLOAD SWAP1 POP SWAP2 SWAP1 POP JUMP JUMPDEST PUSH0 DUP3 DUP3 MSTORE PUSH1 0x20 DUP3 ADD SWAP1 POP SWAP3 SWAP2 POP POP JUMP JUMPDEST PUSH0 DUP2 SWAP1 POP PUSH1 0x20 DUP3 ADD SWAP1 POP SWAP2 SWAP1 POP JUMP JUMPDEST PUSH2 0x233A DUP2 PUSH2 0x1DB2 JUMP JUMPDEST DUP3 MSTORE POP POP JUMP JUMPDEST PUSH0 PUSH2 0x234B DUP4 DUP4 PUSH2 0x2331 JUMP JUMPDEST PUSH1 0x20 DUP4 ADD SWAP1 POP SWAP3 SWAP2 POP POP JUMP JUMPDEST PUSH0 PUSH1 0x20 DUP3 ADD SWAP1 POP SWAP2 SWAP1 POP JUMP JUMPDEST PUSH0 PUSH2 0x236D DUP3 PUSH2 0x2308 JUMP JUMPDEST PUSH2 0x2377 DUP2 DUP6 PUSH2 0x2312 JUMP JUMPDEST SWAP4 POP PUSH2 0x2382 DUP4 PUSH2 0x2322 JUMP JUMPDEST DUP1 PUSH0 JUMPDEST DUP4 DUP2 LT ISZERO PUSH2 0x23B2 JUMPI DUP2 MLOAD PUSH2 0x2399 DUP9 DUP3 PUSH2 0x2340 JUMP JUMPDEST SWAP8 POP PUSH2 0x23A4 DUP4 PUSH2 0x2357 JUMP JUMPDEST SWAP3 POP POP PUSH1 0x1 DUP2 ADD SWAP1 POP PUSH2 0x2385 JUMP JUMPDEST POP DUP6 SWAP4 POP POP POP POP SWAP3 SWAP2 POP POP JUMP JUMPDEST PUSH0 PUSH1 0x80 DUP3 ADD SWAP1 POP PUSH2 0x23D2 PUSH0 DUP4 ADD DUP8 PUSH2 0x2062 JUMP JUMPDEST PUSH2 0x23DF PUSH1 0x20 DUP4 ADD DUP7 PUSH2 0x22D1 JUMP JUMPDEST PUSH2 0x23EC PUSH1 0x40 DUP4 ADD DUP6 PUSH2 0x22F9 JUMP JUMPDEST DUP2 DUP2 SUB PUSH1 0x60 DUP4 ADD MSTORE PUSH2 0x23FE DUP2 DUP5 PUSH2 0x2363 JUMP JUMPDEST SWAP1 POP SWAP6 SWAP5 POP POP POP POP POP JUMP JUMPDEST PUSH2 0x2412 DUP2 PUSH2 0x204B JUMP JUMPDEST DUP2 EQ PUSH2 0x241C JUMPI PUSH0 DUP1 REVERT JUMPDEST POP JUMP JUMPDEST PUSH0 DUP2 CALLDATALOAD SWAP1 POP PUSH2 0x242D DUP2 PUSH2 0x2409 JUMP JUMPDEST SWAP3 SWAP2 POP POP JUMP JUMPDEST PUSH0 DUP1 PUSH1 0x40 DUP4 DUP6 SUB SLT ISZERO PUSH2 0x2449 JUMPI PUSH2 0x2448 PUSH2 0x1D4E JUMP JUMPDEST JUMPDEST PUSH0 PUSH2 0x2456 DUP6 DUP3 DUP7 ADD PUSH2 0x1D7F JUMP JUMPDEST SWAP3 POP POP PUSH1 0x20 PUSH2 0x2467 DUP6 DUP3 DUP7 ADD PUSH2 0x241F JUMP JUMPDEST SWAP2 POP POP SWAP3 POP SWAP3 SWAP1 POP JUMP JUMPDEST PUSH0 PUSH1 0x80 DUP3 ADD SWAP1 POP PUSH2 0x2484 PUSH0 DUP4 ADD DUP8 PUSH2 0x1C1C JUMP JUMPDEST PUSH2 0x2491 PUSH1 0x20 DUP4 ADD DUP7 PUSH2 0x1C3A JUMP JUMPDEST PUSH2 0x249E PUSH1 0x40 DUP4 ADD DUP6 PUSH2 0x1C3A JUMP JUMPDEST PUSH2 0x24AB PUSH1 0x60 DUP4 ADD DUP5 PUSH2 0x1C3A JUMP JUMPDEST SWAP6 SWAP5 POP POP POP POP POP JUMP JUMPDEST PUSH0 DUP2 ISZERO ISZERO SWAP1 POP SWAP2 SWAP1 POP JUMP JUMPDEST PUSH2 0x24C8 DUP2 PUSH2 0x24B4 JUMP JUMPDEST DUP3 MSTORE POP POP JUMP JUMPDEST PUSH0 PUSH1 0x20 DUP3 ADD SWAP1 POP PUSH2 0x24E1 PUSH0 DUP4 ADD DUP5 PUSH2 0x24BF JUMP JUMPDEST SWAP3 SWAP2 POP POP JUMP JUMPDEST PUSH0 DUP3 DUP3 MSTORE PUSH1 0x20 DUP3 ADD SWAP1 POP SWAP3 SWAP2 POP POP JUMP JUMPDEST PUSH32 0x6E6F7420696D706C656D656E7465640000000000000000000000000000000000 PUSH0 DUP3 ADD MSTORE POP JUMP JUMPDEST PUSH0 PUSH2 0x252B PUSH1 0xF DUP4 PUSH2 0x24E7 JUMP JUMPDEST SWAP2 POP PUSH2 0x2536 DUP3 PUSH2 0x24F7 JUMP JUMPDEST PUSH1 0x20 DUP3 ADD SWAP1 POP SWAP2 SWAP1 POP JUMP JUMPDEST PUSH0 PUSH1 0x20 DUP3 ADD SWAP1 POP DUP2 DUP2 SUB PUSH0 DUP4 ADD MSTORE PUSH2 0x2558 DUP2 PUSH2 0x251F JUMP JUMPDEST SWAP1 POP SWAP2 SWAP1 POP JUMP JUMPDEST PUSH32 0x6E6F6E6578697374656E74207265717565737400000000000000000000000000 PUSH0 DUP3 ADD MSTORE POP JUMP JUMPDEST PUSH0 PUSH2 0x2593 PUSH1 0x13 DUP4 PUSH2 0x24E7 JUMP JUMPDEST SWAP2 POP PUSH2 0x259E DUP3 PUSH2 0x255F JUMP JUMPDEST PUSH1 0x20 DUP3 ADD SWAP1 POP SWAP2 SWAP1 POP JUMP JUMPDEST PUSH0 PUSH1 0x20 DUP3 ADD SWAP1 POP DUP2 DUP2 SUB PUSH0 DUP4 ADD MSTORE PUSH2 0x25C0 DUP2 PUSH2 0x2587 JUMP JUMPDEST SWAP1 POP SWAP2 SWAP1 POP JUMP JUMPDEST PUSH0 PUSH1 0x40 DUP3 ADD SWAP1 POP PUSH2 0x25DA PUSH0 DUP4 ADD DUP6 PUSH2 0x217F JUMP JUMPDEST PUSH2 0x25E7 PUSH1 0x20 DUP4 ADD DUP5 PUSH2 0x217F JUMP JUMPDEST SWAP4 SWAP3 POP POP POP JUMP JUMPDEST PUSH32 0x4E487B7100000000000000000000000000000000000000000000000000000000 PUSH0 MSTORE PUSH1 0x32 PUSH1 0x4 MSTORE PUSH1 0x24 PUSH0 REVERT JUMPDEST PUSH32 0x4E487B7100000000000000000000000000000000000000000000000000000000 PUSH0 MSTORE PUSH1 0x11 PUSH1 0x4 MSTORE PUSH1 0x24 PUSH0 REVERT JUMPDEST PUSH0 PUSH2 0x2652 DUP3 PUSH2 0x1E2B JUMP JUMPDEST SWAP2 POP PUSH32 0xFFFFFFFFFFFFFFFFFFFFFFFFFFFFFFFFFFFFFFFFFFFFFFFFFFFFFFFFFFFFFFFF DUP3 SUB PUSH2 0x2684 JUMPI PUSH2 0x2683 PUSH2 0x261B JUMP JUMPDEST JUMPDEST PUSH1 0x1 DUP3 ADD SWAP1 POP SWAP2 SWAP1 POP JUMP JUMPDEST PUSH0 DUP2 MLOAD SWAP1 POP SWAP2 SWAP1 POP JUMP JUMPDEST PUSH0 DUP3 DUP3 MSTORE PUSH1 0x20 DUP3 ADD SWAP1 POP SWAP3 SWAP2 POP POP JUMP JUMPDEST PUSH0 DUP2 SWAP1 POP PUSH1 0x20 DUP3 ADD SWAP1 POP SWAP2 SWAP1 POP JUMP JUMPDEST PUSH2 0x26C1 DUP2 PUSH2 0x1E2B JUMP JUMPDEST DUP3 MSTORE POP POP JUMP JUMPDEST PUSH0 PUSH2 0x26D2 DUP4 DUP4 PUSH2 0x26B8 JUMP JUMPDEST PUSH1 0x20 DUP4 ADD SWAP1 POP SWAP3 SWAP2 POP POP JUMP JUMPDEST PUSH0 PUSH1 0x20 DUP3 ADD SWAP1 POP SWAP2 SWAP1 POP JUMP JUMPDEST PUSH0 PUSH2 0x26F4 DUP3 PUSH2 0x268F JUMP JUMPDEST PUSH2 0x26FE DUP2 DUP6 PUSH2 0x2699 JUMP JUMPDEST SWAP4 POP PUSH2 0x2709 DUP4 PUSH2 0x26A9 JUMP JUMPDEST DUP1 PUSH0 JUMPDEST DUP4 DUP2 LT ISZERO PUSH2 0x2739 JUMPI DUP2 MLOAD PUSH2 0x2720 DUP9 DUP3 PUSH2 0x26C7 JUMP JUMPDEST SWAP8 POP PUSH2 0x272B DUP4 PUSH2 0x26DE JUMP JUMPDEST SWAP3 POP POP PUSH1 0x1 DUP2 ADD SWAP1 POP PUSH2 0x270C JUMP JUMPDEST POP DUP6 SWAP4 POP POP POP POP SWAP3 SWAP2 POP POP JUMP JUMPDEST PUSH0 PUSH1 0x40 DUP3 ADD SWAP1 POP PUSH2 0x2759 PUSH0 DUP4 ADD DUP6 PUSH2 0x217F JUMP JUMPDEST DUP2 DUP2 SUB PUSH1 0x20 DUP4 ADD MSTORE PUSH2 0x276B DUP2 DUP5 PUSH2 0x26EA JUMP JUMPDEST SWAP1 POP SWAP4 SWAP3 POP POP POP JUMP JUMPDEST PUSH0 DUP2 MLOAD SWAP1 POP SWAP2 SWAP1 POP JUMP JUMPDEST PUSH0 DUP2 SWAP1 POP SWAP3 SWAP2 POP POP JUMP JUMPDEST PUSH0 JUMPDEST DUP4 DUP2 LT ISZERO PUSH2 0x27A5 JUMPI DUP1 DUP3 ADD MLOAD DUP2 DUP5 ADD MSTORE PUSH1 0x20 DUP2 ADD SWAP1 POP PUSH2 0x278A JUMP JUMPDEST PUSH0 DUP5 DUP5 ADD MSTORE POP POP POP POP JUMP JUMPDEST PUSH0 PUSH2 0x27BA DUP3 PUSH2 0x2774 JUMP JUMPDEST PUSH2 0x27C4 DUP2 DUP6 PUSH2 0x277E JUMP JUMPDEST SWAP4 POP PUSH2 0x27D4 DUP2 DUP6 PUSH1 0x20 DUP7 ADD PUSH2 0x2788 JUMP JUMPDEST DUP1 DUP5 ADD SWAP2 POP POP SWAP3 SWAP2 POP POP JUMP JUMPDEST PUSH0 PUSH2 0x27EB DUP3 DUP5 PUSH2 0x27B0 JUMP JUMPDEST SWAP2 POP DUP2 SWAP1 POP SWAP3 SWAP2 POP POP JUMP JUMPDEST PUSH0 PUSH2 0x2800 DUP3 PUSH2 0x1E2B JUMP JUMPDEST SWAP2 POP PUSH2 0x280B DUP4 PUSH2 0x1E2B JUMP JUMPDEST SWAP3 POP DUP3 DUP3 SUB SWAP1 POP DUP2 DUP2 GT ISZERO PUSH2 0x2823 JUMPI PUSH2 0x2822 PUSH2 0x261B JUMP JUMPDEST JUMPDEST SWAP3 SWAP2 POP POP JUMP JUMPDEST PUSH0 PUSH2 0x2833 DUP3 PUSH2 0x1E2B JUMP JUMPDEST SWAP2 POP PUSH2 0x283E DUP4 PUSH2 0x1E2B JUMP JUMPDEST SWAP3 POP DUP3 DUP3 MUL PUSH2 0x284C DUP2 PUSH2 0x1E2B JUMP JUMPDEST SWAP2 POP DUP3 DUP3 DIV DUP5 EQ DUP4 ISZERO OR PUSH2 0x2863 JUMPI PUSH2 0x2862 PUSH2 0x261B JUMP JUMPDEST JUMPDEST POP SWAP3 SWAP2 POP POP JUMP JUMPDEST PUSH0 PUSH2 0x2874 DUP3 PUSH2 0x1E2B JUMP JUMPDEST SWAP2 POP PUSH2 0x287F DUP4 PUSH2 0x1E2B JUMP JUMPDEST SWAP3 POP DUP3 DUP3 ADD SWAP1 POP DUP1 DUP3 GT ISZERO PUSH2 0x2897 JUMPI PUSH2 0x2896 PUSH2 0x261B JUMP JUMPDEST JUMPDEST SWAP3 SWAP2 POP POP JUMP JUMPDEST PUSH0 PUSH2 0x28A7 DUP3 PUSH2 0x204B JUMP JUMPDEST SWAP2 POP PUSH2 0x28B2 DUP4 PUSH2 0x204B JUMP JUMPDEST SWAP3 POP DUP3 DUP3 SUB SWAP1 POP PUSH12 0xFFFFFFFFFFFFFFFFFFFFFFFF DUP2 GT ISZERO PUSH2 0x28D6 JUMPI PUSH2 0x28D5 PUSH2 0x261B JUMP JUMPDEST JUMPDEST SWAP3 SWAP2 POP POP JUMP JUMPDEST PUSH0 PUSH1 0x60 DUP3 ADD SWAP1 POP PUSH2 0x28EF PUSH0 DUP4 ADD DUP7 PUSH2 0x217F JUMP JUMPDEST PUSH2 0x28FC PUSH1 0x20 DUP4 ADD DUP6 PUSH2 0x2062 JUMP JUMPDEST PUSH2 0x2909 PUSH1 0x40 DUP4 ADD DUP5 PUSH2 0x24BF JUMP JUMPDEST SWAP5 SWAP4 POP POP POP POP JUMP JUMPDEST PUSH0 PUSH1 0xA0 DUP3 ADD SWAP1 POP PUSH2 0x2924 PUSH0 DUP4 ADD DUP9 PUSH2 0x217F JUMP JUMPDEST PUSH2 0x2931 PUSH1 0x20 DUP4 ADD DUP8 PUSH2 0x217F JUMP JUMPDEST PUSH2 0x293E PUSH1 0x40 DUP4 ADD DUP7 PUSH2 0x1C1C JUMP JUMPDEST PUSH2 0x294B PUSH1 0x60 DUP4 ADD DUP6 PUSH2 0x1C3A JUMP JUMPDEST PUSH2 0x2958 PUSH1 0x80 DUP4 ADD DUP5 PUSH2 0x1C3A JUMP JUMPDEST SWAP7 SWAP6 POP POP POP POP POP POP JUMP JUMPDEST PUSH0 PUSH1 0x20 DUP3 ADD SWAP1 POP PUSH2 0x2975 PUSH0 DUP4 ADD DUP5 PUSH2 0x22F9 JUMP JUMPDEST SWAP3 SWAP2 POP POP JUMP JUMPDEST PUSH32 0x4E487B7100000000000000000000000000000000000000000000000000000000 PUSH0 MSTORE PUSH1 0x31 PUSH1 0x4 MSTORE PUSH1 0x24 PUSH0 REVERT JUMPDEST PUSH0 PUSH2 0x29B2 DUP3 PUSH2 0x1D56 JUMP JUMPDEST SWAP2 POP PUSH8 0xFFFFFFFFFFFFFFFF DUP3 SUB PUSH2 0x29CC JUMPI PUSH2 0x29CB PUSH2 0x261B JUMP JUMPDEST JUMPDEST PUSH1 0x1 DUP3 ADD SWAP1 POP SWAP2 SWAP1 POP JUMP JUMPDEST PUSH0 PUSH2 0x29E1 DUP3 PUSH2 0x204B JUMP JUMPDEST SWAP2 POP PUSH2 0x29EC DUP4 PUSH2 0x204B JUMP JUMPDEST SWAP3 POP DUP3 DUP3 ADD SWAP1 POP PUSH12 0xFFFFFFFFFFFFFFFFFFFFFFFF DUP2 GT ISZERO PUSH2 0x2A10 JUMPI PUSH2 0x2A0F PUSH2 0x261B JUMP JUMPDEST JUMPDEST SWAP3 SWAP2 POP POP JUMP JUMPDEST PUSH0 DUP2 SWAP1 POP SWAP2 SWAP1 POP JUMP JUMPDEST PUSH0 PUSH2 0x2A39 PUSH2 0x2A34 PUSH2 0x2A2F DUP5 PUSH2 0x204B JUMP JUMPDEST PUSH2 0x2A16 JUMP JUMPDEST PUSH2 0x1E2B JUMP JUMPDEST SWAP1 POP SWAP2 SWAP1 POP JUMP JUMPDEST PUSH2 0x2A49 DUP2 PUSH2 0x2A1F JUMP JUMPDEST DUP3 MSTORE POP POP JUMP JUMPDEST PUSH0 PUSH1 0x40 DUP3 ADD SWAP1 POP PUSH2 0x2A62 PUSH0 DUP4 ADD DUP6 PUSH2 0x2A40 JUMP JUMPDEST PUSH2 0x2A6F PUSH1 0x20 DUP4 ADD DUP5 PUSH2 0x2A40 JUMP JUMPDEST SWAP4 SWAP3 POP POP POP JUMP JUMPDEST PUSH0 PUSH1 0x40 DUP3 ADD SWAP1 POP PUSH2 0x2A89 PUSH0 DUP4 ADD DUP6 PUSH2 0x22F9 JUMP JUMPDEST PUSH2 0x2A96 PUSH1 0x20 DUP4 ADD DUP5 PUSH2 0x2A40 JUMP JUMPDEST SWAP4 SWAP3 POP POP POP JUMP INVALID LOG2 PUSH5 0x6970667358 0x22 SLT KECCAK256 CALLCODE 0x49 0xC7 DUP13 CALLCODE MSTORE8 PUSH14 0x8C1B9C983FD7A3CCA00417E6DE8D SAR CALL SELFBALANCE SSTORE 0xDD JUMPI 0xE7 PUSH14 0x469A9B64736F6C63430008140033 "},"gasEstimates":{"creation":{"codeDepositCost":"2192600","executionCost":"infinite","totalCost":"infinite"},"external":{"BASE_FEE()":"infinite","GAS_PRICE_LINK()":"infinite","MAX_CONSUMERS()":"infinite","acceptSubscriptionOwnerTransfer(uint64)":"713","addConsumer(uint64,address)":"infinite","cancelSubscription(uint64,address)":"infinite","consumerIsAdded(uint64,address)":"infinite","createSubscription()":"infinite","fulfillRandomWords(uint256,address)":"infinite","fulfillRandomWordsWithOverride(uint256,address,uint256[])":"infinite","fundSubscription(uint64,uint96)":"infinite","getConfig()":"infinite","getFallbackWeiPerUnitLink()":"422","getFeeConfig()":"infinite","getRequestConfig()":"896","getSubscription(uint64)":"infinite","pendingRequestExists(uint64)":"780","removeConsumer(uint64,address)":"infinite","requestRandomWords(bytes32,uint64,uint16,uint32,uint32)":"infinite","requestSubscriptionOwnerTransfer(uint64,address)":"953"}},"methodIdentifiers":{"BASE_FEE()":"3d18651e","GAS_PRICE_LINK()":"a410347f","MAX_CONSUMERS()":"64d51a2a","acceptSubscriptionOwnerTransfer(uint64)":"82359740","addConsumer(uint64,address)":"7341c10c","cancelSubscription(uint64,address)":"d7ae1d30","consumerIsAdded(uint64,address)":"ed5eb06d","createSubscription()":"a21a23e4","fulfillRandomWords(uint256,address)":"808974ff","fulfillRandomWordsWithOverride(uint256,address,uint256[])":"08e3898e","fundSubscription(uint64,uint96)":"afc69b53","getConfig()":"c3f909d4","getFallbackWeiPerUnitLink()":"356dac71","getFeeConfig()":"5fbbc0d2","getRequestConfig()":"00012291","getSubscription(uint64)":"a47c7696","pendingRequestExists(uint64)":"e82ad7d4","removeConsumer(uint64,address)":"9f87fad7","requestRandomWords(bytes32,uint64,uint16,uint32,uint32)":"5d3b1d30","requestSubscriptionOwnerTransfer(uint64,address)":"04c357cb"}},"storageLayout":{"storage":[{"astId":340,"contract":"@chainlink/contracts/src/v0.8/mocks/VRFCoordinatorV2Mock.sol:VRFCoordinatorV2Mock","label":"s_currentSubId","offset":0,"slot":"0","type":"t_uint64"},{"astId":343,"contract":"@chainlink/contracts/src/v0.8/mocks/VRFCoordinatorV2Mock.sol:VRFCoordinatorV2Mock","label":"s_nextRequestId","offset":0,"slot":"1","type":"t_uint256"},{"astId":346,"contract":"@chainlink/contracts/src/v0.8/mocks/VRFCoordinatorV2Mock.sol:VRFCoordinatorV2Mock","label":"s_nextPreSeed","offset":0,"slot":"2","type":"t_uint256"},{"astId":356,"contract":"@chainlink/contracts/src/v0.8/mocks/VRFCoordinatorV2Mock.sol:VRFCoordinatorV2Mock","label":"s_subscriptions","offset":0,"slot":"3","type":"t_mapping(t_uint64,t_struct(Subscription)351_storage)"},{"astId":361,"contract":"@chainlink/contracts/src/v0.8/mocks/VRFCoordinatorV2Mock.sol:VRFCoordinatorV2Mock","label":"s_consumers","offset":0,"slot":"4","type":"t_mapping(t_uint64,t_array(t_address)dyn_storage)"},{"astId":373,"contract":"@chainlink/contracts/src/v0.8/mocks/VRFCoordinatorV2Mock.sol:VRFCoordinatorV2Mock","label":"s_requests","offset":0,"slot":"5","type":"t_mapping(t_uint256,t_struct(Request)368_storage)"}],"types":{"t_address":{"encoding":"inplace","label":"address","numberOfBytes":"20"},"t_array(t_address)dyn_storage":{"base":"t_address","encoding":"dynamic_array","label":"address[]","numberOfBytes":"32"},"t_mapping(t_uint256,t_struct(Request)368_storage)":{"encoding":"mapping","key":"t_uint256","label":"mapping(uint256 => struct VRFCoordinatorV2Mock.Request)","numberOfBytes":"32","value":"t_struct(Request)368_storage"},"t_mapping(t_uint64,t_array(t_address)dyn_storage)":{"encoding":"mapping","key":"t_uint64","label":"mapping(uint64 => address[])","numberOfBytes":"32","value":"t_array(t_address)dyn_storage"},"t_mapping(t_uint64,t_struct(Subscription)351_storage)":{"encoding":"mapping","key":"t_uint64","label":"mapping(uint64 => struct VRFCoordinatorV2Mock.Subscription)","numberOfBytes":"32","value":"t_struct(Subscription)351_storage"},"t_struct(Request)368_storage":{"encoding":"inplace","label":"struct VRFCoordinatorV2Mock.Request","members":[{"astId":363,"contract":"@chainlink/contracts/src/v0.8/mocks/VRFCoordinatorV2Mock.sol:VRFCoordinatorV2Mock","label":"subId","offset":0,"slot":"0","type":"t_uint64"},{"astId":365,"contract":"@chainlink/contracts/src/v0.8/mocks/VRFCoordinatorV2Mock.sol:VRFCoordinatorV2Mock","label":"callbackGasLimit","offset":8,"slot":"0","type":"t_uint32"},{"astId":367,"contract":"@chainlink/contracts/src/v0.8/mocks/VRFCoordinatorV2Mock.sol:VRFCoordinatorV2Mock","label":"numWords","offset":12,"slot":"0","type":"t_uint32"}],"numberOfBytes":"32"},"t_struct(Subscription)351_storage":{"encoding":"inplace","label":"struct VRFCoordinatorV2Mock.Subscription","members":[{"astId":348,"contract":"@chainlink/contracts/src/v0.8/mocks/VRFCoordinatorV2Mock.sol:VRFCoordinatorV2Mock","label":"owner","offset":0,"slot":"0","type":"t_address"},{"astId":350,"contract":"@chainlink/contracts/src/v0.8/mocks/VRFCoordinatorV2Mock.sol:VRFCoordinatorV2Mock","label":"balance","offset":20,"slot":"0","type":"t_uint96"}],"numberOfBytes":"32"},"t_uint256":{"encoding":"inplace","label":"uint256","numberOfBytes":"32"},"t_uint32":{"encoding":"inplace","label":"uint32","numberOfBytes":"4"},"t_uint64":{"encoding":"inplace","label":"uint64","numberOfBytes":"8"},"t_uint96":{"encoding":"inplace","label":"uint96","numberOfBytes":"12"}}},"userdoc":{"kind":"user","methods":{"createSubscription()":{"notice":"Create a VRF subscription."},"fulfillRandomWords(uint256,address)":{"notice":"fulfillRandomWords fulfills the given request, sending the random words to the suppliedconsumer."},"fulfillRandomWordsWithOverride(uint256,address,uint256[])":{"notice":"fulfillRandomWordsWithOverride allows the user to pass in their own random words."},"fundSubscription(uint64,uint96)":{"notice":"fundSubscription allows funding a subscription with an arbitrary amount for testing."},"getRequestConfig()":{"notice":"Get configuration relevant for making requests"}},"version":1}}}}