{"contracts/Nishaq.sol":{"Nishaq":{"abi":[{"inputs":[{"internalType":"uint256","name":"entrance_fee_init","type":"uint256"},{"internalType":"uint256","name":"maxEnterCount_init","type":"uint256"},{"internalType":"address","name":"vrf_coordinator_addr","type":"address"},{"internalType":"bytes32","name":"c_keyHash","type":"bytes32"},{"internalType":"uint64","name":"c_subscriptionId","type":"uint64"},{"internalType":"uint32","name":"c_call_back_gas_limit","type":"uint32"},{"internalType":"uint32","name":"c_num_words","type":"uint32"},{"internalType":"uint256","name":"c_nishaq_interval","type":"uint256"}],"stateMutability":"nonpayable","type":"constructor"},{"inputs":[],"name":"Nishaq_Closed","type":"error"},{"inputs":[],"name":"Nishaq__TransferWinnerFailed","type":"error"},{"inputs":[{"internalType":"uint256","name":"balance","type":"uint256"},{"internalType":"uint256","name":"numplayers","type":"uint256"},{"internalType":"uint256","name":"nishaq_state","type":"uint256"}],"name":"NoUpkeepNeeded","type":"error"},{"inputs":[],"name":"NotEnoughETHEntered","type":"error"},{"inputs":[{"internalType":"address","name":"have","type":"address"},{"internalType":"address","name":"want","type":"address"}],"name":"OnlyCoordinatorCanFulfill","type":"error"},{"anonymous":false,"inputs":[{"indexed":true,"internalType":"address","name":"player","type":"address"}],"name":"NishaqEntered","type":"event"},{"anonymous":false,"inputs":[{"indexed":true,"internalType":"uint256","name":"requestId","type":"uint256"},{"indexed":true,"internalType":"uint32","name":"numWords","type":"uint32"}],"name":"RequestedNishaqWinner","type":"event"},{"anonymous":false,"inputs":[{"indexed":true,"internalType":"address","name":"recent_winner","type":"address"}],"name":"WinnerPicked","type":"event"},{"inputs":[],"name":"GetYourDetails","outputs":[{"internalType":"uint256","name":"","type":"uint256"}],"stateMutability":"view","type":"function"},{"inputs":[{"internalType":"bytes","name":"","type":"bytes"}],"name":"checkUpkeep","outputs":[{"internalType":"bool","name":"upkeepNeeded","type":"bool"},{"internalType":"bytes","name":"","type":"bytes"}],"stateMutability":"view","type":"function"},{"inputs":[{"internalType":"address","name":"","type":"address"}],"name":"enter_count","outputs":[{"internalType":"uint256","name":"","type":"uint256"}],"stateMutability":"view","type":"function"},{"inputs":[],"name":"enter_nishaq","outputs":[],"stateMutability":"payable","type":"function"},{"inputs":[],"name":"getEntranceFee","outputs":[{"internalType":"uint256","name":"","type":"uint256"}],"stateMutability":"view","type":"function"},{"inputs":[],"name":"getLastWinner","outputs":[{"internalType":"address","name":"","type":"address"}],"stateMutability":"view","type":"function"},{"inputs":[],"name":"getLatestTimeStamp","outputs":[{"internalType":"uint256","name":"","type":"uint256"}],"stateMutability":"view","type":"function"},{"inputs":[],"name":"getNishaqState","outputs":[{"internalType":"string","name":"","type":"string"}],"stateMutability":"view","type":"function"},{"inputs":[],"name":"getNumberOfPlayers","outputs":[{"internalType":"uint256","name":"","type":"uint256"}],"stateMutability":"view","type":"function"},{"inputs":[],"name":"getOwner","outputs":[{"internalType":"address","name":"","type":"address"}],"stateMutability":"view","type":"function"},{"inputs":[],"name":"getTotalFunding","outputs":[{"internalType":"uint256","name":"","type":"uint256"}],"stateMutability":"view","type":"function"},{"inputs":[{"internalType":"uint256","name":"index","type":"uint256"}],"name":"get_player","outputs":[{"internalType":"address","name":"","type":"address"}],"stateMutability":"view","type":"function"},{"inputs":[],"name":"lotteryWinnerInterval","outputs":[{"internalType":"uint256","name":"","type":"uint256"}],"stateMutability":"view","type":"function"},{"inputs":[],"name":"maxEnterCount","outputs":[{"internalType":"uint256","name":"","type":"uint256"}],"stateMutability":"view","type":"function"},{"inputs":[{"internalType":"uint256","name":"","type":"uint256"}],"name":"n_players","outputs":[{"internalType":"address payable","name":"","type":"address"}],"stateMutability":"view","type":"function"},{"inputs":[],"name":"numberOfWinners","outputs":[{"internalType":"uint256","name":"","type":"uint256"}],"stateMutability":"view","type":"function"},{"inputs":[{"internalType":"bytes","name":"","type":"bytes"}],"name":"performUpkeep","outputs":[],"stateMutability":"nonpayable","type":"function"},{"inputs":[{"internalType":"uint256","name":"requestId","type":"uint256"},{"internalType":"uint256[]","name":"randomWords","type":"uint256[]"}],"name":"rawFulfillRandomWords","outputs":[],"stateMutability":"nonpayable","type":"function"},{"inputs":[{"internalType":"address","name":"","type":"address"}],"name":"total_funds","outputs":[{"internalType":"uint256","name":"","type":"uint256"}],"stateMutability":"view","type":"function"}],"devdoc":{"kind":"dev","methods":{},"version":1},"evm":{"bytecode":{"linkReferences":{},"object":"61016060405234801562000011575f80fd5b5060405162001ecd38038062001ecd8339818101604052810190620000379190620002cf565b858073ffffffffffffffffffffffffffffffffffffffff1660808173ffffffffffffffffffffffffffffffffffffffff16815250505087600181905550866002819055508573ffffffffffffffffffffffffffffffffffffffff1660c08173ffffffffffffffffffffffffffffffffffffffff16815250508460e081815250508367ffffffffffffffff166101008167ffffffffffffffff16815250508263ffffffff166101208163ffffffff16815250508163ffffffff166101408163ffffffff16815250503373ffffffffffffffffffffffffffffffffffffffff1660a08173ffffffffffffffffffffffffffffffffffffffff16815250505f60065f6101000a81548160ff0219169083600281111562000159576200015862000393565b5b021790555042600781905550806008819055505050505050505050620003c0565b5f80fd5b5f819050919050565b62000192816200017e565b81146200019d575f80fd5b50565b5f81519050620001b08162000187565b92915050565b5f73ffffffffffffffffffffffffffffffffffffffff82169050919050565b5f620001e182620001b6565b9050919050565b620001f381620001d5565b8114620001fe575f80fd5b50565b5f815190506200021181620001e8565b92915050565b5f819050919050565b6200022b8162000217565b811462000236575f80fd5b50565b5f81519050620002498162000220565b92915050565b5f67ffffffffffffffff82169050919050565b6200026d816200024f565b811462000278575f80fd5b50565b5f815190506200028b8162000262565b92915050565b5f63ffffffff82169050919050565b620002ab8162000291565b8114620002b6575f80fd5b50565b5f81519050620002c981620002a0565b92915050565b5f805f805f805f80610100898b031215620002ef57620002ee6200017a565b5b5f620002fe8b828c01620001a0565b9850506020620003118b828c01620001a0565b9750506040620003248b828c0162000201565b9650506060620003378b828c0162000239565b95505060806200034a8b828c016200027b565b94505060a06200035d8b828c01620002b9565b93505060c0620003708b828c01620002b9565b92505060e0620003838b828c01620001a0565b9150509295985092959890939650565b7f4e487b71000000000000000000000000000000000000000000000000000000005f52602160045260245ffd5b60805160a05160c05160e051610100516101205161014051611aa6620004275f395f818161098901528181610a0c0152610b9501525f61096801525f61094501525f61092401525f6108e801525f610b6e01525f818161076e01526107c20152611aa65ff3fe608060405260043610610113575f3560e01c8063893d20e81161009f578063c44778ad11610063578063c44778ad14610388578063ed074709146103b2578063f88649a1146103ee578063fd6673f514610418578063fef43b201461044257610113565b8063893d20e8146102a45780638acfaca9146102ce57806397ea2865146102f8578063c063e54014610334578063c2750f991461035e57610113565b80631fe543e3116100e65780631fe543e3146101c3578063320229eb146101eb5780634585e33b146102155780636e04ff0d1461023d578063809c4d851461027a57610113565b8063031309b91461011757806304a3aba91461012157806309bc33a71461015d5780631625b57014610187575b5f80fd5b61011f61046c565b005b34801561012c575f80fd5b50610147600480360381019061014291906110fe565b61065f565b6040516101549190611168565b60405180910390f35b348015610168575f80fd5b5061017161074e565b60405161017e9190611190565b60405180910390f35b348015610192575f80fd5b506101ad60048036038101906101a891906111d3565b610757565b6040516101ba9190611190565b60405180910390f35b3480156101ce575f80fd5b506101e960048036038101906101e4919061134e565b61076c565b005b3480156101f6575f80fd5b506101ff61082c565b60405161020c9190611190565b60405180910390f35b348015610220575f80fd5b5061023b60048036038101906102369190611401565b610835565b005b348015610248575f80fd5b50610263600480360381019061025e91906114fc565b610a64565b6040516102719291906115d7565b60405180910390f35b348015610285575f80fd5b5061028e610b27565b60405161029b9190611190565b60405180910390f35b3480156102af575f80fd5b506102b8610b6b565b6040516102c59190611168565b60405180910390f35b3480156102d9575f80fd5b506102e2610b92565b6040516102ef9190611190565b60405180910390f35b348015610303575f80fd5b5061031e600480360381019061031991906110fe565b610bbf565b60405161032b9190611625565b60405180910390f35b34801561033f575f80fd5b50610348610bfa565b6040516103559190611190565b60405180910390f35b348015610369575f80fd5b50610372610c03565b60405161037f9190611190565b60405180910390f35b348015610393575f80fd5b5061039c610cb8565b6040516103a99190611190565b60405180910390f35b3480156103bd575f80fd5b506103d860048036038101906103d391906111d3565b610cbe565b6040516103e59190611190565b60405180910390f35b3480156103f9575f80fd5b50610402610cd3565b60405161040f9190611168565b60405180910390f35b348015610423575f80fd5b5061042c610cfa565b6040516104399190611190565b60405180910390f35b34801561044d575f80fd5b50610456610d06565b6040516104639190611690565b60405180910390f35b5f600281111561047f5761047e6116b0565b5b60065f9054906101000a900460ff1660028111156104a05761049f6116b0565b5b146104d7576040517f9af17cba00000000000000000000000000000000000000000000000000000000815260040160405180910390fd5b600154341015610513576040517f3c21f23000000000000000000000000000000000000000000000000000000000815260040160405180910390fd5b600333908060018154018082558091505060019003905f5260205f20015f9091909190916101000a81548173ffffffffffffffffffffffffffffffffffffffff021916908373ffffffffffffffffffffffffffffffffffffffff1602179055503460055f3373ffffffffffffffffffffffffffffffffffffffff1673ffffffffffffffffffffffffffffffffffffffff1681526020019081526020015f205f8282546105bf919061170a565b92505081905550600160045f3373ffffffffffffffffffffffffffffffffffffffff1673ffffffffffffffffffffffffffffffffffffffff1681526020019081526020015f205f828254610613919061170a565b925050819055503373ffffffffffffffffffffffffffffffffffffffff167fa8a654e266f85eee8278a2ffce0fbc599ecaad61e13e5ec6c04aee66a3457c3660405160405180910390a2565b5f813373ffffffffffffffffffffffffffffffffffffffff166003828154811061068c5761068b61173d565b5b905f5260205f20015f9054906101000a900473ffffffffffffffffffffffffffffffffffffffff1673ffffffffffffffffffffffffffffffffffffffff161461070a576040517f08c379a0000000000000000000000000000000000000000000000000000000008152600401610701906117da565b60405180910390fd5b6003838154811061071e5761071d61173d565b5b905f5260205f20015f9054906101000a900473ffffffffffffffffffffffffffffffffffffffff16915050919050565b5f600154905090565b6005602052805f5260405f205f915090505481565b7f000000000000000000000000000000000000000000000000000000000000000073ffffffffffffffffffffffffffffffffffffffff163373ffffffffffffffffffffffffffffffffffffffff161461081e57337f00000000000000000000000000000000000000000000000000000000000000006040517f1cf993f40000000000000000000000000000000000000000000000000000000081526004016108159291906117f8565b60405180910390fd5b6108288282610df4565b5050565b5f600754905090565b5f61084d60405180602001604052805f815250610a64565b509050806108bb574760038054905060065f9054906101000a900460ff16600281111561087d5761087c6116b0565b5b6040517f9890590a0000000000000000000000000000000000000000000000000000000081526004016108b29392919061181f565b60405180910390fd5b600160065f6101000a81548160ff021916908360028111156108e0576108df6116b0565b5b02179055505f7f000000000000000000000000000000000000000000000000000000000000000073ffffffffffffffffffffffffffffffffffffffff16635d3b1d307f00000000000000000000000000000000000000000000000000000000000000007f000000000000000000000000000000000000000000000000000000000000000060037f00000000000000000000000000000000000000000000000000000000000000007f00000000000000000000000000000000000000000000000000000000000000006040518663ffffffff1660e01b81526004016109c89594939291906118c8565b6020604051808303815f875af11580156109e4573d5f803e3d5ffd5b505050506040513d601f19601f82011682018060405250810190610a08919061192d565b90507f000000000000000000000000000000000000000000000000000000000000000063ffffffff16817fabc349d6919e025518ebb5168a91131be5199b377ad4dfccfc0f642bf78be28e60405160405180910390a350505050565b5f60605f60065f9054906101000a900460ff166002811115610a8957610a886116b0565b5b5f6002811115610a9c57610a9b6116b0565b5b1490505f60085460075442610ab19190611958565b1190505f806003805490501190505f8047119050828015610acf5750835b8015610ad85750805b8015610ae15750815b9550856040518060400160405280600381526020017f30783000000000000000000000000000000000000000000000000000000000008152509550955050505050915091565b5f60055f3373ffffffffffffffffffffffffffffffffffffffff1673ffffffffffffffffffffffffffffffffffffffff1681526020019081526020015f2054905090565b5f7f0000000000000000000000000000000000000000000000000000000000000000905090565b5f7f000000000000000000000000000000000000000000000000000000000000000063ffffffff16905090565b60038181548110610bce575f80fd5b905f5260205f20015f915054906101000a900473ffffffffffffffffffffffffffffffffffffffff1681565b5f600854905090565b5f805f90505f5b600380549050811015610cb05760055f60038381548110610c2e57610c2d61173d565b5b905f5260205f20015f9054906101000a900473ffffffffffffffffffffffffffffffffffffffff1673ffffffffffffffffffffffffffffffffffffffff1673ffffffffffffffffffffffffffffffffffffffff1681526020019081526020015f205482610c9b919061170a565b91508080610ca89061198b565b915050610c0a565b508091505090565b60025481565b6004602052805f5260405f205f915090505481565b5f805f9054906101000a900473ffffffffffffffffffffffffffffffffffffffff16905090565b5f600380549050905090565b60605f60065f9054906101000a900460ff166002811115610d2a57610d296116b0565b5b90505f8103610d71576040518060400160405280600481526020017f4f70656e00000000000000000000000000000000000000000000000000000000815250915050610df1565b60018103610db7576040518060400160405280600b81526020017f43616c63756c6174696e67000000000000000000000000000000000000000000815250915050610df1565b6040518060400160405280600481526020017f4e6f6e65000000000000000000000000000000000000000000000000000000008152509150505b90565b5f600380549050825f81518110610e0e57610e0d61173d565b5b6020026020010151610e2091906119ff565b90505f60038281548110610e3757610e3661173d565b5b905f5260205f20015f9054906101000a900473ffffffffffffffffffffffffffffffffffffffff169050805f806101000a81548173ffffffffffffffffffffffffffffffffffffffff021916908373ffffffffffffffffffffffffffffffffffffffff1602179055505f60065f6101000a81548160ff02191690836002811115610ec457610ec36116b0565b5b02179055505f67ffffffffffffffff811115610ee357610ee2611212565b5b604051908082528060200260200182016040528015610f115781602001602082028036833780820191505090505b5060039080519060200190610f27929190611018565b50426007819055505f8173ffffffffffffffffffffffffffffffffffffffff1647604051610f5490611a5c565b5f6040518083038185875af1925050503d805f8114610f8e576040519150601f19603f3d011682016040523d82523d5f602084013e610f93565b606091505b505090508173ffffffffffffffffffffffffffffffffffffffff167f5b690ec4a06fe979403046eaeea5b3ce38524683c3001f662c8b5a829632f7df60405160405180910390a280611011576040517f86eeb2bf00000000000000000000000000000000000000000000000000000000815260040160405180910390fd5b5050505050565b828054828255905f5260205f2090810192821561108e579160200282015b8281111561108d578251825f6101000a81548173ffffffffffffffffffffffffffffffffffffffff021916908373ffffffffffffffffffffffffffffffffffffffff16021790555091602001919060010190611036565b5b50905061109b919061109f565b5090565b5b808211156110b6575f815f9055506001016110a0565b5090565b5f604051905090565b5f80fd5b5f80fd5b5f819050919050565b6110dd816110cb565b81146110e7575f80fd5b50565b5f813590506110f8816110d4565b92915050565b5f60208284031215611113576111126110c3565b5b5f611120848285016110ea565b91505092915050565b5f73ffffffffffffffffffffffffffffffffffffffff82169050919050565b5f61115282611129565b9050919050565b61116281611148565b82525050565b5f60208201905061117b5f830184611159565b92915050565b61118a816110cb565b82525050565b5f6020820190506111a35f830184611181565b92915050565b6111b281611148565b81146111bc575f80fd5b50565b5f813590506111cd816111a9565b92915050565b5f602082840312156111e8576111e76110c3565b5b5f6111f5848285016111bf565b91505092915050565b5f80fd5b5f601f19601f8301169050919050565b7f4e487b71000000000000000000000000000000000000000000000000000000005f52604160045260245ffd5b61124882611202565b810181811067ffffffffffffffff8211171561126757611266611212565b5b80604052505050565b5f6112796110ba565b9050611285828261123f565b919050565b5f67ffffffffffffffff8211156112a4576112a3611212565b5b602082029050602081019050919050565b5f80fd5b5f6112cb6112c68461128a565b611270565b905080838252602082019050602084028301858111156112ee576112ed6112b5565b5b835b81811015611317578061130388826110ea565b8452602084019350506020810190506112f0565b5050509392505050565b5f82601f830112611335576113346111fe565b5b81356113458482602086016112b9565b91505092915050565b5f8060408385031215611364576113636110c3565b5b5f611371858286016110ea565b925050602083013567ffffffffffffffff811115611392576113916110c7565b5b61139e85828601611321565b9150509250929050565b5f80fd5b5f8083601f8401126113c1576113c06111fe565b5b8235905067ffffffffffffffff8111156113de576113dd6113a8565b5b6020830191508360018202830111156113fa576113f96112b5565b5b9250929050565b5f8060208385031215611417576114166110c3565b5b5f83013567ffffffffffffffff811115611434576114336110c7565b5b611440858286016113ac565b92509250509250929050565b5f80fd5b5f67ffffffffffffffff82111561146a57611469611212565b5b61147382611202565b9050602081019050919050565b828183375f83830152505050565b5f6114a061149b84611450565b611270565b9050828152602081018484840111156114bc576114bb61144c565b5b6114c7848285611480565b509392505050565b5f82601f8301126114e3576114e26111fe565b5b81356114f384826020860161148e565b91505092915050565b5f60208284031215611511576115106110c3565b5b5f82013567ffffffffffffffff81111561152e5761152d6110c7565b5b61153a848285016114cf565b91505092915050565b5f8115159050919050565b61155781611543565b82525050565b5f81519050919050565b5f82825260208201905092915050565b5f5b83811015611594578082015181840152602081019050611579565b5f8484015250505050565b5f6115a98261155d565b6115b38185611567565b93506115c3818560208601611577565b6115cc81611202565b840191505092915050565b5f6040820190506115ea5f83018561154e565b81810360208301526115fc818461159f565b90509392505050565b5f61160f82611129565b9050919050565b61161f81611605565b82525050565b5f6020820190506116385f830184611616565b92915050565b5f81519050919050565b5f82825260208201905092915050565b5f6116628261163e565b61166c8185611648565b935061167c818560208601611577565b61168581611202565b840191505092915050565b5f6020820190508181035f8301526116a88184611658565b905092915050565b7f4e487b71000000000000000000000000000000000000000000000000000000005f52602160045260245ffd5b7f4e487b71000000000000000000000000000000000000000000000000000000005f52601160045260245ffd5b5f611714826110cb565b915061171f836110cb565b9250828201905080821115611737576117366116dd565b5b92915050565b7f4e487b71000000000000000000000000000000000000000000000000000000005f52603260045260245ffd5b7f596f752063616e6e6f74207365652074686520706c61796572732061646472655f8201527f7373206265636175736520796f7520617265206e6f742074686174206f6e6500602082015250565b5f6117c4603f83611648565b91506117cf8261176a565b604082019050919050565b5f6020820190508181035f8301526117f1816117b8565b9050919050565b5f60408201905061180b5f830185611159565b6118186020830184611159565b9392505050565b5f6060820190506118325f830186611181565b61183f6020830185611181565b61184c6040830184611181565b949350505050565b5f819050919050565b61186681611854565b82525050565b5f67ffffffffffffffff82169050919050565b6118888161186c565b82525050565b5f61ffff82169050919050565b6118a48161188e565b82525050565b5f63ffffffff82169050919050565b6118c2816118aa565b82525050565b5f60a0820190506118db5f83018861185d565b6118e8602083018761187f565b6118f5604083018661189b565b61190260608301856118b9565b61190f60808301846118b9565b9695505050505050565b5f81519050611927816110d4565b92915050565b5f60208284031215611942576119416110c3565b5b5f61194f84828501611919565b91505092915050565b5f611962826110cb565b915061196d836110cb565b9250828203905081811115611985576119846116dd565b5b92915050565b5f611995826110cb565b91507fffffffffffffffffffffffffffffffffffffffffffffffffffffffffffffffff82036119c7576119c66116dd565b5b600182019050919050565b7f4e487b71000000000000000000000000000000000000000000000000000000005f52601260045260245ffd5b5f611a09826110cb565b9150611a14836110cb565b925082611a2457611a236119d2565b5b828206905092915050565b5f81905092915050565b50565b5f611a475f83611a2f565b9150611a5282611a39565b5f82019050919050565b5f611a6682611a3c565b915081905091905056fea26469706673582212201ee33de4e5bdc0cec2b8780f0d81f634b443c09c778a14b4567df1289ccc015364736f6c63430008140033","opcodes":"PUSH2 0x160 PUSH1 0x40 MSTORE CALLVALUE DUP1 ISZERO PUSH3 0x11 JUMPI PUSH0 DUP1 REVERT JUMPDEST POP PUSH1 0x40 MLOAD PUSH3 0x1ECD CODESIZE SUB DUP1 PUSH3 0x1ECD DUP4 CODECOPY DUP2 DUP2 ADD PUSH1 0x40 MSTORE DUP2 ADD SWAP1 PUSH3 0x37 SWAP2 SWAP1 PUSH3 0x2CF JUMP JUMPDEST DUP6 DUP1 PUSH20 0xFFFFFFFFFFFFFFFFFFFFFFFFFFFFFFFFFFFFFFFF AND PUSH1 0x80 DUP2 PUSH20 0xFFFFFFFFFFFFFFFFFFFFFFFFFFFFFFFFFFFFFFFF AND DUP2 MSTORE POP POP POP DUP8 PUSH1 0x1 DUP2 SWAP1 SSTORE POP DUP7 PUSH1 0x2 DUP2 SWAP1 SSTORE POP DUP6 PUSH20 0xFFFFFFFFFFFFFFFFFFFFFFFFFFFFFFFFFFFFFFFF AND PUSH1 0xC0 DUP2 PUSH20 0xFFFFFFFFFFFFFFFFFFFFFFFFFFFFFFFFFFFFFFFF AND DUP2 MSTORE POP POP DUP5 PUSH1 0xE0 DUP2 DUP2 MSTORE POP POP DUP4 PUSH8 0xFFFFFFFFFFFFFFFF AND PUSH2 0x100 DUP2 PUSH8 0xFFFFFFFFFFFFFFFF AND DUP2 MSTORE POP POP DUP3 PUSH4 0xFFFFFFFF AND PUSH2 0x120 DUP2 PUSH4 0xFFFFFFFF AND DUP2 MSTORE POP POP DUP2 PUSH4 0xFFFFFFFF AND PUSH2 0x140 DUP2 PUSH4 0xFFFFFFFF AND DUP2 MSTORE POP POP CALLER PUSH20 0xFFFFFFFFFFFFFFFFFFFFFFFFFFFFFFFFFFFFFFFF AND PUSH1 0xA0 DUP2 PUSH20 0xFFFFFFFFFFFFFFFFFFFFFFFFFFFFFFFFFFFFFFFF AND DUP2 MSTORE POP POP PUSH0 PUSH1 0x6 PUSH0 PUSH2 0x100 EXP DUP2 SLOAD DUP2 PUSH1 0xFF MUL NOT AND SWAP1 DUP4 PUSH1 0x2 DUP2 GT ISZERO PUSH3 0x159 JUMPI PUSH3 0x158 PUSH3 0x393 JUMP JUMPDEST JUMPDEST MUL OR SWAP1 SSTORE POP TIMESTAMP PUSH1 0x7 DUP2 SWAP1 SSTORE POP DUP1 PUSH1 0x8 DUP2 SWAP1 SSTORE POP POP POP POP POP POP POP POP POP PUSH3 0x3C0 JUMP JUMPDEST PUSH0 DUP1 REVERT JUMPDEST PUSH0 DUP2 SWAP1 POP SWAP2 SWAP1 POP JUMP JUMPDEST PUSH3 0x192 DUP2 PUSH3 0x17E JUMP JUMPDEST DUP2 EQ PUSH3 0x19D JUMPI PUSH0 DUP1 REVERT JUMPDEST POP JUMP JUMPDEST PUSH0 DUP2 MLOAD SWAP1 POP PUSH3 0x1B0 DUP2 PUSH3 0x187 JUMP JUMPDEST SWAP3 SWAP2 POP POP JUMP JUMPDEST PUSH0 PUSH20 0xFFFFFFFFFFFFFFFFFFFFFFFFFFFFFFFFFFFFFFFF DUP3 AND SWAP1 POP SWAP2 SWAP1 POP JUMP JUMPDEST PUSH0 PUSH3 0x1E1 DUP3 PUSH3 0x1B6 JUMP JUMPDEST SWAP1 POP SWAP2 SWAP1 POP JUMP JUMPDEST PUSH3 0x1F3 DUP2 PUSH3 0x1D5 JUMP JUMPDEST DUP2 EQ PUSH3 0x1FE JUMPI PUSH0 DUP1 REVERT JUMPDEST POP JUMP JUMPDEST PUSH0 DUP2 MLOAD SWAP1 POP PUSH3 0x211 DUP2 PUSH3 0x1E8 JUMP JUMPDEST SWAP3 SWAP2 POP POP JUMP JUMPDEST PUSH0 DUP2 SWAP1 POP SWAP2 SWAP1 POP JUMP JUMPDEST PUSH3 0x22B DUP2 PUSH3 0x217 JUMP JUMPDEST DUP2 EQ PUSH3 0x236 JUMPI PUSH0 DUP1 REVERT JUMPDEST POP JUMP JUMPDEST PUSH0 DUP2 MLOAD SWAP1 POP PUSH3 0x249 DUP2 PUSH3 0x220 JUMP JUMPDEST SWAP3 SWAP2 POP POP JUMP JUMPDEST PUSH0 PUSH8 0xFFFFFFFFFFFFFFFF DUP3 AND SWAP1 POP SWAP2 SWAP1 POP JUMP JUMPDEST PUSH3 0x26D DUP2 PUSH3 0x24F JUMP JUMPDEST DUP2 EQ PUSH3 0x278 JUMPI PUSH0 DUP1 REVERT JUMPDEST POP JUMP JUMPDEST PUSH0 DUP2 MLOAD SWAP1 POP PUSH3 0x28B DUP2 PUSH3 0x262 JUMP JUMPDEST SWAP3 SWAP2 POP POP JUMP JUMPDEST PUSH0 PUSH4 0xFFFFFFFF DUP3 AND SWAP1 POP SWAP2 SWAP1 POP JUMP JUMPDEST PUSH3 0x2AB DUP2 PUSH3 0x291 JUMP JUMPDEST DUP2 EQ PUSH3 0x2B6 JUMPI PUSH0 DUP1 REVERT JUMPDEST POP JUMP JUMPDEST PUSH0 DUP2 MLOAD SWAP1 POP PUSH3 0x2C9 DUP2 PUSH3 0x2A0 JUMP JUMPDEST SWAP3 SWAP2 POP POP JUMP JUMPDEST PUSH0 DUP1 PUSH0 DUP1 PUSH0 DUP1 PUSH0 DUP1 PUSH2 0x100 DUP10 DUP12 SUB SLT ISZERO PUSH3 0x2EF JUMPI PUSH3 0x2EE PUSH3 0x17A JUMP JUMPDEST JUMPDEST PUSH0 PUSH3 0x2FE DUP12 DUP3 DUP13 ADD PUSH3 0x1A0 JUMP JUMPDEST SWAP9 POP POP PUSH1 0x20 PUSH3 0x311 DUP12 DUP3 DUP13 ADD PUSH3 0x1A0 JUMP JUMPDEST SWAP8 POP POP PUSH1 0x40 PUSH3 0x324 DUP12 DUP3 DUP13 ADD PUSH3 0x201 JUMP JUMPDEST SWAP7 POP POP PUSH1 0x60 PUSH3 0x337 DUP12 DUP3 DUP13 ADD PUSH3 0x239 JUMP JUMPDEST SWAP6 POP POP PUSH1 0x80 PUSH3 0x34A DUP12 DUP3 DUP13 ADD PUSH3 0x27B JUMP JUMPDEST SWAP5 POP POP PUSH1 0xA0 PUSH3 0x35D DUP12 DUP3 DUP13 ADD PUSH3 0x2B9 JUMP JUMPDEST SWAP4 POP POP PUSH1 0xC0 PUSH3 0x370 DUP12 DUP3 DUP13 ADD PUSH3 0x2B9 JUMP JUMPDEST SWAP3 POP POP PUSH1 0xE0 PUSH3 0x383 DUP12 DUP3 DUP13 ADD PUSH3 0x1A0 JUMP JUMPDEST SWAP2 POP POP SWAP3 SWAP6 SWAP9 POP SWAP3 SWAP6 SWAP9 SWAP1 SWAP4 SWAP7 POP JUMP JUMPDEST PUSH32 0x4E487B7100000000000000000000000000000000000000000000000000000000 PUSH0 MSTORE PUSH1 0x21 PUSH1 0x4 MSTORE PUSH1 0x24 PUSH0 REVERT JUMPDEST PUSH1 0x80 MLOAD PUSH1 0xA0 MLOAD PUSH1 0xC0 MLOAD PUSH1 0xE0 MLOAD PUSH2 0x100 MLOAD PUSH2 0x120 MLOAD PUSH2 0x140 MLOAD PUSH2 0x1AA6 PUSH3 0x427 PUSH0 CODECOPY PUSH0 DUP2 DUP2 PUSH2 0x989 ADD MSTORE DUP2 DUP2 PUSH2 0xA0C ADD MSTORE PUSH2 0xB95 ADD MSTORE PUSH0 PUSH2 0x968 ADD MSTORE PUSH0 PUSH2 0x945 ADD MSTORE PUSH0 PUSH2 0x924 ADD MSTORE PUSH0 PUSH2 0x8E8 ADD MSTORE PUSH0 PUSH2 0xB6E ADD MSTORE PUSH0 DUP2 DUP2 PUSH2 0x76E ADD MSTORE PUSH2 0x7C2 ADD MSTORE PUSH2 0x1AA6 PUSH0 RETURN INVALID PUSH1 0x80 PUSH1 0x40 MSTORE PUSH1 0x4 CALLDATASIZE LT PUSH2 0x113 JUMPI PUSH0 CALLDATALOAD PUSH1 0xE0 SHR DUP1 PUSH4 0x893D20E8 GT PUSH2 0x9F JUMPI DUP1 PUSH4 0xC44778AD GT PUSH2 0x63 JUMPI DUP1 PUSH4 0xC44778AD EQ PUSH2 0x388 JUMPI DUP1 PUSH4 0xED074709 EQ PUSH2 0x3B2 JUMPI DUP1 PUSH4 0xF88649A1 EQ PUSH2 0x3EE JUMPI DUP1 PUSH4 0xFD6673F5 EQ PUSH2 0x418 JUMPI DUP1 PUSH4 0xFEF43B20 EQ PUSH2 0x442 JUMPI PUSH2 0x113 JUMP JUMPDEST DUP1 PUSH4 0x893D20E8 EQ PUSH2 0x2A4 JUMPI DUP1 PUSH4 0x8ACFACA9 EQ PUSH2 0x2CE JUMPI DUP1 PUSH4 0x97EA2865 EQ PUSH2 0x2F8 JUMPI DUP1 PUSH4 0xC063E540 EQ PUSH2 0x334 JUMPI DUP1 PUSH4 0xC2750F99 EQ PUSH2 0x35E JUMPI PUSH2 0x113 JUMP JUMPDEST DUP1 PUSH4 0x1FE543E3 GT PUSH2 0xE6 JUMPI DUP1 PUSH4 0x1FE543E3 EQ PUSH2 0x1C3 JUMPI DUP1 PUSH4 0x320229EB EQ PUSH2 0x1EB JUMPI DUP1 PUSH4 0x4585E33B EQ PUSH2 0x215 JUMPI DUP1 PUSH4 0x6E04FF0D EQ PUSH2 0x23D JUMPI DUP1 PUSH4 0x809C4D85 EQ PUSH2 0x27A JUMPI PUSH2 0x113 JUMP JUMPDEST DUP1 PUSH4 0x31309B9 EQ PUSH2 0x117 JUMPI DUP1 PUSH4 0x4A3ABA9 EQ PUSH2 0x121 JUMPI DUP1 PUSH4 0x9BC33A7 EQ PUSH2 0x15D JUMPI DUP1 PUSH4 0x1625B570 EQ PUSH2 0x187 JUMPI JUMPDEST PUSH0 DUP1 REVERT JUMPDEST PUSH2 0x11F PUSH2 0x46C JUMP JUMPDEST STOP JUMPDEST CALLVALUE DUP1 ISZERO PUSH2 0x12C JUMPI PUSH0 DUP1 REVERT JUMPDEST POP PUSH2 0x147 PUSH1 0x4 DUP1 CALLDATASIZE SUB DUP2 ADD SWAP1 PUSH2 0x142 SWAP2 SWAP1 PUSH2 0x10FE JUMP JUMPDEST PUSH2 0x65F JUMP JUMPDEST PUSH1 0x40 MLOAD PUSH2 0x154 SWAP2 SWAP1 PUSH2 0x1168 JUMP JUMPDEST PUSH1 0x40 MLOAD DUP1 SWAP2 SUB SWAP1 RETURN JUMPDEST CALLVALUE DUP1 ISZERO PUSH2 0x168 JUMPI PUSH0 DUP1 REVERT JUMPDEST POP PUSH2 0x171 PUSH2 0x74E JUMP JUMPDEST PUSH1 0x40 MLOAD PUSH2 0x17E SWAP2 SWAP1 PUSH2 0x1190 JUMP JUMPDEST PUSH1 0x40 MLOAD DUP1 SWAP2 SUB SWAP1 RETURN JUMPDEST CALLVALUE DUP1 ISZERO PUSH2 0x192 JUMPI PUSH0 DUP1 REVERT JUMPDEST POP PUSH2 0x1AD PUSH1 0x4 DUP1 CALLDATASIZE SUB DUP2 ADD SWAP1 PUSH2 0x1A8 SWAP2 SWAP1 PUSH2 0x11D3 JUMP JUMPDEST PUSH2 0x757 JUMP JUMPDEST PUSH1 0x40 MLOAD PUSH2 0x1BA SWAP2 SWAP1 PUSH2 0x1190 JUMP JUMPDEST PUSH1 0x40 MLOAD DUP1 SWAP2 SUB SWAP1 RETURN JUMPDEST CALLVALUE DUP1 ISZERO PUSH2 0x1CE JUMPI PUSH0 DUP1 REVERT JUMPDEST POP PUSH2 0x1E9 PUSH1 0x4 DUP1 CALLDATASIZE SUB DUP2 ADD SWAP1 PUSH2 0x1E4 SWAP2 SWAP1 PUSH2 0x134E JUMP JUMPDEST PUSH2 0x76C JUMP JUMPDEST STOP JUMPDEST CALLVALUE DUP1 ISZERO PUSH2 0x1F6 JUMPI PUSH0 DUP1 REVERT JUMPDEST POP PUSH2 0x1FF PUSH2 0x82C JUMP JUMPDEST PUSH1 0x40 MLOAD PUSH2 0x20C SWAP2 SWAP1 PUSH2 0x1190 JUMP JUMPDEST PUSH1 0x40 MLOAD DUP1 SWAP2 SUB SWAP1 RETURN JUMPDEST CALLVALUE DUP1 ISZERO PUSH2 0x220 JUMPI PUSH0 DUP1 REVERT JUMPDEST POP PUSH2 0x23B PUSH1 0x4 DUP1 CALLDATASIZE SUB DUP2 ADD SWAP1 PUSH2 0x236 SWAP2 SWAP1 PUSH2 0x1401 JUMP JUMPDEST PUSH2 0x835 JUMP JUMPDEST STOP JUMPDEST CALLVALUE DUP1 ISZERO PUSH2 0x248 JUMPI PUSH0 DUP1 REVERT JUMPDEST POP PUSH2 0x263 PUSH1 0x4 DUP1 CALLDATASIZE SUB DUP2 ADD SWAP1 PUSH2 0x25E SWAP2 SWAP1 PUSH2 0x14FC JUMP JUMPDEST PUSH2 0xA64 JUMP JUMPDEST PUSH1 0x40 MLOAD PUSH2 0x271 SWAP3 SWAP2 SWAP1 PUSH2 0x15D7 JUMP JUMPDEST PUSH1 0x40 MLOAD DUP1 SWAP2 SUB SWAP1 RETURN JUMPDEST CALLVALUE DUP1 ISZERO PUSH2 0x285 JUMPI PUSH0 DUP1 REVERT JUMPDEST POP PUSH2 0x28E PUSH2 0xB27 JUMP JUMPDEST PUSH1 0x40 MLOAD PUSH2 0x29B SWAP2 SWAP1 PUSH2 0x1190 JUMP JUMPDEST PUSH1 0x40 MLOAD DUP1 SWAP2 SUB SWAP1 RETURN JUMPDEST CALLVALUE DUP1 ISZERO PUSH2 0x2AF JUMPI PUSH0 DUP1 REVERT JUMPDEST POP PUSH2 0x2B8 PUSH2 0xB6B JUMP JUMPDEST PUSH1 0x40 MLOAD PUSH2 0x2C5 SWAP2 SWAP1 PUSH2 0x1168 JUMP JUMPDEST PUSH1 0x40 MLOAD DUP1 SWAP2 SUB SWAP1 RETURN JUMPDEST CALLVALUE DUP1 ISZERO PUSH2 0x2D9 JUMPI PUSH0 DUP1 REVERT JUMPDEST POP PUSH2 0x2E2 PUSH2 0xB92 JUMP JUMPDEST PUSH1 0x40 MLOAD PUSH2 0x2EF SWAP2 SWAP1 PUSH2 0x1190 JUMP JUMPDEST PUSH1 0x40 MLOAD DUP1 SWAP2 SUB SWAP1 RETURN JUMPDEST CALLVALUE DUP1 ISZERO PUSH2 0x303 JUMPI PUSH0 DUP1 REVERT JUMPDEST POP PUSH2 0x31E PUSH1 0x4 DUP1 CALLDATASIZE SUB DUP2 ADD SWAP1 PUSH2 0x319 SWAP2 SWAP1 PUSH2 0x10FE JUMP JUMPDEST PUSH2 0xBBF JUMP JUMPDEST PUSH1 0x40 MLOAD PUSH2 0x32B SWAP2 SWAP1 PUSH2 0x1625 JUMP JUMPDEST PUSH1 0x40 MLOAD DUP1 SWAP2 SUB SWAP1 RETURN JUMPDEST CALLVALUE DUP1 ISZERO PUSH2 0x33F JUMPI PUSH0 DUP1 REVERT JUMPDEST POP PUSH2 0x348 PUSH2 0xBFA JUMP JUMPDEST PUSH1 0x40 MLOAD PUSH2 0x355 SWAP2 SWAP1 PUSH2 0x1190 JUMP JUMPDEST PUSH1 0x40 MLOAD DUP1 SWAP2 SUB SWAP1 RETURN JUMPDEST CALLVALUE DUP1 ISZERO PUSH2 0x369 JUMPI PUSH0 DUP1 REVERT JUMPDEST POP PUSH2 0x372 PUSH2 0xC03 JUMP JUMPDEST PUSH1 0x40 MLOAD PUSH2 0x37F SWAP2 SWAP1 PUSH2 0x1190 JUMP JUMPDEST PUSH1 0x40 MLOAD DUP1 SWAP2 SUB SWAP1 RETURN JUMPDEST CALLVALUE DUP1 ISZERO PUSH2 0x393 JUMPI PUSH0 DUP1 REVERT JUMPDEST POP PUSH2 0x39C PUSH2 0xCB8 JUMP JUMPDEST PUSH1 0x40 MLOAD PUSH2 0x3A9 SWAP2 SWAP1 PUSH2 0x1190 JUMP JUMPDEST PUSH1 0x40 MLOAD DUP1 SWAP2 SUB SWAP1 RETURN JUMPDEST CALLVALUE DUP1 ISZERO PUSH2 0x3BD JUMPI PUSH0 DUP1 REVERT JUMPDEST POP PUSH2 0x3D8 PUSH1 0x4 DUP1 CALLDATASIZE SUB DUP2 ADD SWAP1 PUSH2 0x3D3 SWAP2 SWAP1 PUSH2 0x11D3 JUMP JUMPDEST PUSH2 0xCBE JUMP JUMPDEST PUSH1 0x40 MLOAD PUSH2 0x3E5 SWAP2 SWAP1 PUSH2 0x1190 JUMP JUMPDEST PUSH1 0x40 MLOAD DUP1 SWAP2 SUB SWAP1 RETURN JUMPDEST CALLVALUE DUP1 ISZERO PUSH2 0x3F9 JUMPI PUSH0 DUP1 REVERT JUMPDEST POP PUSH2 0x402 PUSH2 0xCD3 JUMP JUMPDEST PUSH1 0x40 MLOAD PUSH2 0x40F SWAP2 SWAP1 PUSH2 0x1168 JUMP JUMPDEST PUSH1 0x40 MLOAD DUP1 SWAP2 SUB SWAP1 RETURN JUMPDEST CALLVALUE DUP1 ISZERO PUSH2 0x423 JUMPI PUSH0 DUP1 REVERT JUMPDEST POP PUSH2 0x42C PUSH2 0xCFA JUMP JUMPDEST PUSH1 0x40 MLOAD PUSH2 0x439 SWAP2 SWAP1 PUSH2 0x1190 JUMP JUMPDEST PUSH1 0x40 MLOAD DUP1 SWAP2 SUB SWAP1 RETURN JUMPDEST CALLVALUE DUP1 ISZERO PUSH2 0x44D JUMPI PUSH0 DUP1 REVERT JUMPDEST POP PUSH2 0x456 PUSH2 0xD06 JUMP JUMPDEST PUSH1 0x40 MLOAD PUSH2 0x463 SWAP2 SWAP1 PUSH2 0x1690 JUMP JUMPDEST PUSH1 0x40 MLOAD DUP1 SWAP2 SUB SWAP1 RETURN JUMPDEST PUSH0 PUSH1 0x2 DUP2 GT ISZERO PUSH2 0x47F JUMPI PUSH2 0x47E PUSH2 0x16B0 JUMP JUMPDEST JUMPDEST PUSH1 0x6 PUSH0 SWAP1 SLOAD SWAP1 PUSH2 0x100 EXP SWAP1 DIV PUSH1 0xFF AND PUSH1 0x2 DUP2 GT ISZERO PUSH2 0x4A0 JUMPI PUSH2 0x49F PUSH2 0x16B0 JUMP JUMPDEST JUMPDEST EQ PUSH2 0x4D7 JUMPI PUSH1 0x40 MLOAD PUSH32 0x9AF17CBA00000000000000000000000000000000000000000000000000000000 DUP2 MSTORE PUSH1 0x4 ADD PUSH1 0x40 MLOAD DUP1 SWAP2 SUB SWAP1 REVERT JUMPDEST PUSH1 0x1 SLOAD CALLVALUE LT ISZERO PUSH2 0x513 JUMPI PUSH1 0x40 MLOAD PUSH32 0x3C21F23000000000000000000000000000000000000000000000000000000000 DUP2 MSTORE PUSH1 0x4 ADD PUSH1 0x40 MLOAD DUP1 SWAP2 SUB SWAP1 REVERT JUMPDEST PUSH1 0x3 CALLER SWAP1 DUP1 PUSH1 0x1 DUP2 SLOAD ADD DUP1 DUP3 SSTORE DUP1 SWAP2 POP POP PUSH1 0x1 SWAP1 SUB SWAP1 PUSH0 MSTORE PUSH1 0x20 PUSH0 KECCAK256 ADD PUSH0 SWAP1 SWAP2 SWAP1 SWAP2 SWAP1 SWAP2 PUSH2 0x100 EXP DUP2 SLOAD DUP2 PUSH20 0xFFFFFFFFFFFFFFFFFFFFFFFFFFFFFFFFFFFFFFFF MUL NOT AND SWAP1 DUP4 PUSH20 0xFFFFFFFFFFFFFFFFFFFFFFFFFFFFFFFFFFFFFFFF AND MUL OR SWAP1 SSTORE POP CALLVALUE PUSH1 0x5 PUSH0 CALLER PUSH20 0xFFFFFFFFFFFFFFFFFFFFFFFFFFFFFFFFFFFFFFFF AND PUSH20 0xFFFFFFFFFFFFFFFFFFFFFFFFFFFFFFFFFFFFFFFF AND DUP2 MSTORE PUSH1 0x20 ADD SWAP1 DUP2 MSTORE PUSH1 0x20 ADD PUSH0 KECCAK256 PUSH0 DUP3 DUP3 SLOAD PUSH2 0x5BF SWAP2 SWAP1 PUSH2 0x170A JUMP JUMPDEST SWAP3 POP POP DUP2 SWAP1 SSTORE POP PUSH1 0x1 PUSH1 0x4 PUSH0 CALLER PUSH20 0xFFFFFFFFFFFFFFFFFFFFFFFFFFFFFFFFFFFFFFFF AND PUSH20 0xFFFFFFFFFFFFFFFFFFFFFFFFFFFFFFFFFFFFFFFF AND DUP2 MSTORE PUSH1 0x20 ADD SWAP1 DUP2 MSTORE PUSH1 0x20 ADD PUSH0 KECCAK256 PUSH0 DUP3 DUP3 SLOAD PUSH2 0x613 SWAP2 SWAP1 PUSH2 0x170A JUMP JUMPDEST SWAP3 POP POP DUP2 SWAP1 SSTORE POP CALLER PUSH20 0xFFFFFFFFFFFFFFFFFFFFFFFFFFFFFFFFFFFFFFFF AND PUSH32 0xA8A654E266F85EEE8278A2FFCE0FBC599ECAAD61E13E5EC6C04AEE66A3457C36 PUSH1 0x40 MLOAD PUSH1 0x40 MLOAD DUP1 SWAP2 SUB SWAP1 LOG2 JUMP JUMPDEST PUSH0 DUP2 CALLER PUSH20 0xFFFFFFFFFFFFFFFFFFFFFFFFFFFFFFFFFFFFFFFF AND PUSH1 0x3 DUP3 DUP2 SLOAD DUP2 LT PUSH2 0x68C JUMPI PUSH2 0x68B PUSH2 0x173D JUMP JUMPDEST JUMPDEST SWAP1 PUSH0 MSTORE PUSH1 0x20 PUSH0 KECCAK256 ADD PUSH0 SWAP1 SLOAD SWAP1 PUSH2 0x100 EXP SWAP1 DIV PUSH20 0xFFFFFFFFFFFFFFFFFFFFFFFFFFFFFFFFFFFFFFFF AND PUSH20 0xFFFFFFFFFFFFFFFFFFFFFFFFFFFFFFFFFFFFFFFF AND EQ PUSH2 0x70A JUMPI PUSH1 0x40 MLOAD PUSH32 0x8C379A000000000000000000000000000000000000000000000000000000000 DUP2 MSTORE PUSH1 0x4 ADD PUSH2 0x701 SWAP1 PUSH2 0x17DA JUMP JUMPDEST PUSH1 0x40 MLOAD DUP1 SWAP2 SUB SWAP1 REVERT JUMPDEST PUSH1 0x3 DUP4 DUP2 SLOAD DUP2 LT PUSH2 0x71E JUMPI PUSH2 0x71D PUSH2 0x173D JUMP JUMPDEST JUMPDEST SWAP1 PUSH0 MSTORE PUSH1 0x20 PUSH0 KECCAK256 ADD PUSH0 SWAP1 SLOAD SWAP1 PUSH2 0x100 EXP SWAP1 DIV PUSH20 0xFFFFFFFFFFFFFFFFFFFFFFFFFFFFFFFFFFFFFFFF AND SWAP2 POP POP SWAP2 SWAP1 POP JUMP JUMPDEST PUSH0 PUSH1 0x1 SLOAD SWAP1 POP SWAP1 JUMP JUMPDEST PUSH1 0x5 PUSH1 0x20 MSTORE DUP1 PUSH0 MSTORE PUSH1 0x40 PUSH0 KECCAK256 PUSH0 SWAP2 POP SWAP1 POP SLOAD DUP2 JUMP JUMPDEST PUSH32 0x0 PUSH20 0xFFFFFFFFFFFFFFFFFFFFFFFFFFFFFFFFFFFFFFFF AND CALLER PUSH20 0xFFFFFFFFFFFFFFFFFFFFFFFFFFFFFFFFFFFFFFFF AND EQ PUSH2 0x81E JUMPI CALLER PUSH32 0x0 PUSH1 0x40 MLOAD PUSH32 0x1CF993F400000000000000000000000000000000000000000000000000000000 DUP2 MSTORE PUSH1 0x4 ADD PUSH2 0x815 SWAP3 SWAP2 SWAP1 PUSH2 0x17F8 JUMP JUMPDEST PUSH1 0x40 MLOAD DUP1 SWAP2 SUB SWAP1 REVERT JUMPDEST PUSH2 0x828 DUP3 DUP3 PUSH2 0xDF4 JUMP JUMPDEST POP POP JUMP JUMPDEST PUSH0 PUSH1 0x7 SLOAD SWAP1 POP SWAP1 JUMP JUMPDEST PUSH0 PUSH2 0x84D PUSH1 0x40 MLOAD DUP1 PUSH1 0x20 ADD PUSH1 0x40 MSTORE DUP1 PUSH0 DUP2 MSTORE POP PUSH2 0xA64 JUMP JUMPDEST POP SWAP1 POP DUP1 PUSH2 0x8BB JUMPI SELFBALANCE PUSH1 0x3 DUP1 SLOAD SWAP1 POP PUSH1 0x6 PUSH0 SWAP1 SLOAD SWAP1 PUSH2 0x100 EXP SWAP1 DIV PUSH1 0xFF AND PUSH1 0x2 DUP2 GT ISZERO PUSH2 0x87D JUMPI PUSH2 0x87C PUSH2 0x16B0 JUMP JUMPDEST JUMPDEST PUSH1 0x40 MLOAD PUSH32 0x9890590A00000000000000000000000000000000000000000000000000000000 DUP2 MSTORE PUSH1 0x4 ADD PUSH2 0x8B2 SWAP4 SWAP3 SWAP2 SWAP1 PUSH2 0x181F JUMP JUMPDEST PUSH1 0x40 MLOAD DUP1 SWAP2 SUB SWAP1 REVERT JUMPDEST PUSH1 0x1 PUSH1 0x6 PUSH0 PUSH2 0x100 EXP DUP2 SLOAD DUP2 PUSH1 0xFF MUL NOT AND SWAP1 DUP4 PUSH1 0x2 DUP2 GT ISZERO PUSH2 0x8E0 JUMPI PUSH2 0x8DF PUSH2 0x16B0 JUMP JUMPDEST JUMPDEST MUL OR SWAP1 SSTORE POP PUSH0 PUSH32 0x0 PUSH20 0xFFFFFFFFFFFFFFFFFFFFFFFFFFFFFFFFFFFFFFFF AND PUSH4 0x5D3B1D30 PUSH32 0x0 PUSH32 0x0 PUSH1 0x3 PUSH32 0x0 PUSH32 0x0 PUSH1 0x40 MLOAD DUP7 PUSH4 0xFFFFFFFF AND PUSH1 0xE0 SHL DUP2 MSTORE PUSH1 0x4 ADD PUSH2 0x9C8 SWAP6 SWAP5 SWAP4 SWAP3 SWAP2 SWAP1 PUSH2 0x18C8 JUMP JUMPDEST PUSH1 0x20 PUSH1 0x40 MLOAD DUP1 DUP4 SUB DUP2 PUSH0 DUP8 GAS CALL ISZERO DUP1 ISZERO PUSH2 0x9E4 JUMPI RETURNDATASIZE PUSH0 DUP1 RETURNDATACOPY RETURNDATASIZE PUSH0 REVERT JUMPDEST POP POP POP POP PUSH1 0x40 MLOAD RETURNDATASIZE PUSH1 0x1F NOT PUSH1 0x1F DUP3 ADD AND DUP3 ADD DUP1 PUSH1 0x40 MSTORE POP DUP2 ADD SWAP1 PUSH2 0xA08 SWAP2 SWAP1 PUSH2 0x192D JUMP JUMPDEST SWAP1 POP PUSH32 0x0 PUSH4 0xFFFFFFFF AND DUP2 PUSH32 0xABC349D6919E025518EBB5168A91131BE5199B377AD4DFCCFC0F642BF78BE28E PUSH1 0x40 MLOAD PUSH1 0x40 MLOAD DUP1 SWAP2 SUB SWAP1 LOG3 POP POP POP POP JUMP JUMPDEST PUSH0 PUSH1 0x60 PUSH0 PUSH1 0x6 PUSH0 SWAP1 SLOAD SWAP1 PUSH2 0x100 EXP SWAP1 DIV PUSH1 0xFF AND PUSH1 0x2 DUP2 GT ISZERO PUSH2 0xA89 JUMPI PUSH2 0xA88 PUSH2 0x16B0 JUMP JUMPDEST JUMPDEST PUSH0 PUSH1 0x2 DUP2 GT ISZERO PUSH2 0xA9C JUMPI PUSH2 0xA9B PUSH2 0x16B0 JUMP JUMPDEST JUMPDEST EQ SWAP1 POP PUSH0 PUSH1 0x8 SLOAD PUSH1 0x7 SLOAD TIMESTAMP PUSH2 0xAB1 SWAP2 SWAP1 PUSH2 0x1958 JUMP JUMPDEST GT SWAP1 POP PUSH0 DUP1 PUSH1 0x3 DUP1 SLOAD SWAP1 POP GT SWAP1 POP PUSH0 DUP1 SELFBALANCE GT SWAP1 POP DUP3 DUP1 ISZERO PUSH2 0xACF JUMPI POP DUP4 JUMPDEST DUP1 ISZERO PUSH2 0xAD8 JUMPI POP DUP1 JUMPDEST DUP1 ISZERO PUSH2 0xAE1 JUMPI POP DUP2 JUMPDEST SWAP6 POP DUP6 PUSH1 0x40 MLOAD DUP1 PUSH1 0x40 ADD PUSH1 0x40 MSTORE DUP1 PUSH1 0x3 DUP2 MSTORE PUSH1 0x20 ADD PUSH32 0x3078300000000000000000000000000000000000000000000000000000000000 DUP2 MSTORE POP SWAP6 POP SWAP6 POP POP POP POP POP SWAP2 POP SWAP2 JUMP JUMPDEST PUSH0 PUSH1 0x5 PUSH0 CALLER PUSH20 0xFFFFFFFFFFFFFFFFFFFFFFFFFFFFFFFFFFFFFFFF AND PUSH20 0xFFFFFFFFFFFFFFFFFFFFFFFFFFFFFFFFFFFFFFFF AND DUP2 MSTORE PUSH1 0x20 ADD SWAP1 DUP2 MSTORE PUSH1 0x20 ADD PUSH0 KECCAK256 SLOAD SWAP1 POP SWAP1 JUMP JUMPDEST PUSH0 PUSH32 0x0 SWAP1 POP SWAP1 JUMP JUMPDEST PUSH0 PUSH32 0x0 PUSH4 0xFFFFFFFF AND SWAP1 POP SWAP1 JUMP JUMPDEST PUSH1 0x3 DUP2 DUP2 SLOAD DUP2 LT PUSH2 0xBCE JUMPI PUSH0 DUP1 REVERT JUMPDEST SWAP1 PUSH0 MSTORE PUSH1 0x20 PUSH0 KECCAK256 ADD PUSH0 SWAP2 POP SLOAD SWAP1 PUSH2 0x100 EXP SWAP1 DIV PUSH20 0xFFFFFFFFFFFFFFFFFFFFFFFFFFFFFFFFFFFFFFFF AND DUP2 JUMP JUMPDEST PUSH0 PUSH1 0x8 SLOAD SWAP1 POP SWAP1 JUMP JUMPDEST PUSH0 DUP1 PUSH0 SWAP1 POP PUSH0 JUMPDEST PUSH1 0x3 DUP1 SLOAD SWAP1 POP DUP2 LT ISZERO PUSH2 0xCB0 JUMPI PUSH1 0x5 PUSH0 PUSH1 0x3 DUP4 DUP2 SLOAD DUP2 LT PUSH2 0xC2E JUMPI PUSH2 0xC2D PUSH2 0x173D JUMP JUMPDEST JUMPDEST SWAP1 PUSH0 MSTORE PUSH1 0x20 PUSH0 KECCAK256 ADD PUSH0 SWAP1 SLOAD SWAP1 PUSH2 0x100 EXP SWAP1 DIV PUSH20 0xFFFFFFFFFFFFFFFFFFFFFFFFFFFFFFFFFFFFFFFF AND PUSH20 0xFFFFFFFFFFFFFFFFFFFFFFFFFFFFFFFFFFFFFFFF AND PUSH20 0xFFFFFFFFFFFFFFFFFFFFFFFFFFFFFFFFFFFFFFFF AND DUP2 MSTORE PUSH1 0x20 ADD SWAP1 DUP2 MSTORE PUSH1 0x20 ADD PUSH0 KECCAK256 SLOAD DUP3 PUSH2 0xC9B SWAP2 SWAP1 PUSH2 0x170A JUMP JUMPDEST SWAP2 POP DUP1 DUP1 PUSH2 0xCA8 SWAP1 PUSH2 0x198B JUMP JUMPDEST SWAP2 POP POP PUSH2 0xC0A JUMP JUMPDEST POP DUP1 SWAP2 POP POP SWAP1 JUMP JUMPDEST PUSH1 0x2 SLOAD DUP2 JUMP JUMPDEST PUSH1 0x4 PUSH1 0x20 MSTORE DUP1 PUSH0 MSTORE PUSH1 0x40 PUSH0 KECCAK256 PUSH0 SWAP2 POP SWAP1 POP SLOAD DUP2 JUMP JUMPDEST PUSH0 DUP1 PUSH0 SWAP1 SLOAD SWAP1 PUSH2 0x100 EXP SWAP1 DIV PUSH20 0xFFFFFFFFFFFFFFFFFFFFFFFFFFFFFFFFFFFFFFFF AND SWAP1 POP SWAP1 JUMP JUMPDEST PUSH0 PUSH1 0x3 DUP1 SLOAD SWAP1 POP SWAP1 POP SWAP1 JUMP JUMPDEST PUSH1 0x60 PUSH0 PUSH1 0x6 PUSH0 SWAP1 SLOAD SWAP1 PUSH2 0x100 EXP SWAP1 DIV PUSH1 0xFF AND PUSH1 0x2 DUP2 GT ISZERO PUSH2 0xD2A JUMPI PUSH2 0xD29 PUSH2 0x16B0 JUMP JUMPDEST JUMPDEST SWAP1 POP PUSH0 DUP2 SUB PUSH2 0xD71 JUMPI PUSH1 0x40 MLOAD DUP1 PUSH1 0x40 ADD PUSH1 0x40 MSTORE DUP1 PUSH1 0x4 DUP2 MSTORE PUSH1 0x20 ADD PUSH32 0x4F70656E00000000000000000000000000000000000000000000000000000000 DUP2 MSTORE POP SWAP2 POP POP PUSH2 0xDF1 JUMP JUMPDEST PUSH1 0x1 DUP2 SUB PUSH2 0xDB7 JUMPI PUSH1 0x40 MLOAD DUP1 PUSH1 0x40 ADD PUSH1 0x40 MSTORE DUP1 PUSH1 0xB DUP2 MSTORE PUSH1 0x20 ADD PUSH32 0x43616C63756C6174696E67000000000000000000000000000000000000000000 DUP2 MSTORE POP SWAP2 POP POP PUSH2 0xDF1 JUMP JUMPDEST PUSH1 0x40 MLOAD DUP1 PUSH1 0x40 ADD PUSH1 0x40 MSTORE DUP1 PUSH1 0x4 DUP2 MSTORE PUSH1 0x20 ADD PUSH32 0x4E6F6E6500000000000000000000000000000000000000000000000000000000 DUP2 MSTORE POP SWAP2 POP POP JUMPDEST SWAP1 JUMP JUMPDEST PUSH0 PUSH1 0x3 DUP1 SLOAD SWAP1 POP DUP3 PUSH0 DUP2 MLOAD DUP2 LT PUSH2 0xE0E JUMPI PUSH2 0xE0D PUSH2 0x173D JUMP JUMPDEST JUMPDEST PUSH1 0x20 MUL PUSH1 0x20 ADD ADD MLOAD PUSH2 0xE20 SWAP2 SWAP1 PUSH2 0x19FF JUMP JUMPDEST SWAP1 POP PUSH0 PUSH1 0x3 DUP3 DUP2 SLOAD DUP2 LT PUSH2 0xE37 JUMPI PUSH2 0xE36 PUSH2 0x173D JUMP JUMPDEST JUMPDEST SWAP1 PUSH0 MSTORE PUSH1 0x20 PUSH0 KECCAK256 ADD PUSH0 SWAP1 SLOAD SWAP1 PUSH2 0x100 EXP SWAP1 DIV PUSH20 0xFFFFFFFFFFFFFFFFFFFFFFFFFFFFFFFFFFFFFFFF AND SWAP1 POP DUP1 PUSH0 DUP1 PUSH2 0x100 EXP DUP2 SLOAD DUP2 PUSH20 0xFFFFFFFFFFFFFFFFFFFFFFFFFFFFFFFFFFFFFFFF MUL NOT AND SWAP1 DUP4 PUSH20 0xFFFFFFFFFFFFFFFFFFFFFFFFFFFFFFFFFFFFFFFF AND MUL OR SWAP1 SSTORE POP PUSH0 PUSH1 0x6 PUSH0 PUSH2 0x100 EXP DUP2 SLOAD DUP2 PUSH1 0xFF MUL NOT AND SWAP1 DUP4 PUSH1 0x2 DUP2 GT ISZERO PUSH2 0xEC4 JUMPI PUSH2 0xEC3 PUSH2 0x16B0 JUMP JUMPDEST JUMPDEST MUL OR SWAP1 SSTORE POP PUSH0 PUSH8 0xFFFFFFFFFFFFFFFF DUP2 GT ISZERO PUSH2 0xEE3 JUMPI PUSH2 0xEE2 PUSH2 0x1212 JUMP JUMPDEST JUMPDEST PUSH1 0x40 MLOAD SWAP1 DUP1 DUP3 MSTORE DUP1 PUSH1 0x20 MUL PUSH1 0x20 ADD DUP3 ADD PUSH1 0x40 MSTORE DUP1 ISZERO PUSH2 0xF11 JUMPI DUP2 PUSH1 0x20 ADD PUSH1 0x20 DUP3 MUL DUP1 CALLDATASIZE DUP4 CALLDATACOPY DUP1 DUP3 ADD SWAP2 POP POP SWAP1 POP JUMPDEST POP PUSH1 0x3 SWAP1 DUP1 MLOAD SWAP1 PUSH1 0x20 ADD SWAP1 PUSH2 0xF27 SWAP3 SWAP2 SWAP1 PUSH2 0x1018 JUMP JUMPDEST POP TIMESTAMP PUSH1 0x7 DUP2 SWAP1 SSTORE POP PUSH0 DUP2 PUSH20 0xFFFFFFFFFFFFFFFFFFFFFFFFFFFFFFFFFFFFFFFF AND SELFBALANCE PUSH1 0x40 MLOAD PUSH2 0xF54 SWAP1 PUSH2 0x1A5C JUMP JUMPDEST PUSH0 PUSH1 0x40 MLOAD DUP1 DUP4 SUB DUP2 DUP6 DUP8 GAS CALL SWAP3 POP POP POP RETURNDATASIZE DUP1 PUSH0 DUP2 EQ PUSH2 0xF8E JUMPI PUSH1 0x40 MLOAD SWAP2 POP PUSH1 0x1F NOT PUSH1 0x3F RETURNDATASIZE ADD AND DUP3 ADD PUSH1 0x40 MSTORE RETURNDATASIZE DUP3 MSTORE RETURNDATASIZE PUSH0 PUSH1 0x20 DUP5 ADD RETURNDATACOPY PUSH2 0xF93 JUMP JUMPDEST PUSH1 0x60 SWAP2 POP JUMPDEST POP POP SWAP1 POP DUP2 PUSH20 0xFFFFFFFFFFFFFFFFFFFFFFFFFFFFFFFFFFFFFFFF AND PUSH32 0x5B690EC4A06FE979403046EAEEA5B3CE38524683C3001F662C8B5A829632F7DF PUSH1 0x40 MLOAD PUSH1 0x40 MLOAD DUP1 SWAP2 SUB SWAP1 LOG2 DUP1 PUSH2 0x1011 JUMPI PUSH1 0x40 MLOAD PUSH32 0x86EEB2BF00000000000000000000000000000000000000000000000000000000 DUP2 MSTORE PUSH1 0x4 ADD PUSH1 0x40 MLOAD DUP1 SWAP2 SUB SWAP1 REVERT JUMPDEST POP POP POP POP POP JUMP JUMPDEST DUP3 DUP1 SLOAD DUP3 DUP3 SSTORE SWAP1 PUSH0 MSTORE PUSH1 0x20 PUSH0 KECCAK256 SWAP1 DUP2 ADD SWAP3 DUP3 ISZERO PUSH2 0x108E JUMPI SWAP2 PUSH1 0x20 MUL DUP3 ADD JUMPDEST DUP3 DUP2 GT ISZERO PUSH2 0x108D JUMPI DUP3 MLOAD DUP3 PUSH0 PUSH2 0x100 EXP DUP2 SLOAD DUP2 PUSH20 0xFFFFFFFFFFFFFFFFFFFFFFFFFFFFFFFFFFFFFFFF MUL NOT AND SWAP1 DUP4 PUSH20 0xFFFFFFFFFFFFFFFFFFFFFFFFFFFFFFFFFFFFFFFF AND MUL OR SWAP1 SSTORE POP SWAP2 PUSH1 0x20 ADD SWAP2 SWAP1 PUSH1 0x1 ADD SWAP1 PUSH2 0x1036 JUMP JUMPDEST JUMPDEST POP SWAP1 POP PUSH2 0x109B SWAP2 SWAP1 PUSH2 0x109F JUMP JUMPDEST POP SWAP1 JUMP JUMPDEST JUMPDEST DUP1 DUP3 GT ISZERO PUSH2 0x10B6 JUMPI PUSH0 DUP2 PUSH0 SWAP1 SSTORE POP PUSH1 0x1 ADD PUSH2 0x10A0 JUMP JUMPDEST POP SWAP1 JUMP JUMPDEST PUSH0 PUSH1 0x40 MLOAD SWAP1 POP SWAP1 JUMP JUMPDEST PUSH0 DUP1 REVERT JUMPDEST PUSH0 DUP1 REVERT JUMPDEST PUSH0 DUP2 SWAP1 POP SWAP2 SWAP1 POP JUMP JUMPDEST PUSH2 0x10DD DUP2 PUSH2 0x10CB JUMP JUMPDEST DUP2 EQ PUSH2 0x10E7 JUMPI PUSH0 DUP1 REVERT JUMPDEST POP JUMP JUMPDEST PUSH0 DUP2 CALLDATALOAD SWAP1 POP PUSH2 0x10F8 DUP2 PUSH2 0x10D4 JUMP JUMPDEST SWAP3 SWAP2 POP POP JUMP JUMPDEST PUSH0 PUSH1 0x20 DUP3 DUP5 SUB SLT ISZERO PUSH2 0x1113 JUMPI PUSH2 0x1112 PUSH2 0x10C3 JUMP JUMPDEST JUMPDEST PUSH0 PUSH2 0x1120 DUP5 DUP3 DUP6 ADD PUSH2 0x10EA JUMP JUMPDEST SWAP2 POP POP SWAP3 SWAP2 POP POP JUMP JUMPDEST PUSH0 PUSH20 0xFFFFFFFFFFFFFFFFFFFFFFFFFFFFFFFFFFFFFFFF DUP3 AND SWAP1 POP SWAP2 SWAP1 POP JUMP JUMPDEST PUSH0 PUSH2 0x1152 DUP3 PUSH2 0x1129 JUMP JUMPDEST SWAP1 POP SWAP2 SWAP1 POP JUMP JUMPDEST PUSH2 0x1162 DUP2 PUSH2 0x1148 JUMP JUMPDEST DUP3 MSTORE POP POP JUMP JUMPDEST PUSH0 PUSH1 0x20 DUP3 ADD SWAP1 POP PUSH2 0x117B PUSH0 DUP4 ADD DUP5 PUSH2 0x1159 JUMP JUMPDEST SWAP3 SWAP2 POP POP JUMP JUMPDEST PUSH2 0x118A DUP2 PUSH2 0x10CB JUMP JUMPDEST DUP3 MSTORE POP POP JUMP JUMPDEST PUSH0 PUSH1 0x20 DUP3 ADD SWAP1 POP PUSH2 0x11A3 PUSH0 DUP4 ADD DUP5 PUSH2 0x1181 JUMP JUMPDEST SWAP3 SWAP2 POP POP JUMP JUMPDEST PUSH2 0x11B2 DUP2 PUSH2 0x1148 JUMP JUMPDEST DUP2 EQ PUSH2 0x11BC JUMPI PUSH0 DUP1 REVERT JUMPDEST POP JUMP JUMPDEST PUSH0 DUP2 CALLDATALOAD SWAP1 POP PUSH2 0x11CD DUP2 PUSH2 0x11A9 JUMP JUMPDEST SWAP3 SWAP2 POP POP JUMP JUMPDEST PUSH0 PUSH1 0x20 DUP3 DUP5 SUB SLT ISZERO PUSH2 0x11E8 JUMPI PUSH2 0x11E7 PUSH2 0x10C3 JUMP JUMPDEST JUMPDEST PUSH0 PUSH2 0x11F5 DUP5 DUP3 DUP6 ADD PUSH2 0x11BF JUMP JUMPDEST SWAP2 POP POP SWAP3 SWAP2 POP POP JUMP JUMPDEST PUSH0 DUP1 REVERT JUMPDEST PUSH0 PUSH1 0x1F NOT PUSH1 0x1F DUP4 ADD AND SWAP1 POP SWAP2 SWAP1 POP JUMP JUMPDEST PUSH32 0x4E487B7100000000000000000000000000000000000000000000000000000000 PUSH0 MSTORE PUSH1 0x41 PUSH1 0x4 MSTORE PUSH1 0x24 PUSH0 REVERT JUMPDEST PUSH2 0x1248 DUP3 PUSH2 0x1202 JUMP JUMPDEST DUP2 ADD DUP2 DUP2 LT PUSH8 0xFFFFFFFFFFFFFFFF DUP3 GT OR ISZERO PUSH2 0x1267 JUMPI PUSH2 0x1266 PUSH2 0x1212 JUMP JUMPDEST JUMPDEST DUP1 PUSH1 0x40 MSTORE POP POP POP JUMP JUMPDEST PUSH0 PUSH2 0x1279 PUSH2 0x10BA JUMP JUMPDEST SWAP1 POP PUSH2 0x1285 DUP3 DUP3 PUSH2 0x123F JUMP JUMPDEST SWAP2 SWAP1 POP JUMP JUMPDEST PUSH0 PUSH8 0xFFFFFFFFFFFFFFFF DUP3 GT ISZERO PUSH2 0x12A4 JUMPI PUSH2 0x12A3 PUSH2 0x1212 JUMP JUMPDEST JUMPDEST PUSH1 0x20 DUP3 MUL SWAP1 POP PUSH1 0x20 DUP2 ADD SWAP1 POP SWAP2 SWAP1 POP JUMP JUMPDEST PUSH0 DUP1 REVERT JUMPDEST PUSH0 PUSH2 0x12CB PUSH2 0x12C6 DUP5 PUSH2 0x128A JUMP JUMPDEST PUSH2 0x1270 JUMP JUMPDEST SWAP1 POP DUP1 DUP4 DUP3 MSTORE PUSH1 0x20 DUP3 ADD SWAP1 POP PUSH1 0x20 DUP5 MUL DUP4 ADD DUP6 DUP2 GT ISZERO PUSH2 0x12EE JUMPI PUSH2 0x12ED PUSH2 0x12B5 JUMP JUMPDEST JUMPDEST DUP4 JUMPDEST DUP2 DUP2 LT ISZERO PUSH2 0x1317 JUMPI DUP1 PUSH2 0x1303 DUP9 DUP3 PUSH2 0x10EA JUMP JUMPDEST DUP5 MSTORE PUSH1 0x20 DUP5 ADD SWAP4 POP POP PUSH1 0x20 DUP2 ADD SWAP1 POP PUSH2 0x12F0 JUMP JUMPDEST POP POP POP SWAP4 SWAP3 POP POP POP JUMP JUMPDEST PUSH0 DUP3 PUSH1 0x1F DUP4 ADD SLT PUSH2 0x1335 JUMPI PUSH2 0x1334 PUSH2 0x11FE JUMP JUMPDEST JUMPDEST DUP2 CALLDATALOAD PUSH2 0x1345 DUP5 DUP3 PUSH1 0x20 DUP7 ADD PUSH2 0x12B9 JUMP JUMPDEST SWAP2 POP POP SWAP3 SWAP2 POP POP JUMP JUMPDEST PUSH0 DUP1 PUSH1 0x40 DUP4 DUP6 SUB SLT ISZERO PUSH2 0x1364 JUMPI PUSH2 0x1363 PUSH2 0x10C3 JUMP JUMPDEST JUMPDEST PUSH0 PUSH2 0x1371 DUP6 DUP3 DUP7 ADD PUSH2 0x10EA JUMP JUMPDEST SWAP3 POP POP PUSH1 0x20 DUP4 ADD CALLDATALOAD PUSH8 0xFFFFFFFFFFFFFFFF DUP2 GT ISZERO PUSH2 0x1392 JUMPI PUSH2 0x1391 PUSH2 0x10C7 JUMP JUMPDEST JUMPDEST PUSH2 0x139E DUP6 DUP3 DUP7 ADD PUSH2 0x1321 JUMP JUMPDEST SWAP2 POP POP SWAP3 POP SWAP3 SWAP1 POP JUMP JUMPDEST PUSH0 DUP1 REVERT JUMPDEST PUSH0 DUP1 DUP4 PUSH1 0x1F DUP5 ADD SLT PUSH2 0x13C1 JUMPI PUSH2 0x13C0 PUSH2 0x11FE JUMP JUMPDEST JUMPDEST DUP3 CALLDATALOAD SWAP1 POP PUSH8 0xFFFFFFFFFFFFFFFF DUP2 GT ISZERO PUSH2 0x13DE JUMPI PUSH2 0x13DD PUSH2 0x13A8 JUMP JUMPDEST JUMPDEST PUSH1 0x20 DUP4 ADD SWAP2 POP DUP4 PUSH1 0x1 DUP3 MUL DUP4 ADD GT ISZERO PUSH2 0x13FA JUMPI PUSH2 0x13F9 PUSH2 0x12B5 JUMP JUMPDEST JUMPDEST SWAP3 POP SWAP3 SWAP1 POP JUMP JUMPDEST PUSH0 DUP1 PUSH1 0x20 DUP4 DUP6 SUB SLT ISZERO PUSH2 0x1417 JUMPI PUSH2 0x1416 PUSH2 0x10C3 JUMP JUMPDEST JUMPDEST PUSH0 DUP4 ADD CALLDATALOAD PUSH8 0xFFFFFFFFFFFFFFFF DUP2 GT ISZERO PUSH2 0x1434 JUMPI PUSH2 0x1433 PUSH2 0x10C7 JUMP JUMPDEST JUMPDEST PUSH2 0x1440 DUP6 DUP3 DUP7 ADD PUSH2 0x13AC JUMP JUMPDEST SWAP3 POP SWAP3 POP POP SWAP3 POP SWAP3 SWAP1 POP JUMP JUMPDEST PUSH0 DUP1 REVERT JUMPDEST PUSH0 PUSH8 0xFFFFFFFFFFFFFFFF DUP3 GT ISZERO PUSH2 0x146A JUMPI PUSH2 0x1469 PUSH2 0x1212 JUMP JUMPDEST JUMPDEST PUSH2 0x1473 DUP3 PUSH2 0x1202 JUMP JUMPDEST SWAP1 POP PUSH1 0x20 DUP2 ADD SWAP1 POP SWAP2 SWAP1 POP JUMP JUMPDEST DUP3 DUP2 DUP4 CALLDATACOPY PUSH0 DUP4 DUP4 ADD MSTORE POP POP POP JUMP JUMPDEST PUSH0 PUSH2 0x14A0 PUSH2 0x149B DUP5 PUSH2 0x1450 JUMP JUMPDEST PUSH2 0x1270 JUMP JUMPDEST SWAP1 POP DUP3 DUP2 MSTORE PUSH1 0x20 DUP2 ADD DUP5 DUP5 DUP5 ADD GT ISZERO PUSH2 0x14BC JUMPI PUSH2 0x14BB PUSH2 0x144C JUMP JUMPDEST JUMPDEST PUSH2 0x14C7 DUP5 DUP3 DUP6 PUSH2 0x1480 JUMP JUMPDEST POP SWAP4 SWAP3 POP POP POP JUMP JUMPDEST PUSH0 DUP3 PUSH1 0x1F DUP4 ADD SLT PUSH2 0x14E3 JUMPI PUSH2 0x14E2 PUSH2 0x11FE JUMP JUMPDEST JUMPDEST DUP2 CALLDATALOAD PUSH2 0x14F3 DUP5 DUP3 PUSH1 0x20 DUP7 ADD PUSH2 0x148E JUMP JUMPDEST SWAP2 POP POP SWAP3 SWAP2 POP POP JUMP JUMPDEST PUSH0 PUSH1 0x20 DUP3 DUP5 SUB SLT ISZERO PUSH2 0x1511 JUMPI PUSH2 0x1510 PUSH2 0x10C3 JUMP JUMPDEST JUMPDEST PUSH0 DUP3 ADD CALLDATALOAD PUSH8 0xFFFFFFFFFFFFFFFF DUP2 GT ISZERO PUSH2 0x152E JUMPI PUSH2 0x152D PUSH2 0x10C7 JUMP JUMPDEST JUMPDEST PUSH2 0x153A DUP5 DUP3 DUP6 ADD PUSH2 0x14CF JUMP JUMPDEST SWAP2 POP POP SWAP3 SWAP2 POP POP JUMP JUMPDEST PUSH0 DUP2 ISZERO ISZERO SWAP1 POP SWAP2 SWAP1 POP JUMP JUMPDEST PUSH2 0x1557 DUP2 PUSH2 0x1543 JUMP JUMPDEST DUP3 MSTORE POP POP JUMP JUMPDEST PUSH0 DUP2 MLOAD SWAP1 POP SWAP2 SWAP1 POP JUMP JUMPDEST PUSH0 DUP3 DUP3 MSTORE PUSH1 0x20 DUP3 ADD SWAP1 POP SWAP3 SWAP2 POP POP JUMP JUMPDEST PUSH0 JUMPDEST DUP4 DUP2 LT ISZERO PUSH2 0x1594 JUMPI DUP1 DUP3 ADD MLOAD DUP2 DUP5 ADD MSTORE PUSH1 0x20 DUP2 ADD SWAP1 POP PUSH2 0x1579 JUMP JUMPDEST PUSH0 DUP5 DUP5 ADD MSTORE POP POP POP POP JUMP JUMPDEST PUSH0 PUSH2 0x15A9 DUP3 PUSH2 0x155D JUMP JUMPDEST PUSH2 0x15B3 DUP2 DUP6 PUSH2 0x1567 JUMP JUMPDEST SWAP4 POP PUSH2 0x15C3 DUP2 DUP6 PUSH1 0x20 DUP7 ADD PUSH2 0x1577 JUMP JUMPDEST PUSH2 0x15CC DUP2 PUSH2 0x1202 JUMP JUMPDEST DUP5 ADD SWAP2 POP POP SWAP3 SWAP2 POP POP JUMP JUMPDEST PUSH0 PUSH1 0x40 DUP3 ADD SWAP1 POP PUSH2 0x15EA PUSH0 DUP4 ADD DUP6 PUSH2 0x154E JUMP JUMPDEST DUP2 DUP2 SUB PUSH1 0x20 DUP4 ADD MSTORE PUSH2 0x15FC DUP2 DUP5 PUSH2 0x159F JUMP JUMPDEST SWAP1 POP SWAP4 SWAP3 POP POP POP JUMP JUMPDEST PUSH0 PUSH2 0x160F DUP3 PUSH2 0x1129 JUMP JUMPDEST SWAP1 POP SWAP2 SWAP1 POP JUMP JUMPDEST PUSH2 0x161F DUP2 PUSH2 0x1605 JUMP JUMPDEST DUP3 MSTORE POP POP JUMP JUMPDEST PUSH0 PUSH1 0x20 DUP3 ADD SWAP1 POP PUSH2 0x1638 PUSH0 DUP4 ADD DUP5 PUSH2 0x1616 JUMP JUMPDEST SWAP3 SWAP2 POP POP JUMP JUMPDEST PUSH0 DUP2 MLOAD SWAP1 POP SWAP2 SWAP1 POP JUMP JUMPDEST PUSH0 DUP3 DUP3 MSTORE PUSH1 0x20 DUP3 ADD SWAP1 POP SWAP3 SWAP2 POP POP JUMP JUMPDEST PUSH0 PUSH2 0x1662 DUP3 PUSH2 0x163E JUMP JUMPDEST PUSH2 0x166C DUP2 DUP6 PUSH2 0x1648 JUMP JUMPDEST SWAP4 POP PUSH2 0x167C DUP2 DUP6 PUSH1 0x20 DUP7 ADD PUSH2 0x1577 JUMP JUMPDEST PUSH2 0x1685 DUP2 PUSH2 0x1202 JUMP JUMPDEST DUP5 ADD SWAP2 POP POP SWAP3 SWAP2 POP POP JUMP JUMPDEST PUSH0 PUSH1 0x20 DUP3 ADD SWAP1 POP DUP2 DUP2 SUB PUSH0 DUP4 ADD MSTORE PUSH2 0x16A8 DUP2 DUP5 PUSH2 0x1658 JUMP JUMPDEST SWAP1 POP SWAP3 SWAP2 POP POP JUMP JUMPDEST PUSH32 0x4E487B7100000000000000000000000000000000000000000000000000000000 PUSH0 MSTORE PUSH1 0x21 PUSH1 0x4 MSTORE PUSH1 0x24 PUSH0 REVERT JUMPDEST PUSH32 0x4E487B7100000000000000000000000000000000000000000000000000000000 PUSH0 MSTORE PUSH1 0x11 PUSH1 0x4 MSTORE PUSH1 0x24 PUSH0 REVERT JUMPDEST PUSH0 PUSH2 0x1714 DUP3 PUSH2 0x10CB JUMP JUMPDEST SWAP2 POP PUSH2 0x171F DUP4 PUSH2 0x10CB JUMP JUMPDEST SWAP3 POP DUP3 DUP3 ADD SWAP1 POP DUP1 DUP3 GT ISZERO PUSH2 0x1737 JUMPI PUSH2 0x1736 PUSH2 0x16DD JUMP JUMPDEST JUMPDEST SWAP3 SWAP2 POP POP JUMP JUMPDEST PUSH32 0x4E487B7100000000000000000000000000000000000000000000000000000000 PUSH0 MSTORE PUSH1 0x32 PUSH1 0x4 MSTORE PUSH1 0x24 PUSH0 REVERT JUMPDEST PUSH32 0x596F752063616E6E6F74207365652074686520706C6179657273206164647265 PUSH0 DUP3 ADD MSTORE PUSH32 0x7373206265636175736520796F7520617265206E6F742074686174206F6E6500 PUSH1 0x20 DUP3 ADD MSTORE POP JUMP JUMPDEST PUSH0 PUSH2 0x17C4 PUSH1 0x3F DUP4 PUSH2 0x1648 JUMP JUMPDEST SWAP2 POP PUSH2 0x17CF DUP3 PUSH2 0x176A JUMP JUMPDEST PUSH1 0x40 DUP3 ADD SWAP1 POP SWAP2 SWAP1 POP JUMP JUMPDEST PUSH0 PUSH1 0x20 DUP3 ADD SWAP1 POP DUP2 DUP2 SUB PUSH0 DUP4 ADD MSTORE PUSH2 0x17F1 DUP2 PUSH2 0x17B8 JUMP JUMPDEST SWAP1 POP SWAP2 SWAP1 POP JUMP JUMPDEST PUSH0 PUSH1 0x40 DUP3 ADD SWAP1 POP PUSH2 0x180B PUSH0 DUP4 ADD DUP6 PUSH2 0x1159 JUMP JUMPDEST PUSH2 0x1818 PUSH1 0x20 DUP4 ADD DUP5 PUSH2 0x1159 JUMP JUMPDEST SWAP4 SWAP3 POP POP POP JUMP JUMPDEST PUSH0 PUSH1 0x60 DUP3 ADD SWAP1 POP PUSH2 0x1832 PUSH0 DUP4 ADD DUP7 PUSH2 0x1181 JUMP JUMPDEST PUSH2 0x183F PUSH1 0x20 DUP4 ADD DUP6 PUSH2 0x1181 JUMP JUMPDEST PUSH2 0x184C PUSH1 0x40 DUP4 ADD DUP5 PUSH2 0x1181 JUMP JUMPDEST SWAP5 SWAP4 POP POP POP POP JUMP JUMPDEST PUSH0 DUP2 SWAP1 POP SWAP2 SWAP1 POP JUMP JUMPDEST PUSH2 0x1866 DUP2 PUSH2 0x1854 JUMP JUMPDEST DUP3 MSTORE POP POP JUMP JUMPDEST PUSH0 PUSH8 0xFFFFFFFFFFFFFFFF DUP3 AND SWAP1 POP SWAP2 SWAP1 POP JUMP JUMPDEST PUSH2 0x1888 DUP2 PUSH2 0x186C JUMP JUMPDEST DUP3 MSTORE POP POP JUMP JUMPDEST PUSH0 PUSH2 0xFFFF DUP3 AND SWAP1 POP SWAP2 SWAP1 POP JUMP JUMPDEST PUSH2 0x18A4 DUP2 PUSH2 0x188E JUMP JUMPDEST DUP3 MSTORE POP POP JUMP JUMPDEST PUSH0 PUSH4 0xFFFFFFFF DUP3 AND SWAP1 POP SWAP2 SWAP1 POP JUMP JUMPDEST PUSH2 0x18C2 DUP2 PUSH2 0x18AA JUMP JUMPDEST DUP3 MSTORE POP POP JUMP JUMPDEST PUSH0 PUSH1 0xA0 DUP3 ADD SWAP1 POP PUSH2 0x18DB PUSH0 DUP4 ADD DUP9 PUSH2 0x185D JUMP JUMPDEST PUSH2 0x18E8 PUSH1 0x20 DUP4 ADD DUP8 PUSH2 0x187F JUMP JUMPDEST PUSH2 0x18F5 PUSH1 0x40 DUP4 ADD DUP7 PUSH2 0x189B JUMP JUMPDEST PUSH2 0x1902 PUSH1 0x60 DUP4 ADD DUP6 PUSH2 0x18B9 JUMP JUMPDEST PUSH2 0x190F PUSH1 0x80 DUP4 ADD DUP5 PUSH2 0x18B9 JUMP JUMPDEST SWAP7 SWAP6 POP POP POP POP POP POP JUMP JUMPDEST PUSH0 DUP2 MLOAD SWAP1 POP PUSH2 0x1927 DUP2 PUSH2 0x10D4 JUMP JUMPDEST SWAP3 SWAP2 POP POP JUMP JUMPDEST PUSH0 PUSH1 0x20 DUP3 DUP5 SUB SLT ISZERO PUSH2 0x1942 JUMPI PUSH2 0x1941 PUSH2 0x10C3 JUMP JUMPDEST JUMPDEST PUSH0 PUSH2 0x194F DUP5 DUP3 DUP6 ADD PUSH2 0x1919 JUMP JUMPDEST SWAP2 POP POP SWAP3 SWAP2 POP POP JUMP JUMPDEST PUSH0 PUSH2 0x1962 DUP3 PUSH2 0x10CB JUMP JUMPDEST SWAP2 POP PUSH2 0x196D DUP4 PUSH2 0x10CB JUMP JUMPDEST SWAP3 POP DUP3 DUP3 SUB SWAP1 POP DUP2 DUP2 GT ISZERO PUSH2 0x1985 JUMPI PUSH2 0x1984 PUSH2 0x16DD JUMP JUMPDEST JUMPDEST SWAP3 SWAP2 POP POP JUMP JUMPDEST PUSH0 PUSH2 0x1995 DUP3 PUSH2 0x10CB JUMP JUMPDEST SWAP2 POP PUSH32 0xFFFFFFFFFFFFFFFFFFFFFFFFFFFFFFFFFFFFFFFFFFFFFFFFFFFFFFFFFFFFFFFF DUP3 SUB PUSH2 0x19C7 JUMPI PUSH2 0x19C6 PUSH2 0x16DD JUMP JUMPDEST JUMPDEST PUSH1 0x1 DUP3 ADD SWAP1 POP SWAP2 SWAP1 POP JUMP JUMPDEST PUSH32 0x4E487B7100000000000000000000000000000000000000000000000000000000 PUSH0 MSTORE PUSH1 0x12 PUSH1 0x4 MSTORE PUSH1 0x24 PUSH0 REVERT JUMPDEST PUSH0 PUSH2 0x1A09 DUP3 PUSH2 0x10CB JUMP JUMPDEST SWAP2 POP PUSH2 0x1A14 DUP4 PUSH2 0x10CB JUMP JUMPDEST SWAP3 POP DUP3 PUSH2 0x1A24 JUMPI PUSH2 0x1A23 PUSH2 0x19D2 JUMP JUMPDEST JUMPDEST DUP3 DUP3 MOD SWAP1 POP SWAP3 SWAP2 POP POP JUMP JUMPDEST PUSH0 DUP2 SWAP1 POP SWAP3 SWAP2 POP POP JUMP JUMPDEST POP JUMP JUMPDEST PUSH0 PUSH2 0x1A47 PUSH0 DUP4 PUSH2 0x1A2F JUMP JUMPDEST SWAP2 POP PUSH2 0x1A52 DUP3 PUSH2 0x1A39 JUMP JUMPDEST PUSH0 DUP3 ADD SWAP1 POP SWAP2 SWAP1 POP JUMP JUMPDEST PUSH0 PUSH2 0x1A66 DUP3 PUSH2 0x1A3C JUMP JUMPDEST SWAP2 POP DUP2 SWAP1 POP SWAP2 SWAP1 POP JUMP INVALID LOG2 PUSH5 0x6970667358 0x22 SLT KECCAK256 0x1E 0xE3 RETURNDATASIZE 0xE4 0xE5 0xBD 0xC0 0xCE 0xC2 0xB8 PUSH25 0xF0D81F634B443C09C778A14B4567DF1289CCC015364736F6C PUSH4 0x43000814 STOP CALLER "},"gasEstimates":{"creation":{"codeDepositCost":"1364400","executionCost":"infinite","totalCost":"infinite"},"external":{"GetYourDetails()":"2630","checkUpkeep(bytes)":"infinite","enter_count(address)":"2846","enter_nishaq()":"infinite","getEntranceFee()":"2500","getLastWinner()":"2581","getLatestTimeStamp()":"2477","getNishaqState()":"infinite","getNumberOfPlayers()":"2528","getOwner()":"infinite","getTotalFunding()":"infinite","get_player(uint256)":"9352","lotteryWinnerInterval()":"2521","maxEnterCount()":"2447","n_players(uint256)":"5011","numberOfWinners()":"infinite","performUpkeep(bytes)":"infinite","rawFulfillRandomWords(uint256,uint256[])":"infinite","total_funds(address)":"2892"},"internal":{"fulfillRandomWords(uint256,uint256[] memory)":"infinite"}},"methodIdentifiers":{"GetYourDetails()":"809c4d85","checkUpkeep(bytes)":"6e04ff0d","enter_count(address)":"ed074709","enter_nishaq()":"031309b9","getEntranceFee()":"09bc33a7","getLastWinner()":"f88649a1","getLatestTimeStamp()":"320229eb","getNishaqState()":"fef43b20","getNumberOfPlayers()":"fd6673f5","getOwner()":"893d20e8","getTotalFunding()":"c2750f99","get_player(uint256)":"04a3aba9","lotteryWinnerInterval()":"c063e540","maxEnterCount()":"c44778ad","n_players(uint256)":"97ea2865","numberOfWinners()":"8acfaca9","performUpkeep(bytes)":"4585e33b","rawFulfillRandomWords(uint256,uint256[])":"1fe543e3","total_funds(address)":"1625b570"}},"storageLayout":{"storage":[{"astId":205,"contract":"contracts/Nishaq.sol:Nishaq","label":"lastWinner","offset":0,"slot":"0","type":"t_address"},{"astId":207,"contract":"contracts/Nishaq.sol:Nishaq","label":"entrance_fee","offset":0,"slot":"1","type":"t_uint256"},{"astId":209,"contract":"contracts/Nishaq.sol:Nishaq","label":"maxEnterCount","offset":0,"slot":"2","type":"t_uint256"},{"astId":212,"contract":"contracts/Nishaq.sol:Nishaq","label":"n_players","offset":0,"slot":"3","type":"t_array(t_address_payable)dyn_storage"},{"astId":216,"contract":"contracts/Nishaq.sol:Nishaq","label":"enter_count","offset":0,"slot":"4","type":"t_mapping(t_address,t_uint256)"},{"astId":220,"contract":"contracts/Nishaq.sol:Nishaq","label":"total_funds","offset":0,"slot":"5","type":"t_mapping(t_address,t_uint256)"},{"astId":237,"contract":"contracts/Nishaq.sol:Nishaq","label":"nishaq_state","offset":0,"slot":"6","type":"t_enum(NishaqState)201"},{"astId":239,"contract":"contracts/Nishaq.sol:Nishaq","label":"s_timeStamp","offset":0,"slot":"7","type":"t_uint256"},{"astId":241,"contract":"contracts/Nishaq.sol:Nishaq","label":"nishaq_interval","offset":0,"slot":"8","type":"t_uint256"}],"types":{"t_address":{"encoding":"inplace","label":"address","numberOfBytes":"20"},"t_address_payable":{"encoding":"inplace","label":"address payable","numberOfBytes":"20"},"t_array(t_address_payable)dyn_storage":{"base":"t_address_payable","encoding":"dynamic_array","label":"address payable[]","numberOfBytes":"32"},"t_enum(NishaqState)201":{"encoding":"inplace","label":"enum Nishaq.NishaqState","numberOfBytes":"1"},"t_mapping(t_address,t_uint256)":{"encoding":"mapping","key":"t_address","label":"mapping(address => uint256)","numberOfBytes":"32","value":"t_uint256"},"t_uint256":{"encoding":"inplace","label":"uint256","numberOfBytes":"32"}}},"userdoc":{"kind":"user","methods":{},"version":1}}}}