{
  "_format": "hh-sol-artifact-1",
  "contractName": "Nishaq",
  "sourceName": "contracts/Nishaq.sol",
  "abi": [
    {
      "inputs": [
        {
          "internalType": "uint256",
          "name": "entrance_fee_init",
          "type": "uint256"
        },
        {
          "internalType": "uint256",
          "name": "maxEnterCount_init",
          "type": "uint256"
        },
        {
          "internalType": "address",
          "name": "vrf_coordinator_addr",
          "type": "address"
        },
        {
          "internalType": "bytes32",
          "name": "c_keyHash",
          "type": "bytes32"
        },
        {
          "internalType": "uint64",
          "name": "c_subscriptionId",
          "type": "uint64"
        },
        {
          "internalType": "uint32",
          "name": "c_call_back_gas_limit",
          "type": "uint32"
        },
        {
          "internalType": "uint32",
          "name": "c_num_words",
          "type": "uint32"
        },
        {
          "internalType": "uint256",
          "name": "c_nishaq_interval",
          "type": "uint256"
        }
      ],
      "stateMutability": "nonpayable",
      "type": "constructor"
    },
    {
      "inputs": [],
      "name": "Nishaq_Closed",
      "type": "error"
    },
    {
      "inputs": [],
      "name": "Nishaq__TransferWinnerFailed",
      "type": "error"
    },
    {
      "inputs": [
        {
          "internalType": "uint256",
          "name": "balance",
          "type": "uint256"
        },
        {
          "internalType": "uint256",
          "name": "numplayers",
          "type": "uint256"
        },
        {
          "internalType": "uint256",
          "name": "nishaq_state",
          "type": "uint256"
        }
      ],
      "name": "NoUpkeepNeeded",
      "type": "error"
    },
    {
      "inputs": [],
      "name": "NotEnoughETHEntered",
      "type": "error"
    },
    {
      "inputs": [
        {
          "internalType": "address",
          "name": "have",
          "type": "address"
        },
        {
          "internalType": "address",
          "name": "want",
          "type": "address"
        }
      ],
      "name": "OnlyCoordinatorCanFulfill",
      "type": "error"
    },
    {
      "anonymous": false,
      "inputs": [
        {
          "indexed": true,
          "internalType": "address",
          "name": "player",
          "type": "address"
        }
      ],
      "name": "NishaqEntered",
      "type": "event"
    },
    {
      "anonymous": false,
      "inputs": [
        {
          "indexed": true,
          "internalType": "uint256",
          "name": "requestId",
          "type": "uint256"
        },
        {
          "indexed": true,
          "internalType": "uint32",
          "name": "numWords",
          "type": "uint32"
        }
      ],
      "name": "RequestedNishaqWinner",
      "type": "event"
    },
    {
      "anonymous": false,
      "inputs": [
        {
          "indexed": true,
          "internalType": "address",
          "name": "recent_winner",
          "type": "address"
        }
      ],
      "name": "WinnerPicked",
      "type": "event"
    },
    {
      "inputs": [],
      "name": "GetYourDetails",
      "outputs": [
        {
          "internalType": "uint256",
          "name": "",
          "type": "uint256"
        }
      ],
      "stateMutability": "view",
      "type": "function"
    },
    {
      "inputs": [
        {
          "internalType": "bytes",
          "name": "",
          "type": "bytes"
        }
      ],
      "name": "checkUpkeep",
      "outputs": [
        {
          "internalType": "bool",
          "name": "upkeepNeeded",
          "type": "bool"
        },
        {
          "internalType": "bytes",
          "name": "",
          "type": "bytes"
        }
      ],
      "stateMutability": "view",
      "type": "function"
    },
    {
      "inputs": [
        {
          "internalType": "address",
          "name": "",
          "type": "address"
        }
      ],
      "name": "enter_count",
      "outputs": [
        {
          "internalType": "uint256",
          "name": "",
          "type": "uint256"
        }
      ],
      "stateMutability": "view",
      "type": "function"
    },
    {
      "inputs": [],
      "name": "enter_nishaq",
      "outputs": [],
      "stateMutability": "payable",
      "type": "function"
    },
    {
      "inputs": [],
      "name": "getEntranceFee",
      "outputs": [
        {
          "internalType": "uint256",
          "name": "",
          "type": "uint256"
        }
      ],
      "stateMutability": "view",
      "type": "function"
    },
    {
      "inputs": [],
      "name": "getLastWinner",
      "outputs": [
        {
          "internalType": "address",
          "name": "",
          "type": "address"
        }
      ],
      "stateMutability": "view",
      "type": "function"
    },
    {
      "inputs": [],
      "name": "getLatestTimeStamp",
      "outputs": [
        {
          "internalType": "uint256",
          "name": "",
          "type": "uint256"
        }
      ],
      "stateMutability": "view",
      "type": "function"
    },
    {
      "inputs": [],
      "name": "getNishaqState",
      "outputs": [
        {
          "internalType": "string",
          "name": "",
          "type": "string"
        }
      ],
      "stateMutability": "view",
      "type": "function"
    },
    {
      "inputs": [],
      "name": "getNumberOfPlayers",
      "outputs": [
        {
          "internalType": "uint256",
          "name": "",
          "type": "uint256"
        }
      ],
      "stateMutability": "view",
      "type": "function"
    },
    {
      "inputs": [],
      "name": "getOwner",
      "outputs": [
        {
          "internalType": "address",
          "name": "",
          "type": "address"
        }
      ],
      "stateMutability": "view",
      "type": "function"
    },
    {
      "inputs": [],
      "name": "getTotalFunding",
      "outputs": [
        {
          "internalType": "uint256",
          "name": "",
          "type": "uint256"
        }
      ],
      "stateMutability": "view",
      "type": "function"
    },
    {
      "inputs": [
        {
          "internalType": "uint256",
          "name": "index",
          "type": "uint256"
        }
      ],
      "name": "get_player",
      "outputs": [
        {
          "internalType": "address",
          "name": "",
          "type": "address"
        }
      ],
      "stateMutability": "view",
      "type": "function"
    },
    {
      "inputs": [],
      "name": "lotteryWinnerInterval",
      "outputs": [
        {
          "internalType": "uint256",
          "name": "",
          "type": "uint256"
        }
      ],
      "stateMutability": "view",
      "type": "function"
    },
    {
      "inputs": [],
      "name": "maxEnterCount",
      "outputs": [
        {
          "internalType": "uint256",
          "name": "",
          "type": "uint256"
        }
      ],
      "stateMutability": "view",
      "type": "function"
    },
    {
      "inputs": [
        {
          "internalType": "uint256",
          "name": "",
          "type": "uint256"
        }
      ],
      "name": "n_players",
      "outputs": [
        {
          "internalType": "address payable",
          "name": "",
          "type": "address"
        }
      ],
      "stateMutability": "view",
      "type": "function"
    },
    {
      "inputs": [],
      "name": "numberOfWinners",
      "outputs": [
        {
          "internalType": "uint256",
          "name": "",
          "type": "uint256"
        }
      ],
      "stateMutability": "view",
      "type": "function"
    },
    {
      "inputs": [
        {
          "internalType": "bytes",
          "name": "",
          "type": "bytes"
        }
      ],
      "name": "performUpkeep",
      "outputs": [],
      "stateMutability": "nonpayable",
      "type": "function"
    },
    {
      "inputs": [
        {
          "internalType": "uint256",
          "name": "requestId",
          "type": "uint256"
        },
        {
          "internalType": "uint256[]",
          "name": "randomWords",
          "type": "uint256[]"
        }
      ],
      "name": "rawFulfillRandomWords",
      "outputs": [],
      "stateMutability": "nonpayable",
      "type": "function"
    },
    {
      "inputs": [
        {
          "internalType": "address",
          "name": "",
          "type": "address"
        }
      ],
      "name": "total_funds",
      "outputs": [
        {
          "internalType": "uint256",
          "name": "",
          "type": "uint256"
        }
      ],
      "stateMutability": "view",
      "type": "function"
    }
  ],
  "bytecode": "0x61016060405234801562000011575f80fd5b5060405162001ecd38038062001ecd8339818101604052810190620000379190620002cf565b858073ffffffffffffffffffffffffffffffffffffffff1660808173ffffffffffffffffffffffffffffffffffffffff16815250505087600181905550866002819055508573ffffffffffffffffffffffffffffffffffffffff1660c08173ffffffffffffffffffffffffffffffffffffffff16815250508460e081815250508367ffffffffffffffff166101008167ffffffffffffffff16815250508263ffffffff166101208163ffffffff16815250508163ffffffff166101408163ffffffff16815250503373ffffffffffffffffffffffffffffffffffffffff1660a08173ffffffffffffffffffffffffffffffffffffffff16815250505f60065f6101000a81548160ff0219169083600281111562000159576200015862000393565b5b021790555042600781905550806008819055505050505050505050620003c0565b5f80fd5b5f819050919050565b62000192816200017e565b81146200019d575f80fd5b50565b5f81519050620001b08162000187565b92915050565b5f73ffffffffffffffffffffffffffffffffffffffff82169050919050565b5f620001e182620001b6565b9050919050565b620001f381620001d5565b8114620001fe575f80fd5b50565b5f815190506200021181620001e8565b92915050565b5f819050919050565b6200022b8162000217565b811462000236575f80fd5b50565b5f81519050620002498162000220565b92915050565b5f67ffffffffffffffff82169050919050565b6200026d816200024f565b811462000278575f80fd5b50565b5f815190506200028b8162000262565b92915050565b5f63ffffffff82169050919050565b620002ab8162000291565b8114620002b6575f80fd5b50565b5f81519050620002c981620002a0565b92915050565b5f805f805f805f80610100898b031215620002ef57620002ee6200017a565b5b5f620002fe8b828c01620001a0565b9850506020620003118b828c01620001a0565b9750506040620003248b828c0162000201565b9650506060620003378b828c0162000239565b95505060806200034a8b828c016200027b565b94505060a06200035d8b828c01620002b9565b93505060c0620003708b828c01620002b9565b92505060e0620003838b828c01620001a0565b9150509295985092959890939650565b7f4e487b71000000000000000000000000000000000000000000000000000000005f52602160045260245ffd5b60805160a05160c05160e051610100516101205161014051611aa6620004275f395f818161098901528181610a0c0152610b9501525f61096801525f61094501525f61092401525f6108e801525f610b6e01525f818161076e01526107c20152611aa65ff3fe608060405260043610610113575f3560e01c8063893d20e81161009f578063c44778ad11610063578063c44778ad14610388578063ed074709146103b2578063f88649a1146103ee578063fd6673f514610418578063fef43b201461044257610113565b8063893d20e8146102a45780638acfaca9146102ce57806397ea2865146102f8578063c063e54014610334578063c2750f991461035e57610113565b80631fe543e3116100e65780631fe543e3146101c3578063320229eb146101eb5780634585e33b146102155780636e04ff0d1461023d578063809c4d851461027a57610113565b8063031309b91461011757806304a3aba91461012157806309bc33a71461015d5780631625b57014610187575b5f80fd5b61011f61046c565b005b34801561012c575f80fd5b50610147600480360381019061014291906110fe565b61065f565b6040516101549190611168565b60405180910390f35b348015610168575f80fd5b5061017161074e565b60405161017e9190611190565b60405180910390f35b348015610192575f80fd5b506101ad60048036038101906101a891906111d3565b610757565b6040516101ba9190611190565b60405180910390f35b3480156101ce575f80fd5b506101e960048036038101906101e4919061134e565b61076c565b005b3480156101f6575f80fd5b506101ff61082c565b60405161020c9190611190565b60405180910390f35b348015610220575f80fd5b5061023b60048036038101906102369190611401565b610835565b005b348015610248575f80fd5b50610263600480360381019061025e91906114fc565b610a64565b6040516102719291906115d7565b60405180910390f35b348015610285575f80fd5b5061028e610b27565b60405161029b9190611190565b60405180910390f35b3480156102af575f80fd5b506102b8610b6b565b6040516102c59190611168565b60405180910390f35b3480156102d9575f80fd5b506102e2610b92565b6040516102ef9190611190565b60405180910390f35b348015610303575f80fd5b5061031e600480360381019061031991906110fe565b610bbf565b60405161032b9190611625565b60405180910390f35b34801561033f575f80fd5b50610348610bfa565b6040516103559190611190565b60405180910390f35b348015610369575f80fd5b50610372610c03565b60405161037f9190611190565b60405180910390f35b348015610393575f80fd5b5061039c610cb8565b6040516103a99190611190565b60405180910390f35b3480156103bd575f80fd5b506103d860048036038101906103d391906111d3565b610cbe565b6040516103e59190611190565b60405180910390f35b3480156103f9575f80fd5b50610402610cd3565b60405161040f9190611168565b60405180910390f35b348015610423575f80fd5b5061042c610cfa565b6040516104399190611190565b60405180910390f35b34801561044d575f80fd5b50610456610d06565b6040516104639190611690565b60405180910390f35b5f600281111561047f5761047e6116b0565b5b60065f9054906101000a900460ff1660028111156104a05761049f6116b0565b5b146104d7576040517f9af17cba00000000000000000000000000000000000000000000000000000000815260040160405180910390fd5b600154341015610513576040517f3c21f23000000000000000000000000000000000000000000000000000000000815260040160405180910390fd5b600333908060018154018082558091505060019003905f5260205f20015f9091909190916101000a81548173ffffffffffffffffffffffffffffffffffffffff021916908373ffffffffffffffffffffffffffffffffffffffff1602179055503460055f3373ffffffffffffffffffffffffffffffffffffffff1673ffffffffffffffffffffffffffffffffffffffff1681526020019081526020015f205f8282546105bf919061170a565b92505081905550600160045f3373ffffffffffffffffffffffffffffffffffffffff1673ffffffffffffffffffffffffffffffffffffffff1681526020019081526020015f205f828254610613919061170a565b925050819055503373ffffffffffffffffffffffffffffffffffffffff167fa8a654e266f85eee8278a2ffce0fbc599ecaad61e13e5ec6c04aee66a3457c3660405160405180910390a2565b5f813373ffffffffffffffffffffffffffffffffffffffff166003828154811061068c5761068b61173d565b5b905f5260205f20015f9054906101000a900473ffffffffffffffffffffffffffffffffffffffff1673ffffffffffffffffffffffffffffffffffffffff161461070a576040517f08c379a0000000000000000000000000000000000000000000000000000000008152600401610701906117da565b60405180910390fd5b6003838154811061071e5761071d61173d565b5b905f5260205f20015f9054906101000a900473ffffffffffffffffffffffffffffffffffffffff16915050919050565b5f600154905090565b6005602052805f5260405f205f915090505481565b7f000000000000000000000000000000000000000000000000000000000000000073ffffffffffffffffffffffffffffffffffffffff163373ffffffffffffffffffffffffffffffffffffffff161461081e57337f00000000000000000000000000000000000000000000000000000000000000006040517f1cf993f40000000000000000000000000000000000000000000000000000000081526004016108159291906117f8565b60405180910390fd5b6108288282610df4565b5050565b5f600754905090565b5f61084d60405180602001604052805f815250610a64565b509050806108bb574760038054905060065f9054906101000a900460ff16600281111561087d5761087c6116b0565b5b6040517f9890590a0000000000000000000000000000000000000000000000000000000081526004016108b29392919061181f565b60405180910390fd5b600160065f6101000a81548160ff021916908360028111156108e0576108df6116b0565b5b02179055505f7f000000000000000000000000000000000000000000000000000000000000000073ffffffffffffffffffffffffffffffffffffffff16635d3b1d307f00000000000000000000000000000000000000000000000000000000000000007f000000000000000000000000000000000000000000000000000000000000000060037f00000000000000000000000000000000000000000000000000000000000000007f00000000000000000000000000000000000000000000000000000000000000006040518663ffffffff1660e01b81526004016109c89594939291906118c8565b6020604051808303815f875af11580156109e4573d5f803e3d5ffd5b505050506040513d601f19601f82011682018060405250810190610a08919061192d565b90507f000000000000000000000000000000000000000000000000000000000000000063ffffffff16817fabc349d6919e025518ebb5168a91131be5199b377ad4dfccfc0f642bf78be28e60405160405180910390a350505050565b5f60605f60065f9054906101000a900460ff166002811115610a8957610a886116b0565b5b5f6002811115610a9c57610a9b6116b0565b5b1490505f60085460075442610ab19190611958565b1190505f806003805490501190505f8047119050828015610acf5750835b8015610ad85750805b8015610ae15750815b9550856040518060400160405280600381526020017f30783000000000000000000000000000000000000000000000000000000000008152509550955050505050915091565b5f60055f3373ffffffffffffffffffffffffffffffffffffffff1673ffffffffffffffffffffffffffffffffffffffff1681526020019081526020015f2054905090565b5f7f0000000000000000000000000000000000000000000000000000000000000000905090565b5f7f000000000000000000000000000000000000000000000000000000000000000063ffffffff16905090565b60038181548110610bce575f80fd5b905f5260205f20015f915054906101000a900473ffffffffffffffffffffffffffffffffffffffff1681565b5f600854905090565b5f805f90505f5b600380549050811015610cb05760055f60038381548110610c2e57610c2d61173d565b5b905f5260205f20015f9054906101000a900473ffffffffffffffffffffffffffffffffffffffff1673ffffffffffffffffffffffffffffffffffffffff1673ffffffffffffffffffffffffffffffffffffffff1681526020019081526020015f205482610c9b919061170a565b91508080610ca89061198b565b915050610c0a565b508091505090565b60025481565b6004602052805f5260405f205f915090505481565b5f805f9054906101000a900473ffffffffffffffffffffffffffffffffffffffff16905090565b5f600380549050905090565b60605f60065f9054906101000a900460ff166002811115610d2a57610d296116b0565b5b90505f8103610d71576040518060400160405280600481526020017f4f70656e00000000000000000000000000000000000000000000000000000000815250915050610df1565b60018103610db7576040518060400160405280600b81526020017f43616c63756c6174696e67000000000000000000000000000000000000000000815250915050610df1565b6040518060400160405280600481526020017f4e6f6e65000000000000000000000000000000000000000000000000000000008152509150505b90565b5f600380549050825f81518110610e0e57610e0d61173d565b5b6020026020010151610e2091906119ff565b90505f60038281548110610e3757610e3661173d565b5b905f5260205f20015f9054906101000a900473ffffffffffffffffffffffffffffffffffffffff169050805f806101000a81548173ffffffffffffffffffffffffffffffffffffffff021916908373ffffffffffffffffffffffffffffffffffffffff1602179055505f60065f6101000a81548160ff02191690836002811115610ec457610ec36116b0565b5b02179055505f67ffffffffffffffff811115610ee357610ee2611212565b5b604051908082528060200260200182016040528015610f115781602001602082028036833780820191505090505b5060039080519060200190610f27929190611018565b50426007819055505f8173ffffffffffffffffffffffffffffffffffffffff1647604051610f5490611a5c565b5f6040518083038185875af1925050503d805f8114610f8e576040519150601f19603f3d011682016040523d82523d5f602084013e610f93565b606091505b505090508173ffffffffffffffffffffffffffffffffffffffff167f5b690ec4a06fe979403046eaeea5b3ce38524683c3001f662c8b5a829632f7df60405160405180910390a280611011576040517f86eeb2bf00000000000000000000000000000000000000000000000000000000815260040160405180910390fd5b5050505050565b828054828255905f5260205f2090810192821561108e579160200282015b8281111561108d578251825f6101000a81548173ffffffffffffffffffffffffffffffffffffffff021916908373ffffffffffffffffffffffffffffffffffffffff16021790555091602001919060010190611036565b5b50905061109b919061109f565b5090565b5b808211156110b6575f815f9055506001016110a0565b5090565b5f604051905090565b5f80fd5b5f80fd5b5f819050919050565b6110dd816110cb565b81146110e7575f80fd5b50565b5f813590506110f8816110d4565b92915050565b5f60208284031215611113576111126110c3565b5b5f611120848285016110ea565b91505092915050565b5f73ffffffffffffffffffffffffffffffffffffffff82169050919050565b5f61115282611129565b9050919050565b61116281611148565b82525050565b5f60208201905061117b5f830184611159565b92915050565b61118a816110cb565b82525050565b5f6020820190506111a35f830184611181565b92915050565b6111b281611148565b81146111bc575f80fd5b50565b5f813590506111cd816111a9565b92915050565b5f602082840312156111e8576111e76110c3565b5b5f6111f5848285016111bf565b91505092915050565b5f80fd5b5f601f19601f8301169050919050565b7f4e487b71000000000000000000000000000000000000000000000000000000005f52604160045260245ffd5b61124882611202565b810181811067ffffffffffffffff8211171561126757611266611212565b5b80604052505050565b5f6112796110ba565b9050611285828261123f565b919050565b5f67ffffffffffffffff8211156112a4576112a3611212565b5b602082029050602081019050919050565b5f80fd5b5f6112cb6112c68461128a565b611270565b905080838252602082019050602084028301858111156112ee576112ed6112b5565b5b835b81811015611317578061130388826110ea565b8452602084019350506020810190506112f0565b5050509392505050565b5f82601f830112611335576113346111fe565b5b81356113458482602086016112b9565b91505092915050565b5f8060408385031215611364576113636110c3565b5b5f611371858286016110ea565b925050602083013567ffffffffffffffff811115611392576113916110c7565b5b61139e85828601611321565b9150509250929050565b5f80fd5b5f8083601f8401126113c1576113c06111fe565b5b8235905067ffffffffffffffff8111156113de576113dd6113a8565b5b6020830191508360018202830111156113fa576113f96112b5565b5b9250929050565b5f8060208385031215611417576114166110c3565b5b5f83013567ffffffffffffffff811115611434576114336110c7565b5b611440858286016113ac565b92509250509250929050565b5f80fd5b5f67ffffffffffffffff82111561146a57611469611212565b5b61147382611202565b9050602081019050919050565b828183375f83830152505050565b5f6114a061149b84611450565b611270565b9050828152602081018484840111156114bc576114bb61144c565b5b6114c7848285611480565b509392505050565b5f82601f8301126114e3576114e26111fe565b5b81356114f384826020860161148e565b91505092915050565b5f60208284031215611511576115106110c3565b5b5f82013567ffffffffffffffff81111561152e5761152d6110c7565b5b61153a848285016114cf565b91505092915050565b5f8115159050919050565b61155781611543565b82525050565b5f81519050919050565b5f82825260208201905092915050565b5f5b83811015611594578082015181840152602081019050611579565b5f8484015250505050565b5f6115a98261155d565b6115b38185611567565b93506115c3818560208601611577565b6115cc81611202565b840191505092915050565b5f6040820190506115ea5f83018561154e565b81810360208301526115fc818461159f565b90509392505050565b5f61160f82611129565b9050919050565b61161f81611605565b82525050565b5f6020820190506116385f830184611616565b92915050565b5f81519050919050565b5f82825260208201905092915050565b5f6116628261163e565b61166c8185611648565b935061167c818560208601611577565b61168581611202565b840191505092915050565b5f6020820190508181035f8301526116a88184611658565b905092915050565b7f4e487b71000000000000000000000000000000000000000000000000000000005f52602160045260245ffd5b7f4e487b71000000000000000000000000000000000000000000000000000000005f52601160045260245ffd5b5f611714826110cb565b915061171f836110cb565b9250828201905080821115611737576117366116dd565b5b92915050565b7f4e487b71000000000000000000000000000000000000000000000000000000005f52603260045260245ffd5b7f596f752063616e6e6f74207365652074686520706c61796572732061646472655f8201527f7373206265636175736520796f7520617265206e6f742074686174206f6e6500602082015250565b5f6117c4603f83611648565b91506117cf8261176a565b604082019050919050565b5f6020820190508181035f8301526117f1816117b8565b9050919050565b5f60408201905061180b5f830185611159565b6118186020830184611159565b9392505050565b5f6060820190506118325f830186611181565b61183f6020830185611181565b61184c6040830184611181565b949350505050565b5f819050919050565b61186681611854565b82525050565b5f67ffffffffffffffff82169050919050565b6118888161186c565b82525050565b5f61ffff82169050919050565b6118a48161188e565b82525050565b5f63ffffffff82169050919050565b6118c2816118aa565b82525050565b5f60a0820190506118db5f83018861185d565b6118e8602083018761187f565b6118f5604083018661189b565b61190260608301856118b9565b61190f60808301846118b9565b9695505050505050565b5f81519050611927816110d4565b92915050565b5f60208284031215611942576119416110c3565b5b5f61194f84828501611919565b91505092915050565b5f611962826110cb565b915061196d836110cb565b9250828203905081811115611985576119846116dd565b5b92915050565b5f611995826110cb565b91507fffffffffffffffffffffffffffffffffffffffffffffffffffffffffffffffff82036119c7576119c66116dd565b5b600182019050919050565b7f4e487b71000000000000000000000000000000000000000000000000000000005f52601260045260245ffd5b5f611a09826110cb565b9150611a14836110cb565b925082611a2457611a236119d2565b5b828206905092915050565b5f81905092915050565b50565b5f611a475f83611a2f565b9150611a5282611a39565b5f82019050919050565b5f611a6682611a3c565b915081905091905056fea26469706673582212201ee33de4e5bdc0cec2b8780f0d81f634b443c09c778a14b4567df1289ccc015364736f6c63430008140033",
  "linkReferences": {},
  "deployedLinkReferences": {}
}